:040000006BEF00F0B2
:0E0008003C82FACF05F0FBCF06F0BBEF0AF00A
:100018003C80D8CF13F0E8CF14F0E0CF15F0FACF3A
:1000280016F0FBCF17F0E9CF18F0EACF19F0E1CFBF
:100038001AF0E2CF1BF0D9CF1CF0DACF1DF0F3CFC6
:100048001EF0F4CF1FF0F6CF20F0F7CF21F0F8CF55
:1000580022F0F5CF23F09EAA16D03A50010DEE0EED
:10006800F324D96E000EF420DA6EAECFDFFF010E56
:100078000001ED6F0F0E3A18D8A403D0000E3A6EA7
:1000880001D03A2A9E9A23C0F5FF22C0F8FF21C06A
:10009800F7FF20C0F6FF1FC0F4FF1EC0F3FF1DC00E
:1000A800DAFF1CC0D9FF1BC0E2FF1AC0E1FF19C06C
:1000B800EAFF18C0E9FF17C0FBFF16C0FAFF15C01A
:1000C800E0FF14C0E8FF13C0D8FF3C901000A4EF75
:0200D8000DF029
:100300000001000A006400E8031027C800C409E8DF
:1003100003202020205363616E5769746852616E18
:10032000676500202020202020466F756E642042E3
:100330006F6D622100202020202020476F696E67AA
:1003400020486F6D6500202020202020205365610B
:10035000726368696E670020202020202530346495
:100360002C2025303464002020202020496E657226
:1003700074204D6F64650020202020202020205311
:1003800063616E4952000000000E0001DF6F000E35
:100390000001DE6F000E0001E06FE9C0D9F0EAC095
:1003A000DAF0EBC0DBF0ECC0DCF0060E0001DD6F34
:1003B000F28EF28CF28CD08E9F9A9D8A9486F2886F
:1003C0009E9AF292000E0101C86F010E0101C96FE1
:1003D000790E0101CA6F0F0E0101CB6F780E01017A
:1003E000CC6F0F0E0101CD6F000E0101CE6F000E1C
:1003F0000101D06FC70ECF6F000E0101D16F010E4A
:100400000101D26F770E0101D36F0F0E0101D46F7E
:10041000760E0101D56F0F0E0101D66F020E01019C
:10042000D76F000E0101D96FC70ED86F720ED36E51
:10043000D3B40DD2FDD7C80E0001626F010E0001CA
:10044000636FD10E0001646F010E0001656F71ECE6
:100450000AF0000E0001ED6F7BEC0BF024C0D9F028
:1004600025C0DAF042EC0BF024C0DBF025C0DCF054
:10047000000E696E000E686E000E676E000E666EEE
:10048000000E286E010E55EC0DF0210EE82EFED761
:1004900000F0000E286E020E55EC0DF0060E000165
:1004A000A56F300EE82EFED7A52FFCD700D0010E89
:1004B0003DEC0DF0670E2A6E030E2B6EECEC0BF08C
:1004C000020E3DEC0DF0A70E306E000E316E570E91
:1004D000326E030E336ED9C034F0DAC035F0DBC0B3
:1004E00036F0DCC037F033EC06F0A70E2A6E000EB3
:1004F0002B6EECEC0BF0ABD124EC0DF0C2EC0DF05C
:10050000B9EC09F093EC0DF0010E246E000E6DECC9
:100510000DF0010E246E010E6DEC0DF0C80E000101
:10052000626F010E0001636FD10E0001646F010E56
:100530000001656FB4EC0BF0010EECEC0CF086D111
:10054000010E3DEC0DF0460E2A6E030E2B6EECEC08
:100550000BF00001DE29D8A42ED0C80E0001626F76
:10056000010E0001636FD10E0001646F010E0001E6
:10057000656FB4EC0BF00001DD51ECEC0CF0C80E33
:100580000001626F010E0001636FD10E0001646F04
:10059000010E0001656F71EC0AF0000E0001DE6FC4
:1005A0000001E051010D640EF324D96E010EF42018
:1005B000DA6E000E27D10001DE510001D8A41ED052
:1005C000C80E00016D6F010E00016E6FD10E0001AB
:1005D0006F6F010E0001706FDDC071F00001E0511E
:1005E000010D000EF3240001726F010EF4200001D2
:1005F000736FB6EC07F00001DE6F2ED00001DE0550
:10060000D8A423D0C80E00016D6F010E00016E6FDB
:10061000D10E00016F6F010E0001706FE00E00013E
:10062000716F000E0001726F000E0001736F010EFA
:100630000001746F640E0001756F010E0001766F8A
:1006400038EC04F00001DE6FDED0020E0001DE198E
:10065000D8A4D9D0020E3B6E0001E051010D640E0A
:10066000F324D96E010EF420DA6E010ECBD0000116
:10067000ED51D8B49CD0C80E0001626F010E00018C
:10068000636FD10E0001646F010E0001656F71ECA4
:100690000AF0030E0001FD19D8A402D0010E01D00A
:1006A000000E0001A56F020E0001EE19D8A402D0C1
:1006B000010E01D0000E0001A515E8A0C8D0EE0E75
:1006C000246E000E256E17EC0AF00009D8B441D054
:1006D000000E0001DF6F090E0001DF6501D020D0A0
:1006E0000001DF510001A56FA66B010E0001A527D7
:1006F000000EA623EE0E0001A525D96E000E000106
:10070000A621DA6E0001DF51010DCF0EF324E16E58
:10071000000EF420E26EDFCFE7FF0001DF2BDBD716
:10072000000E0001DF6F0F0E0001DF6501D00ED05B
:100730000001DF51010DEE0EF324D96E000EF420FE
:10074000DA6E000EDF6E0001DF2BEDD7030E3B6E7D
:100750007ED0C80E0001666F010E0001676FD10EDA
:100760000001686F010E0001696FB3EC0CF0050E1B
:10077000ECEC0CF0C80E0001626F010E0001636F1B
:10078000D10E0001646F010E0001656F71EC0AF07B
:10079000C80E0001626F010E0001636FD10E0001EF
:1007A000646F010E0001656FB4EC0BF050D0010EC8
:1007B0000001DE6F010E3B6EC80E0001626F010E7C
:1007C0000001636FD10E0001646F010E0001656FBF
:1007D000B4EC0BF0050EECEC0CF00001E051010D57
:1007E000640EF324D96E010EF420DA6E000EDF6E73
:1007F0000001E051010D000EF324D96E010EF4202A
:10080000DA6E050EDF6E0001E02B21D0010E3DEC0B
:100810000DF0230E2A6E030E2B6EECEC0BF0020E85
:100820003DEC0DF0350E2A6E030E2B6EECEC0BF04A
:10083000C80E0001626F010E0001636FD10E00014E
:10084000646F010E0001656F71EC0AF03B683B506C
:10085000000AD8B451D6010AD8B472D6030AD8B463
:1008600006D7010AD8B4D2D7FC0AD8B4E4D5EFD75A
:10087000E1C0A1F0E2C0A2F0E3C0A3F0E4C0A4F0A4
:100880007BEC0BF024C0A1F025C0A2F042EC0BF0F1
:1008900024C0A3F025C0A4F0000E696E000E686E9F
:1008A000000E676E000E666E000E286E010E55EC8F
:1008B0000DF0210EE82EFED700F0000E286E020E7D
:1008C00055EC0DF0060E0001776F300EE82EFED7C6
:1008D000772FFCD700D0010E3DEC0DF0770E2A6E7D
:1008E000030E2B6EECEC0BF0020E3DEC0DF0790ECE
:1008F000306E000E316E570E326E030E336EA1C095
:1009000034F0A2C035F0A3C036F0A4C037F033EC09
:1009100006F0790E2A6E000E2B6EECEC0BF0000147
:10092000A1510001A3250001776F0001A251000130
:10093000A4210001786F0B0EF66E030EF76E000116
:1009400077510900F55C000178510900F558D8B0DD
:10095000F8D00D0EF66E030EF76E0001A1510900DE
:10096000F55C0001A2510900F558D8B050D00D0E29
:10097000F66E030EF76E0001A3510900F55C00014D
:10098000A4510900F558D8B042D00F0EF66E030EF0
:10099000F76E20EEA3F0DECF77F0DDCF78F0000128
:1009A000771F781F774B782B0001A1510001772723
:1009B0000001A251000178230900F5500001775D84
:1009C0000900F55000017859D8A01FD00F0EF66E1F
:1009D000030EF76EA1C077F0A2C078F00001771F78
:1009E000781F774B782B0001A35100017727000176
:1009F000A451000178230900F5500001775D09003A
:100A0000F55000017859D8B002D0020E1200000152
:100A1000A1510001A35D0001A2510001A459D8A079
:100A20003AD06DC062F06EC063F06FC064F070C009
:100A300065F071EC0AF06DC066F06EC067F06FC0D3
:100A400068F070C069F06BEC0CF0030EECEC0CF08D
:100A50006DC062F06EC063F06FC064F070C065F08E
:100A600071EC0AF071C0D9FF72C0DAFFDF500001EB
:100A7000776F00017751010DF35000017325D96E96
:100A8000F45000017421DA6E030EDF6E43D00001D2
:100A9000714B722B54D00001A1510001A35D0001E4
:100AA000A2510001A459D8B0DCD06DC062F06EC074
:100AB00063F06FC064F070C065F071EC0AF06DC057
:100AC00066F06EC067F06FC068F070C069F044EC0B
:100AD0000CF0030EECEC0CF06DC062F06EC063F035
:100AE0006FC064F070C065F071EC0AF071C0D9FF9E
:100AF00072C0DAFFDF500001776F00017751010DFE
:100B0000F35000017325D96EF45000017421DA6EA0
:100B1000FD0EBBD771C0D9FF72C0DAFFDF500001F4
:100B2000776F00017751010DF35000017525D96EE3
:100B3000F45000017621DA6E010EDF6EA8D7010EA7
:100B400012006DC062F06EC063F06FC064F070C0E0
:100B500065F071EC0AF00001A1510001A35D0001F4
:100B6000A2510001A459D8A030D06DC066F06EC06B
:100B700067F06FC068F070C069F06BEC0CF0050EA8
:100B8000ECEC0CF06DC062F06EC063F06FC064F00E
:100B900070C065F071EC0AF071C0D9FF72C0DAFF65
:100BA000DF500001776F00017751010DF350000114
:100BB0007325D96EF45000017421DA6E050EDF6ED4
:100BC00039D00001714B722B4AD00001A1510001B4
:100BD000A35D0001A2510001A459D8B042D06DC05C
:100BE00066F06EC067F06FC068F070C069F044ECEA
:100BF0000CF0050EECEC0CF06DC062F06EC063F012
:100C00006FC064F070C065F071EC0AF071C0D9FF7C
:100C100072C0DAFFDF500001776F00017751010DDC
:100C2000F35000017325D96EF45000017421DA6E7F
:100C3000FB0EC5D771C0D9FF72C0DAFFDF500001CB
:100C4000776F00017751010DF35000017525D96EC2
:100C5000F45000017621DA6E010EDF6EB2D7000E7D
:100C60001200000E1200340E0001646F000E00012D
:100C7000656F68D1250E00016C19D8B409D030C059
:100C8000D9FF31C0DAFF6CC0DFFF304A312A5AD1B8
:100C9000000E00016B6F000E6A6F000E0001696F9D
:100CA00004D000016985324A332A32C0F6FF33C0CE
:100CB000F7FF0800F550300AD8B4F3D732C0F6FF7A
:100CC00033C0F7FF0800F550B3EC0DF0D8A03ED0CC
:100CD000000E00016B6F000E6A6F6AC024F06BC0DB
:100CE00025F0000E276E0A0E266E80EC0DF024C053
:100CF0006AF025C06BF0D00E0001606FFF0E00019E
:100D0000616F32C0F6FF33C0F7FF0800F5500001F5
:100D1000626F636B00016051000162270001615145
:100D2000000163230001625100016A270001635141
:100D300000016B23324A332A32C0F6FF33C0F7FF7B
:100D40000800F550B3EC0DF0D8B0C7D732C0F6FFAD
:100D500033C0F7FF324A332A0800F5CF6CF00001A8
:100D60006C51000AD8B4FBD0640AD8B403D00D0A81
:100D7000D8A4E8D064C0D9FF65C0DAFFDECF67F041
:100D8000DDCF68F0020E00016427000E652300012C
:100D900068AF08D0030E000169130001676D681F7A
:100DA000D8B0682B010E00016C6F050E00016C19A4
:100DB000D8B416D000016C51020D010EF324F66E6A
:100DC000030EF420F76E0900F5500001675D09007D
:100DD000F55000016859D8A003D000016C2BE5D76D
:100DE00000016A5100016B11D8B40BD069C060F0EA
:100DF000030E00016017D8B404D000016A07D8A020
:100E00006B07800E00016CBF7F0E0001606F000158
:100E10006A5100016C5D00016B51800A000160594C
:100E2000D8B00BD000016C5100016A5F000E0001C8
:100E30006CBFFF0E00016B5B05D0000E00016B6FF5
:100E4000000E6A6F000169A522D069C060F0030E30
:100E500000016017D8B408D030C0D9FF31C0DAFF24
:100E60002D0EDF6E304A312A00016A5100016B11EC
:100E7000D8B434D030C0D9FF31C0DAFF300EDF6EC5
:100E8000304A312A00016A07D8A06B07EDD700016C
:100E90006A5100016B11D8B412D030C0D9FF31C0F3
:100EA000DAFF200EDF6E304A312A00016A07D8A02F
:100EB0006B0700016A5100016B11D8A4EED769C01D
:100EC00060F0030E00016017D8B408D030C0D9FF1D
:100ED00031C0DAFF2D0EDF6E304A312A6CC066F069
:100EE0002BD000016651020D010EF324F66E030EA5
:100EF000F420F76E0900F5CF26F00A00F5CF27F0B1
:100F000067C024F068C025F01BEC0CF024C02BF067
:100F100025C02CF0000E2E6E0A0E2D6E92EC0CF0F9
:100F20002B50300F00016C6F30C0D9FF31C0DAFF99
:100F30006CC0DFFF304A312A0001660700016629D4
:100F4000D8A4CFD732C0F6FF33C0F7FF324A332AD6
:100F50000800F5CF6CF000016C51D8A48BD630C0DE
:100F6000D9FF31C0DAFF000EDF6E1200E5C0A0F03D
:100F7000E6C0A1F0E7C0A2F0E8C0A3F0000E0001B7
:100F80009F6F000E9E6F000E00019F6F010E9E6FFF
:100F9000CCD07BEC0BF024C0A0F025C0A1F042EC3B
:100FA0000BF024C0A2F025C0A3F0000E696E000E65
:100FB000686E000E676E000E666E000E286E010EE3
:100FC00055EC0DF0210EE82EFED700F0000E286E35
:100FD000020E55EC0DF0060E0001746F300EE82E77
:100FE000FED7742FFCD700D0010E3DEC0DF0110E92
:100FF0002A6E030E2B6EECEC0BF0020E3DEC0DF0A6
:10100000760E306E000E316E570E326E030E336E5A
:10101000A0C034F0A1C035F0A2C036F0A3C037F0B4
:1010200033EC06F0760E2A6E000E2B6EECEC0BF015
:101030006DC066F06EC067F06FC068F070C069F098
:101040006BEC0CF0030E0001746F980EE82EFED7C7
:10105000742FFCD76DC062F06EC063F06FC064F097
:1010600070C065F071EC0AF00D0EF66E030EF76EAF
:101070000001A0510900F55C0001A1510900F558DB
:10108000D8B050D00D0EF66E030EF76E0001A251CF
:101090000900F55C0001A3510900F558D8B042D011
:1010A0000F0EF66E030EF76E20EEA2F0DECF74F098
:1010B000DDCF75F00001741F751F744B752B000197
:1010C000A051000174270001A151000175230900FE
:1010D000F5500001745D0900F55000017559D8A064
:1010E0001FD00F0EF66E030EF76EA0C074F0A1C0F5
:1010F00075F00001741F751F744B752B0001A25110
:10110000000174270001A351000175230900F55067
:101110000001745D0900F55000017559D8B002D086
:10112000020E120000019E4B9F2B000171510A0D0F
:1011300000019E51F35C00019F51F458D8B029D7AB
:101140006DC066F06EC067F06FC068F070C069F087
:101150006BEC0CF0030ED0EC0CF06DC062F06EC0C6
:1011600063F06FC064F070C065F071EC0AF0FF0EC0
:10117000120032C0D9FF33C0DAFFDF50346E345072
:10118000246E256A20EE07F03250D9263350DA2239
:10119000DECF26F0DDCF27F080EC0DF024C02AF062
:1011A00025C02BF0000E2D6E640E2C6E00EC0BF0A3
:1011B0002AC060F02BC061F020EE01F03250D92639
:1011C0003350DA22DF50D8B42ED020EE06F0325061
:1011D000D9263350DA22DF50346E010E356E342AB0
:1011E00002D0D8903536342EFCD735508A108A6E0E
:1011F00020EE07F03250D9263350DA22DECF34F019
:10120000DDCF35F060C036F061C037F0361E371ED6
:10121000364A372A345036240001606F3550372063
:101220000001616F14D020EE06F03250D926335001
:10123000DA22DF50346E010E356E342A02D0D89097
:101240003536342EFCD73550FF0A8A148A6E20EECC
:1012500002F03250D9263350DA22DECF34F0DDCF1F
:1012600035F034C0D9FF35C0DAFF00016045E846EB
:10127000FC0BDF6E20EE04F03250D9263350DA2218
:10128000DECF34F0DDCF35F034C0D9FF35C0DAFF22
:1012900060C036F061C037F0060E386E3734373232
:1012A0003632382EFBD73650DF6E1200276E2750AD
:1012B000246E256A070ED89024362536E82EFBD7F3
:1012C000070E266E253425322432262EFBD72446DF
:1012D0008B502418FD0B24188B6E2750246E256A22
:1012E000060ED89024362536E82EFBD7070E266E3C
:1012F000253425322432262EFBD7244624468B5013
:101300002418FB0B24188B6E2750246E256A050EBB
:10131000D89024362536E82EFBD7070E266E2534C6
:1013200025322432262EFBD78C502418FE0B24188D
:101330008C6E2750246E256A243A253AF00E251625
:1013400024500F0B2512F00E2416070E266E25349E
:1013500025322432262EFBD724468C502418FD0B30
:1013600024188C6ED0EC0DF0030EE82EFED700F0A2
:101370001200929C94909492949495909592270E3A
:101380002A6EF50EE82EFED72A2EFCD700F0030EAB
:1013900056EC09F00D0E2A6EFC0EE82EFED72A2E12
:1013A000FCD7030E56EC09F0850EE82EFED700F0B0
:1013B000030E56EC09F0210EE82EFED700F0020EC7
:1013C00056EC09F0210EE82EFED700F0000E286E34
:1013D000280E55EC0DF0210EE82EFED700F0000E81
:1013E000286E080E55EC0DF0210EE82EFED700F009
:1013F000000E286E010E55EC0DF00D0E2A6EFC0E3F
:10140000E82EFED72A2EFCD7000E286E060E55ECCD
:101410000DF0210EE82EFED700F0000E286E0C0E07
:1014200055EC0DF0210EE82EFED700F01200000E54
:101430002C6E000E2E6E000E2D6E000E2F6E20EE06
:1014400004F02450D9262550DA22DF50266E20EEF3
:1014500003F02450D9262550DA22DF50276E27507A
:10146000296E286A265028242D6E000E29202E6E03
:1014700020EE02F02450D9262550DA22DF502D1814
:101480002C6E050E2F6E090E2F6401D028D02F5020
:10149000266E276A010E2626000E272226502424B7
:1014A000D96E27502520DA6EDF50286E2F50010D9F
:1014B000F3502424D96EF4502520DA6EDF50296EC3
:1014C00029502B6E2A6A28502A242D6E000E2B20BC
:1014D0002E6E2C502D182C6E020E2F26D4D7010EF6
:1014E000120028D062C0D9FF63C0DAFFDF50D8B441
:1014F00005D062C0D9FF63C0DAFFDF0664C0D9FF40
:1015000065C0DAFFDF50D8B405D064C0D9FF65C02C
:10151000DAFFDF0662C032F063C033F0B9EC08F0E6
:1015200064C032F065C033F0B9EC08F0210EE82E4B
:10153000FED700F062C0D9FF63C0DAFFDF50D8A445
:10154000D1D764C0D9FF65C0DAFFDF50D8A4CAD7AD
:10155000000120EE01F06251D9266351DA22010E1A
:10156000DF6E000120EE01F06451D9266551DA22C8
:10157000010EDF6E1200E9CF07F0EACF08F0E1CFED
:1015800009F0E2CF0AF0D9CF0BF0DACF0CF0F3CFAD
:101590000DF0F4CF0EF0F6CF0FF0F7CF10F0F8CF3C
:1015A00011F0F5CF12F0F2A20DD03B28D8A403D051
:1015B000010E3B6E03D03B50D8A43B68020E08ECF2
:1015C0000DF0F29212C0F5FF11C0F8FF10C0F7FF46
:1015D0000FC0F6FF0EC0F4FF0DC0F3FF0CC0DAFF22
:1015E0000BC0D9FF0AC0E2FF09C0E1FF08C0EAFF53
:1015F00007C0E9FF06C0FBFF05C0FAFF3C921100DF
:10160000000E2F6E2DAE06D02C6C2D1ED8B02D2ABC
:10161000010E2F6E2BAE06D02A6C2B1ED8B02B2AB3
:10162000010E2F1A000E316E000E306E2C502D1050
:10163000D8B41CD0010E2E6E04D0D8902C362D3686
:101640002E2A2DAEFAD7D890303631362C502A5C5F
:101650002D502B58D8A005D02C502A5E2D502B5A37
:101660003080D8902D322C322E2EEDD72F50D8B47A
:1016700004D0306C311ED8B0312A30C02AF031C0CD
:101680002BF01200000E2A6E000E296E000E2B6E3B
:10169000000E2B6E030E2B6401D01ED06950266EF7
:1016A000276A070ED89026362736E82EFBD768CF54
:1016B00028F0D890283228502612000E27122650E3
:1016C000292627502A22820E266EDE0EE82EFED70D
:1016D000262EFCD72B2ADED729C026F02AC027F0D9
:1016E000D89027322632D8902732263226C024F0CE
:1016F00027C025F01200000E2A6E000E296E000E83
:101700002B6E000E2B6E030E2B6401D01ED0675083
:10171000266E276A070ED89026362736E82EFBD786
:1017200066CF28F0D890283228502612000E2712B3
:101730002650292627502A22820E266EDE0EE82EFB
:10174000FED7262EFCD72B2ADED729C026F02AC0AA
:1017500027F0D89027322632D8902732263226C05A
:1017600024F027C025F0120028D062C0D9FF63C042
:10177000DAFF640EDF6005D062C0D9FF63C0DAFF14
:10178000DF2A64C0D9FF65C0DAFF640EDF6005D0D0
:1017900064C0D9FF65C0DAFFDF2A62C032F063C0DF
:1017A00033F0B9EC08F064C032F065C033F0B9EC46
:1017B00008F0210EE82EFED700F062C0D9FF63C00A
:1017C000DAFF630EDF64D1D764C0D9FF65C0DAFFEA
:1017D000630EDF64CAD712001AD0010E286E2AC029
:1017E000F6FF2BC0F7FFF86A020EF76403D008007B
:1017F000F55005D0F6CFE1FFF7CFE2FFE75055EC0B
:101800000DF02A4A2B2A210EE82EFED700F02AC01E
:10181000F6FF2BC0F7FFF86A020EF76403D008004A
:10182000F55005D0F6CFE1FFF7CFE2FFE750000912
:10183000D8B41200D2D7000E296E000E286E2650A2
:101840002710D8B41CD0010E2A6E04D0D8902636AA
:1018500027362A2A27AEFAD7D89028362936265096
:10186000245C27502558D8A005D02650245E275048
:10187000255A2880D890273226322A2EEDD728C024
:1018800024F029C025F0120066C062F067C063F042
:1018900068C064F069C065F071EC0AF0000120EEE8
:1018A00001F06651D9266751DA22010EDF6E000180
:1018B00020EE01F06851D9266951DA22000EDF6E60
:1018C00066C062F067C063F068C064F069C065F02C
:1018D000B4EC0BF0120066C062F067C063F068C041
:1018E00064F069C065F071EC0AF0000120EE01F0CF
:1018F0006651D9266751DA22000EDF6E000120EE14
:1019000001F06851D9266951DA22010EDF6E66C0F6
:1019100062F067C063F068C064F069C065F0B4EC61
:101920000BF012002D502E10D8B418D0010E2F6ECF
:1019300004D0D8902D362E362F2A2EAEFAD72D5021
:101940002B5C2E502C58D8A004D02D502B5E2E503E
:101950002C5AD8902E322D322F2EF1D72BC02BF0AF
:101960002CC02CF01200000120EE01F06651D926A7
:101970006751DA22000EDF6E000120EE01F068519F
:10198000D9266951DA22000EDF6E66C062F067C0A8
:1019900063F068C064F069C065F0B4EC0BF012004D
:1019A000256E000E276E000E266E000E276E010EAD
:1019B000266E09D0820E246EDE0EE82EFED7242E6F
:1019C000FCD7264A272A2550140D2650F35C2750B1
:1019D000F458D8A01200EED7256E000E276E000E28
:1019E000266E000E276E010E266E09D0820E246E22
:1019F000DE0EE82EFED7242EFCD7264A272A2550B5
:101A0000020D2650F35C2750F458D8A01200EED7F0
:101A1000026E000E046E000E036E000E046E010EC8
:101A2000036E09D0820E016EDE0EE82EFED7012E67
:101A3000FCD7034A042A0250020D0350F35C045001
:101A4000F458D8A01200EED7000E7F6E800E7E6E86
:101A50006F0E6F6E000E6E6EC70E7B6E000E7A6E8E
:101A6000000E796E000E786E000E776E000E766EA8
:101A7000939093929394939612002A6E2A04D8A47A
:101A800006D0000E286E800E55EC0DF009D0020E27
:101A90002A18D8A405D0000E286EC00E55EC0DF003
:101AA000210EE82EFED700F01200296E28B002D0D9
:101AB000899C01D0898C29380F0B0F0B56EC09F04B
:101AC000060EE82EFED700D029500F0B56EC09F079
:101AD000210EE82EFED700F01200256E2550D8A466
:101AE00006D024B002D08D9001D08D801200250444
:101AF000D8A4120024B002D08D9201D08D821200A1
:101B000024502602F3CF28F0F4CF29F024502702E6
:101B1000F350292625502602F350292628C024F008
:101B200029C025F012008994899692849286B894EF
:101B3000B896B89CB89E060E636E060E626E9690BE
:101B40009692590EB76E120000EEE1F01D0EEE6A8D
:101B5000E806FDE13B6A3A6A3C903C92000EF86E62
:101B60000001C4EF01F0266E000E256E3A0E2660CD
:101B700005D02F0E266402D0010E256E25C024F05C
:101B8000243012009450C009946ECD0EAF6E000E3A
:101B9000B06EAA86AC84AB88AB8EAC98AB9C1200BE
:0E1BA0008B80030EE82EFED700F08B90120013
:020000040020DA
:08000000FFFFFFFFFFFFFFFF00
:020000040030CA
:0E000000FFC80F3E3C9D85FF0FC00FE00F4074
:00000001FF
