:0400000057EF00F0C6
:100008005082FACF01F0FBCF02F0E9CF03F0EACF3C
:1000180004F0E1CF05F0E2CF06F0D9CF07F0DACF50
:1000280008F0F3CF09F0F4CF0AF0F6CF0BF0F7CFD2
:100038000CF0F8CF0DF0F5CF0EF09EAA16D04F5069
:10004800010DEC0EF324D96E010EF420DA6EAECF5A
:10005800DFFF010E0101EB6F0F0E4F18D8A403D07C
:10006800000E4F6E01D04F2A9E9A0EC0F5FF0DC0AC
:10007800F8FF0CC0F7FF0BC0F6FF0AC0F4FF09C079
:10008800F3FF08C0DAFF07C0D9FF06C0E2FF05C0CA
:10009800E1FF04C0EAFF03C0E9FF02C0FBFF01C0A3
:1000A800FAFF50921100F5EF09F0000E386E000EBD
:1000B800396E000E3A6E000E3C6EC80E3B6E050E91
:1000C8003E6EDC0E3D6E010E406EF40E3F6E2FC08C
:1000D80026F030C027F031C028F032C029F0A8EC53
:1000E80007F06DEC08F00FC045F010C046F032EC98
:1000F80008F00FC047F010C048F02FC02BF030C0F8
:100108002CF031C02DF032C02EF005EC09F0335040
:1001180046EC09F03350010DF3503426F4503522E3
:100128002FC026F030C027F031C028F032C029F0A7
:10013800A8EC07F06DEC08F00FC041F010C042F0D9
:1001480032EC08F00FC043F010C044F02FC02BF081
:1001580030C02CF031C02DF032C02EF0E0EC08F0A9
:100168003350020DF35046EC09F03350020DF350B2
:10017800345EF450355A2FC026F030C027F031C015
:1001880028F032C029F0A8EC07F06DEC08F00FC099
:1001980049F010C04AF032EC08F00FC04BF010C024
:1001A8004CF041504324366E42504420376E3B5049
:1001B800365C3C503758D8B00AD0000E426E000E5C
:1001C800416E000E446E000E436E010E386E4550AF
:1001D8004724366E46504820376E3B50365C3C50BC
:1001E8003758D8B00AD0000E466E000E456E000E85
:1001F800486E000E476E010E396E49504B24366E1C
:100208004A504C20376E3B50365C3C503758D8B07B
:100218000AD0000E4A6E000E496E000E4C6E000E9B
:100228004B6E010E3A6E395038C036F0376A3626B2
:10023800000E37223A503626000E3722030E3618A3
:100248003710D8A421D02FC02BF030C02CF031C0EB
:100258002DF032C02EF005EC09F03350050DF350A7
:1002680046EC09F03350050DF3503426F45035228E
:100278002FC026F030C027F031C028F032C029F056
:10028800A8EC07F0030E120041503D5C42503E5866
:10029800D8B04DD043503D5C44503E58D8B047D0BC
:1002A80020EE43F0DECF36F0DDCF37F0361E371EB6
:1002B800364A372A41503626425037223F50365C5C
:1002C80040503758D8A012D041C036F042C037F05D
:1002D800361E371E364A372A4350362644503722B0
:1002E8003F50365C40503758D8B021D02FC02BF043
:1002F80030C02CF031C02DF032C02EF005EC09F0E2
:100308003350020DF35046EC09F03350020DF35010
:100318003426F45035222FC026F030C027F031C0E3
:1003280028F032C029F0A8EC07F0020E1200455060
:100338003D5C46503E58D8B04AD047503D5C485086
:100348003E58D8B044D020EE47F0DECF36F0DDCFAF
:1003580037F0361E371E364A372A4550362646505D
:1003680037223F50365C40503758D8A012D045C08D
:1003780036F046C037F0361E371E364A372A475001
:100388003626485037223F50365C40503758D8B050
:100398001ED02FC02BF030C02CF031C02DF032C051
:1003A8002EF005EC09F0335046EC09F03350010DFE
:1003B800F3503426F45035222FC026F030C027F0F1
:1003C80031C028F032C029F0A8EC07F0AED7495068
:1003D8003D5C4A503E58D8B037D04B503D5C4C50ED
:1003E8003E58D8B031D020EE4BF0DECF36F0DDCF1E
:1003F80037F0361E371E364A372A495036264A50B5
:1004080037223F50365C40503758D8A012D049C0E8
:1004180036F04AC037F0361E371E364A372A4B5058
:1004280036264C5037223F50365C40503758D8B0AB
:100438000BD02FC026F030C027F031C028F032C0D2
:1004480029F0A8EC07F071D74150435C425044585A
:10045800D8B021D02FC02BF030C02CF031C02DF0F7
:1004680032C02EF005EC09F03350030DF35046EC82
:1004780009F03350030DF3503426F45035222FC0C1
:1004880026F030C027F031C028F032C029F0A8EC9F
:1004980007F0000E12004B50495C4C504A58D8B037
:1004A8001ED02FC02BF030C02CF031C02DF032C040
:1004B8002EF0E0EC08F0335046EC09F03350010D13
:1004C800F350345EF450355A2FC026F030C027F070
:1004D80031C028F032C029F0A8EC07F0DAD7435031
:1004E800415C44504258D8B03BD04550475C4650D8
:1004F8004858D8B035D02FC02BF030C02CF031C0C0
:100508002DF032C02EF005EC09F03350030DF3CF77
:1005180015F0F4CF16F0000E186E020E176EF0EC00
:1005280007F0155046EC09F03350030DF3CF15F0E2
:10053800F4CF16F0000E186E020E176EF0EC07F0EE
:1005480015503426165035222FC026F030C027F01B
:1005580031C028F032C029F0A8EC07F0010E1200D3
:1005680049504B5C4A504C58D8B034D04750455C41
:1005780048504658D8B02ED02FC02BF030C02CF0A1
:1005880031C02DF032C02EF005EC09F033C015F063
:10059800166A000E186E020E176EF0EC07F0155072
:1005A80046EC09F033C015F0166A000E186E020EFC
:1005B800176EF0EC07F015503426165035222FC070
:1005C80026F030C027F031C028F032C029F0A8EC5E
:1005D80007F0C4D7000E1200000E0101D76F000EFD
:1005E8000101D46F000E0101D66F000E0101D36F17
:1005F800000ED26F000E0101D86F060E0101D56FF3
:10060800F28EF28CF28CD08E9F8A9D8A9E9A000E72
:100618000101D96F010E0101DA6F790E0101DB6F5B
:100628000F0E0101DC6F780E0101DD6F0F0E010165
:10063800DE6F000E0101DF6F000E0101E16FC70ED2
:10064800E06F000E0101E26F010E0101E36F770E0A
:100658000101E46F0F0E0101E56F760E0101E66FEF
:100668000F0E0101E76F020E0101E86F000E010194
:10067800EA6FC70EE96F720ED36ED3B4AFD1FDD750
:100688007DEC09F0E5EC09F0D4EC09F0F0EC06F0AB
:10069800D4EC09F0D90E266E010E276EE20E286EF4
:1006A800010E296EA8EC08F0010E2AEC09F0D90E0B
:1006B800266E010E276EE20E286E010E296EA8EC3A
:1006C80007F0D90E2B6E010E2C6EE20E2D6E010E68
:1006D8002E6E62EC09F0010E2AEC09F0D90E266E96
:1006E800010E276EE20E286E010E296EA8EC07F0A7
:1006F800010E0F6E000EAEEC09F0010E0F6E010E2A
:10070800AEEC09F0F7D00101D6510101D8A416D0FA
:10071800D90E2F6E010E306EE20E316E010E326E62
:10072800D5C133F00101D851010D640EF324346EA4
:10073800010EF420356E59EC00F036D00101D605D3
:10074800D8A40BD0D90E2F6E010E306EE20E316E8A
:10075800010E326E01EC05F027D0020E0101D61908
:10076800D8A404D0020E0101D46F20D0030E0101D9
:10077800D619D8A41BD0D90E266E010E276EE20E0C
:10078800286E010E296EA8EC08F00101D55146EC3F
:1007980009F0D90E266E010E276EE20E286E010EA4
:1007A800296EA8EC07F0000E0101D66F0101D8519F
:1007B800010D000EF324D96E010EF420DA6E010E3D
:1007C800DF6E0101D82B0AD10101EB51D8B485D0D5
:1007D800D90E266E010E276EE20E286E010E296EC6
:1007E800A8EC07F0030E0101FB19D8A402D0010EF2
:1007F80001D0000E4D6E020E0101EC19D8A402D0F2
:10080800010E01D0000E4D14E8A0E8D0EC0E0F6EDA
:10081800010E106E4EEC07F00009D8B43CD0000E63
:100828000101D76F090E0101D76501D01CD0010164
:10083800D7514D6E4E6A010E4D26000E4E22EC0E1B
:100848004D24D96E010E4E20DA6E0101D751010DEB
:10085800C80EF324E16E010EF420E26EDFCFE7FF4D
:100868000101D72BDFD7000E0101D76F0F0E010151
:10087800D76501D00ED00101D751010DEC0EF3243C
:10088800D96E010EF420DA6E000EDF6E0101D72B4F
:10089800EDD7030E30D0D90E2B6E010E2C6EE20E62
:1008A8002D6E010E2E6E62EC09F0050E46EC09F075
:1008B800D90E266E010E276EE20E286E010E296EE5
:1008C800A8EC07F0D90E266E010E276EE20E286EF0
:1008D800010E296EA8EC08F081D0D90E266E010E03
:1008E800276EE20E286E010E296EA8EC08F0050EA0
:1008F80046EC09F0010E0101D46F70D00101D85106
:100908000101D8B46BD00101D851010D000EF324B8
:10091800D96E010EF420DA6EDF50D8A417D0D90EA4
:100928002B6E010E2C6EE20E2D6E010E2E6E62ECF9
:1009380009F00101D851010D640EF324D96E010E9E
:10094800F420DA6EDF5046EC09F045D00101D851A9
:10095800010D000EF324D96E010EF420DA6EDE04C8
:10096800D8A439D00101D851010D640EF324D96EF1
:10097800010EF420DA6EDF50D8B417D0D90E2B6EE2
:10098800010E2C6EE20E2D6E010E2E6EE0EC08F0BC
:100998000101D851010D640EF324D96E010EF42023
:1009A800DA6EDF5046EC09F016D0D90E2B6E010E28
:1009B8002C6EE20E2D6E010E2E6E05EC09F0010173
:1009C800D851010D640EF324D96E010EF420DA6EAD
:1009D800DF5046EC09F00101D80790D70101D45146
:1009E800000AD8B44DD6010AD8B48DD6030AD8B4B3
:1009F800EBD6010AD8B482D7F1D7000E366EC80EEE
:100A0800356E050E386EDC0E376E010E3A6EF40E3A
:100A1800396E6DEC08F00FC03BF010C03CF032ECC2
:100A280008F00FC03DF010C03EF03B503D24336E3F
:100A38003C503E20346E3350355C34503658D8B074
:100A480085D03B50375C3C503858D8B02ED03D50FC
:100A5800375C3E503858D8B028D020EE3DF0DECF75
:100A680033F0DDCF34F0331E341E334A342A3B5082
:100A780033263C5034223950335C3A503458D8A08D
:100A880012D03BC033F03CC034F0331E341E334A1E
:100A9800342A3D5033263E5034223950335C3A5084
:100AA8003458D8B002D0020E12003B503D5C3C5086
:100AB8003E58D8A023D02FC026F030C027F031C030
:100AC80028F032C029F0A8EC07F02FC02BF030C076
:100AD8002CF031C02DF032C02EF005EC09F0030ED9
:100AE80046EC09F02FC026F030C027F031C028F0BE
:100AF80032C029F0A8EC07F0010E12003B503D5C13
:100B08003C503E58D8B069D02FC026F030C027F0EE
:100B180031C028F032C029F0A8EC07F02FC02BF024
:100B280030C02CF031C02DF032C02EF0E0EC08F0CF
:100B3800030E46EC09F02FC026F030C027F031C074
:100B480028F032C029F0A8EC07F0D6D72FC026F03D
:100B580030C027F031C028F032C029F0A8EC07F0E7
:100B68003B503D5C3C503E58D8A019D02FC02BF0CC
:100B780030C02CF031C02DF032C02EF005EC09F059
:100B8800050E46EC09F02FC026F030C027F031C022
:100B980028F032C029F0A8EC07F0000E12003B50F4
:100BA8003D5C3C503E58D8B018D02FC02BF030C018
:100BB8002CF031C02DF032C02EF0E0EC08F0050E1C
:100BC80046EC09F02FC026F030C027F031C028F0DD
:100BD80032C029F0A8EC07F0E0D7000E12001DC0C3
:100BE800D9FF1EC0DAFFDF501F6E1F500F6E106A4C
:100BF80020EE07F01D50D9261E50DA22DECF11F064
:100C0800DDCF12F0C1EC09F00FC015F010C016F0DE
:100C1800000E186E640E176EF0EC07F015C024F085
:100C280016C025F020EE01F01D50D9261E50DA22FC
:100C3800DF50D8B42CD020EE06F01D50D9261E5017
:100C4800DA22DF501F6E010E206E1F2A02D0D890C4
:100C580020361F2EFCD720508A108A6E20EE07F00F
:100C68001D50D9261E50DA22DECF1FF0DDCF20F02E
:100C780024C021F025C022F0211E221E214A222A4A
:100C88001F502124246E20502220256E14D020EEDF
:100C980006F01D50D9261E50DA22DF501F6E010EB5
:100CA800206E1F2A02D0D89020361F2EFCD7205045
:100CB800FF0A8A148A6E20EE02F01D50D9261E50B3
:100CC800DA22DECF1FF0DDCF20F01FC0D9FF20C011
:100CD800DAFF2444E846FC0BDF6E20EE04F01D50DA
:100CE800D9261E50DA22DECF1FF0DDCF20F01FC03C
:100CF800D9FF20C0DAFF24C021F025C022F0060E5B
:100D0800236E223422322132232EFBD72150DF6E6C
:100D18001200126E12500F6E106A070ED8900F361E
:100D28001036E82EFBD7070E116E103410320F3232
:100D3800112EFBD70F468B500F18FD0B0F188B6E1B
:100D480012500F6E106A060ED8900F361036E82E25
:100D5800FBD7070E116E103410320F32112EFBD74D
:100D68000F460F468B500F18FB0B0F188B6E125047
:100D78000F6E106A050ED8900F361036E82EFBD786
:100D8800070E116E103410320F32112EFBD78C5013
:100D98000F18FE0B0F188C6E12500F6E106A0F3A58
:100DA800103AF00E10160F500F0B1012F00E0F160F
:100DB800070E116E103410320F32112EFBD70F466A
:100DC8008C500F18FD0B0F188C6E03EC0AF0030EF5
:100DD800E82EFED700F01200929C9490949294947E
:100DE80095909592270E156EF50EE82EFED7152EC6
:100DF800FCD700F0030E8DEC06F00D0E156EFC0E00
:100E0800E82EFED7152EFCD7030E8DEC06F0850EC6
:100E1800E82EFED700F0030E8DEC06F0210EE82E2A
:100E2800FED700F0020E8DEC06F0210EE82EFED75C
:100E380000F0000E136E280E96EC09F0210EE82E35
:100E4800FED700F0000E136E080E96EC09F0210E86
:100E5800E82EFED700F0000E136E010E96EC09F096
:100E68000D0E156EFC0EE82EFED7152EFCD7000EC3
:100E7800136E060E96EC09F0210EE82EFED700F050
:100E8800000E136E0C0E96EC09F0210EE82EFED71C
:100E980000F01200000E176E000E196E000E186E8C
:100EA800000E1A6E20EE04F00F50D9261050DA22E8
:100EB800DF50116E20EE03F00F50D9261050DA22C1
:100EC800DF50126E1250146E136A11501324186EEC
:100ED800000E1420196E20EE02F00F50D926105083
:100EE800DA22DF501818176E050E1A6E090E1A64EA
:100EF80001D028D01A50116E126A010E1126000E68
:100F0800122211500F24D96E12501020DA6EDF50C1
:100F1800136E1A50010DF3500F24D96EF45010209F
:100F2800DA6EDF50146E1450166E156A13501524BD
:100F3800186E000E1620196E17501818176E020E2C
:100F48001A26D4D7010E120028D026C0D9FF27C0F0
:100F5800DAFFDF50D8B405D026C0D9FF27C0DAFFA2
:100F6800DF0628C0D9FF29C0DAFFDF50D8B405D082
:100F780028C0D9FF29C0DAFFDF0626C01DF027C028
:100F88001EF0F3EC05F028C01DF029C01EF0F3ECAC
:100F980005F0210EE82EFED700F026C0D9FF27C0A5
:100FA800DAFFDF50D8A4D1D728C0D9FF29C0DAFF8B
:100FB800DF50D8A4CAD720EE01F02650D9262750F2
:100FC800DA22010EDF6E20EE01F02850D9262950D2
:100FD800DA22010EDF6E1200000E1A6E18AE06D06D
:100FE800176C181ED8B0182A010E1A6E16AE06D045
:100FF800156C161ED8B0162A010E1A1A000E1C6E91
:10100800000E1B6E17501810D8B41CD0010E196EA4
:1010180004D0D89017361836192A18AEFAD7D890AF
:101028001B361C361750155C18501658D8A005D01A
:101038001750155E1850165A1B80D8901832173260
:10104800192EEDD71A50D8B404D01B6C1C1ED8B07A
:101058001C2A1BC015F01CC016F01200000E156EDD
:10106800000E146E000E166E000E166E030E166439
:1010780001D020D06950116E126A060ED890113630
:101088001236E82EFBD768CF13F0D8901332D890D9
:10109800133213501112000E12121150142612504E
:1010A8001522820E116EDE0EE82EFED7112EFCD709
:1010B800162ADCD714C011F015C012F0D8901232DD
:1010C8001132D8901232113211C00FF012C010F044
:1010D8001200000E156E000E146E000E166E000E35
:1010E800166E030E166401D020D06750116E126A76
:1010F800060ED89011361236E82EFBD766CF13F0BD
:10110800D8901332D890133213501112000E1212C5
:101118001150142612501522820E116EDE0EE82E82
:10112800FED7112EFCD7162ADCD714C011F015C033
:1011380012F0D89012321132D8901232113211C0F6
:101148000FF012C010F0120028D026C0D9FF27C017
:10115800DAFF640EDF6005D026C0D9FF27C0DAFFAA
:10116800DF2A28C0D9FF29C0DAFF640EDF6005D066
:1011780028C0D9FF29C0DAFFDF2A26C01DF027C002
:101188001EF0F3EC05F028C01DF029C01EF0F3ECAA
:1011980005F0210EE82EFED700F026C0D9FF27C0A3
:1011A800DAFF630EDF64D1D728C0D9FF29C0DAFF80
:1011B800630EDF64CAD712002BC026F02CC027F0BC
:1011C8002DC028F02EC029F0A8EC07F020EE01F081
:1011D8002B50D9262C50DA22010EDF6E20EE01F0BA
:1011E8002D50D9262E50DA22000EDF6E2BC026F0A5
:1011F8002CC027F02DC028F02EC029F0A8EC08F04C
:1012080012002BC026F02CC027F02DC028F02EC0CD
:1012180029F0A8EC07F020EE01F02B50D9262C502D
:10122800DA22000EDF6E20EE01F02D50D9262E5066
:10123800DA22010EDF6E2BC026F02CC027F02DC05D
:1012480028F02EC029F0A8EC08F01200106E000E4D
:10125800126E000E116E000E126E010E116E09D084
:10126800820E0F6EDE0EE82EFED70F2EFCD7114A27
:10127800122A1050140D1150F35C1250F458D8A0D3
:101288001200EED7106E000E126E000E116E000ED8
:10129800126E010E116E09D0820E0F6EDE0EE82E50
:1012A800FED70F2EFCD7114A122A1050020D1150EA
:1012B800F35C1250F458D8A01200EED720EE01F0DB
:1012C8002B50D9262C50DA22000EDF6E20EE01F0CA
:1012D8002D50D9262E50DA22000EDF6E2BC026F0B4
:1012E8002CC027F02DC028F02EC029F0A8EC08F05B
:1012F8001200000E7F6E800E7E6E6F0E6F6E000EF7
:101308006E6EC70E7B6E000E7A6E000E796E000E42
:10131800786E000E776E000E766E9390939293948B
:1013280093961200146E13B002D0899C01D0898C58
:1013380014380F0B0F0B8DEC06F0060EE82EFED7B7
:1013480000D014500F0B8DEC06F0210EE82EFED7BE
:1013580000F01200106E1050D8A406D00FB002D0C2
:101368008D9001D08D8012001004D8A412000FB007
:1013780002D08D9201D08D8212000F501102F3CF4E
:1013880013F0F4CF14F00F501202F350142610503B
:101398001102F350142613C00FF014C010F01200FD
:1013A8008994899692849286B894B896B89CB89E87
:1013B800060E636E060E626E96909692590EB76E82
:1013C8001200010E0F6E94500FC094FFCD0EAF6E39
:1013D800000EB06EAA86AC84AB88AB8EAC98AB9C82
:1013E800120001EEEBF0110EEE6AE806FDE14F6A1D
:1013F80050905092000EF86E0001F0EF02F08B80D2
:0C140800030EE82EFED700F08B901200BF
:020000040020DA
:08000000FFFFFFFFFFFFFFFF00
:020000040030CA
:0E000000FFC80F3E3C9D85FF0FC00FE00F4074
:00000001FF
