:0400000054EF00F0C9
:100008004C82FACF01F0FBCF02F0E9CF03F0EACF40
:1000180004F0E1CF05F0E2CF06F0D9CF07F0DACF50
:1000280008F0F3CF09F0F4CF0AF0F6CF0BF0F7CFD2
:100038000CF0F8CF0DF0F5CF0EF09EAA13D04B5070
:10004800010D3B0EF324D96E000EF420DA6EAECF0C
:10005800DFFF0F0E4B18D8A403D0000E4B6E01D053
:100068004B2A9E9A0EC0F5FF0DC0F8FF0CC0F7FF93
:100078000BC0F6FF0AC0F4FF09C0F3FF08C0DAFF9F
:1000880007C0D9FF06C0E2FF05C0E1FF04C0EAFFD0
:1000980003C0E9FF02C0FBFF01C0FAFF4C92110048
:1000A80068EF04F0000E0001626F000E0001646F3B
:1000B800000E0001656F000E0001616F000E606F99
:1000C800060E0001636FF28ED08EF28CF288F28CED
:1000D8009F8A9D8A000E0001666F010E0001676FFE
:1000E800790E0001686F0F0E0001696F780E00012C
:1000F8006A6F0F0E00016B6F000E00016C6F000E2F
:1001080000016E6FC70E6D6F000E00016F6F010E5C
:100118000001706F770E0001716F0F0E0001726F92
:10012800760E0001736F0F0E0001746F020E00014E
:10013800756F000E0001776FC70E766F720ED36E63
:10014800D3B46AD0FDD708EC04F058EC04F047ECBF
:1001580004F0010E0001646F010E0F6E000E21EC19
:1001680004F0010E0F6E010E21EC04F0660E2B6EEA
:10017800000E2C6E6F0E2D6E000E2E6EEDEC03F041
:10018800010ED1EC03F0660E266E000E276E6F0E80
:10019800286E000E296E45EC02F03ED00001655134
:1001A8000001D8A40BD0660E2F6E000E306E6F0EB5
:1001B800316E000E326EB7EC01F00ED0000165050D
:1001C800D8A40DD0660E2F6E000E306E6F0E316EF5
:1001D800000E326EB7EC01F00001656F1DD0020E03
:1001E80000016519D8A418D0020E14D0030ED1EC62
:1001F80003F0660E266E000E276E6F0E286E000E38
:10020800296ECFEC02F0010ED1EC03F0010E0001D3
:10021800656F010E0001646F00016451000AD8B4D3
:1002280092D7010AD8B4BAD7030AD8B4DFD7010ADB
:10023800F3D71DC0D9FF1EC0DAFFDF501F6E1F5055
:100248000F6E106A20EE07F01D50D9261E50DA22D4
:10025800DECF11F0DDCF12F034EC04F00FC015F052
:1002680010C016F0000E186E640E176E8DEC02F0BA
:1002780015C024F016C025F020EE01F01D50D92637
:100288001E50DA22DF50D8B42CD020EE06F01D50D4
:10029800D9261E50DA22DF501F6E010E206E1F2A4B
:1002A80002D0D89020361F2EFCD720508A108A6E94
:1002B80020EE07F01D50D9261E50DA22DECF1FF09F
:1002C800DDCF20F024C021F025C022F0211E221EFF
:1002D800214A222A1F502124246E20502220256ED4
:1002E80014D020EE06F01D50D9261E50DA22DF5019
:1002F8001F6E010E206E1F2A02D0D89020361F2EA6
:10030800FCD72050FF0A8A148A6E20EE02F01D5096
:10031800D9261E50DA22DECF1FF0DDCF20F01FC015
:10032800D9FF20C0DAFF2444E846FC0BDF6E20EE3C
:1003380004F01D50D9261E50DA22DECF1FF0DDCF83
:1003480020F01FC0D9FF20C0DAFF24C021F025C04B
:1003580022F0060E236E223422322132232EFBD7BE
:100368002150DF6E1200000E366E640E356E2FC0FF
:1003780026F030C027F031C028F032C029F045EC13
:1003880002F0020ED1EC03F039EC03F00FC037F0A5
:1003980010C038F007EC03F00FC039F010C03AF085
:1003A8002FC026F030C027F031C028F032C029F025
:1003B80045EC02F037C033F038C034F0331E341E39
:1003C800334A342A395033263A5034223550335C74
:1003D80036503458D8A014D020EE39F0DECF33F0A0
:1003E800DDCF34F0331E341E334A342A37503326D7
:1003F800385034223550335C36503458D8B002D097
:10040800020E12003950375C3A503858D8B019D01B
:100418002FC02BF030C02CF031C02DF032C02EF0A0
:1004280090EC03F0040EB5EC03F02FC026F030C0BA
:1004380027F031C028F032C029F045EC02F0000E58
:1004480012003750395C38503A58D8B018D02FC0FD
:100458002BF030C02CF031C02DF032C02EF06BECF8
:1004680003F0040EB5EC03F02FC026F030C027F0DF
:1004780031C028F032C029F045EC02F0E0D7000E78
:10048800120028D026C0D9FF27C0DAFFDF50D8B421
:1004980005D026C0D9FF27C0DAFFDF0628C0D9FF5C
:1004A80029C0DAFFDF50D8B405D028C0D9FF29C049
:1004B800DAFFDF0626C01DF027C01EF01DEC01F094
:1004C80028C01DF029C01EF01DEC01F0210EE82EF9
:1004D800FED700F026C0D9FF27C0DAFFDF50D8A426
:1004E800D1D728C0D9FF29C0DAFFDF50D8A4CAD78E
:1004F80020EE01F02650D9262750DA22010EDF6EB1
:1005080020EE01F02850D9262950DA22010EDF6E9C
:100518001200000E1A6E18AE06D0176C181ED8B04E
:10052800182A010E1A6E16AE06D0156C161ED8B013
:10053800162A010E1A1A000E1C6E000E1B6E17509A
:100548001810D8B41CD0010E196E04D0D8901736E4
:100558001836192A18AEFAD7D8901B361C361750F9
:10056800155C18501658D8A005D01750155E1850AD
:10057800165A1B80D89018321732192EEDD71A50F8
:10058800D8B404D01B6C1C1ED8B01C2A1BC015F094
:100598001CC016F0120028D026C0D9FF27C0DAFFE9
:1005A800640EDF6005D026C0D9FF27C0DAFFDF2A36
:1005B80028C0D9FF29C0DAFF640EDF6005D028C043
:1005C800D9FF29C0DAFFDF2A26C01DF027C01EF098
:1005D8001DEC01F028C01DF029C01EF01DEC01F033
:1005E800210EE82EFED700F026C0D9FF27C0DAFF7B
:1005F800630EDF64D1D728C0D9FF29C0DAFF630EA4
:10060800DF64CAD71200000E146E000E136E000EBF
:10061800156E000E156E030E156401D017D06850C4
:1006280069CF11F0126A11C012F0116A1112000E8E
:1006380012121150132612501422820E116EDE0E61
:10064800E82EFED7112EFCD7152AE5D713C011F0D6
:1006580014C012F0D89012321132D89012321132DE
:1006680011C00FF012C010F01200000E146E000E30
:10067800136E000E156E000E156E030E156401D074
:1006880017D0665067CF11F0126A11C012F0116AC4
:100698001112000E12121150132612501422820E3B
:1006A800116EDE0EE82EFED7112EFCD7152AE5D7DF
:1006B80013C011F014C012F0D89012321132D89031
:1006C8001232113211C00FF012C010F012002BC0FC
:1006D80026F02CC027F02DC028F02EC029F045ECBC
:1006E80002F020EE01F02B50D9262C50DA22010E10
:1006F800DF6E20EE01F02D50D9262E50DA22000EA2
:10070800DF6E2BC026F02CC027F02DC028F02EC09D
:1007180029F0CFEC02F012002BC026F02CC027F0F5
:100728002DC028F02EC029F045EC02F020EE01F093
:100738002B50D9262C50DA22000EDF6E20EE01F065
:100748002D50D9262E50DA22010EDF6E2BC026F04E
:100758002CC027F02DC028F02EC029F0CFEC02F0D5
:100768001200106E000E126E000E116E000E126E48
:10077800010E116E09D0820E0F6EDE0EE82EFED726
:100788000F2EFCD7114A122A1050020D1150F35C9B
:100798001250F458D8A01200EED7106E000E126E48
:1007A800000E116E000E126E010E116E09D0820E2F
:1007B8000F6EDE0EE82EFED70F2EFCD7114A122A36
:1007C8001050140D1150F35C1250F458D8A01200B8
:1007D800EED720EE01F02B50D9262C50DA22000E4D
:1007E800DF6E20EE01F02D50D9262E50DA22000EB1
:1007F800DF6E2BC026F02CC027F02DC028F02EC0AD
:1008080029F0CFEC02F01200000E7F6E800E7E6E93
:100818006F0E6F6E000E6E6EC70E7B6E000E7A6ED8
:10082800000E796E000E786E000E776E000E766EF2
:1008380093909392939493961200106E1050D8A4AC
:1008480006D00FB002D08D9001D08D801200100418
:10085800D8A412000FB002D08D9201D08D82120060
:100868000F501102F3CF13F0F4CF14F00F5012020F
:10087800F350142610501102F350142613C00FF031
:1008880014C010F012008994899692849286B894C4
:10089800B896B89CB89E060E636E060E626E969069
:1008A8009692590EB76E1200010E0F6E94500FC03B
:1008B80094FFCD0EAF6E000EB06EAA86AC84AB88E6
:1008C800AB8EAC98AB9C120000EE3BF0110EEE6ABA
:1008D800E806FDE14C904C92000EF86E000156EFD0
:0208E80000F01E
:020000040020DA
:08000000FFFFFFFFFFFFFFFF00
:020000040030CA
:0E000000FFC80F3E3C9D85FF0FC00FE00F4074
:00000001FF
