:0400000054EF00F0C9
:100008004C82FACF01F0FBCF02F0E9CF03F0EACF40
:1000180004F0E1CF05F0E2CF06F0D9CF07F0DACF50
:1000280008F0F3CF09F0F4CF0AF0F6CF0BF0F7CFD2
:100038000CF0F8CF0DF0F5CF0EF09EAA13D04B5070
:10004800010D3B0EF324D96E000EF420DA6EAECF0C
:10005800DFFF0F0E4B18D8A403D0000E4B6E01D053
:100068004B2A9E9A0EC0F5FF0DC0F8FF0CC0F7FF93
:100078000BC0F6FF0AC0F4FF09C0F3FF08C0DAFF9F
:1000880007C0D9FF06C0E2FF05C0E1FF04C0EAFFD0
:1000980003C0E9FF02C0FBFF01C0FAFF4C92110048
:1000A800DCEF06F0010E00016D6FF40E6C6F010EAF
:1000B8000F6E000E95EC06F0010E0F6E010E95EC1A
:1000C80006F02FC026F030C027F031C028F032C02B
:1000D80029F0A7EC04F06CEC05F00FC064F010C038
:1000E80065F031EC05F00FC066F010C067F02FC066
:1000F8002BF030C02CF031C02DF032C02EF004ECC3
:1001080006F0335045EC06F02FC026F030C027F03B
:1001180031C028F032C029F0A7EC04F06CEC05F0EF
:100128000FC060F010C061F031EC05F00FC062F054
:1001380010C063F02FC02BF030C02CF031C02DF070
:1001480032C02EF0DFEC05F03350020DF35045ECD1
:1001580006F02FC026F030C027F031C028F032C09A
:1001680029F0A7EC04F06CEC05F00FC068F010C0A3
:1001780069F031EC05F00FC06AF010C06BF0000EAA
:100188000F6E000E95EC06F0000E0F6E010E95EC4A
:1001980006F060C034F061C035F0341E351E344AB4
:1001A800352A0001625134260001635135220001CD
:1001B8006C51345C00016D513558D8A018D020EE30
:1001C80062F0DECF34F0DDCF35F0341E351E344A10
:1001D800352A0001605134260001615135220001A1
:1001E8006C51345C00016D513558D8B01BD02FC00C
:1001F8002BF030C02CF031C02DF032C02EF004ECC2
:1002080006F03350020DF35045EC06F02FC026F0EF
:1002180030C027F031C028F032C029F0A7EC04F034
:10022800020E120064C034F065C035F0341E351E6D
:10023800344A352A000166513426000167513522B7
:1002480000016C51345C00016D513558D8A018D0AC
:1002580020EE66F0DECF34F0DDCF35F0341E351EEB
:10026800344A352A0001645134260001655135228B
:1002780000016C51345C00016D513558D8B018D06C
:100288002FC02BF030C02CF031C02DF032C02EF032
:1002980004EC06F0335045EC06F02FC026F030C0D1
:1002A80027F031C028F032C029F0A7EC04F0B8D705
:1002B80068C034F069C035F0341E351E344A352A1A
:1002C80000016A51342600016B51352200016C513E
:1002D800345C00016D513558D8A018D020EE6AF072
:1002E800DECF34F0DDCF35F0341E351E344A352AE2
:1002F80000016851342600016951352200016C5112
:10030800345C00016D513558D8B00BD02FC026F0A1
:1003180030C027F031C028F032C029F0A7EC04F033
:100328007FD7000160510001625D00016151000149
:100338006359D8B01BD02FC02BF030C02CF031C07F
:100348002DF032C02EF004EC06F03350030DF350BC
:1003580045EC06F02FC026F030C027F031C028F059
:1003680032C029F0A7EC04F0000E120000016A5117
:100378000001685D00016B5100016959D8B018D0BF
:100388002FC02BF030C02CF031C02DF032C02EF031
:10039800DFEC05F0335045EC06F02FC026F030C0F6
:1003A80027F031C028F032C029F0A7EC04F0DCD7E0
:1003B800000162510001605D000163510001615953
:1003C800D8B02FD0000164510001665D000165516D
:1003D80000016759D8B025D02FC02BF030C02CF0C1
:1003E80031C02DF032C02EF004EC06F03350030D6E
:1003F800F3CF15F0F4CF16F0000E186E020E176E3C
:10040800EFEC04F0155045EC06F02FC026F030C094
:1004180027F031C028F032C029F0A7EC04F0010E13
:1004280012000001685100016A5D00016951000174
:100438006B59D8B02BD0000166510001645D0001F2
:10044800675100016559D8B021D02FC02BF030C0BA
:100458002CF031C02DF032C02EF004EC06F033C081
:1004680015F0166A000E186E020E176EEFEC04F007
:10047800155045EC06F02FC026F030C027F031C0EB
:1004880028F032C029F0A7EC04F0C9D7000E1200FA
:10049800000E366E640E356E6CEC05F00FC037F04A
:1004A80010C038F031EC05F00FC039F010C03AF048
:1004B8002FC026F030C027F031C028F032C029F014
:1004C800A7EC04F037503924336E38503A20346E94
:1004D800E90E335C030E3458D8A086D0C50E375CBD
:1004E800090E3858D8A02ED0C50E395C090E3A58D6
:1004F800D8A028D020EE39F0DECF33F0DDCF34F0AD
:10050800331E341E334A342A3750332638503422A7
:100518003550335C36503458D8A012D037C033F039
:1005280038C034F0331E341E334A342A3950332647
:100538003A5034223550335C36503458D8B002D053
:10054800020E12003750395C38503A58D8A023D0E0
:100558002FC026F030C027F031C028F032C029F073
:10056800A7EC04F02FC02BF030C02CF031C02DF0D8
:1005780032C02EF004EC06F0030E45EC06F02FC056
:1005880026F030C027F031C028F032C029F0A7EC9F
:1005980004F0010E12003750395C38503A58D8B080
:1005A80012002FC026F030C027F031C028F032C02A
:1005B80029F0A7EC04F02FC02BF030C02CF031C08C
:1005C8002DF032C02EF0DFEC05F0030E45EC06F0FE
:1005D8002FC026F030C027F031C028F032C029F0F3
:1005E800A7EC04F0010E12002FC026F030C027F04F
:1005F80031C028F032C029F0A7EC04F03750395C3C
:1006080038503A58D8A019D02FC02BF030C02CF051
:1006180031C02DF032C02EF004EC06F0050E45EC8A
:1006280006F02FC026F030C027F031C028F032C0C5
:1006380029F0A7EC04F0000E12003750395C38504E
:100648003A58D8B012002FC02BF030C02CF031C06F
:100658002DF032C02EF0DFEC05F0050E45EC06F06B
:100668002FC026F030C027F031C028F032C029F062
:10067800A7EC04F0000E1200000E0001706F000ECF
:100688000001726F000E0001736F000E00016F6FA2
:10069800000E6E6F060E0001716FF28ED08EF28C16
:1006A800F288F28C9F8A9D8A000E0001746F010EF9
:1006B8000001756F790E0001766F0F0E0001776FDC
:1006C800780E0001786F0F0E0001796F000E00019F
:1006D8007A6F000E00017C6FC70E7B6F000E000161
:1006E8007D6F010E00017E6F770E00017F6F0F0E88
:1006F8000001806F760E0001816F0F0E0001826F7E
:10070800020E0001836F000E0001856FC70E846F13
:10071800720ED36ED3B470D0FDD77CEC06F0CCEC5F
:1007280006F0BBEC06F0740E266E000E276E7D0EEA
:10073800286E000E296EA7EC05F0010E29EC06F0D4
:10074800740E266E000E276E7D0E286E000E296E22
:10075800A7EC04F0740E2B6E000E2C6E7D0E2D6E21
:10076800000E2E6E61EC06F0010E29EC06F0740EF8
:10077800266E000E276E7D0E286E000E296EA7ECE1
:1007880004F0010E0F6E000E95EC06F0010E0F6ED0
:10079800010E95EC06F02DD0000173510001D8A48C
:1007A8000DD0740E2F6E000E306E7D0E316E000E61
:1007B800326E71C033F056EC00F00ED000017305B4
:1007C800D8A40DD0740E2F6E000E306E7D0E316ED3
:1007D800000E326E4CEC02F00001736F0DD0020E69
:1007E80000017319D8A408D0020E04D0010E00012C
:1007F800736F010E0001726F00017251000AD8B4C4
:100808008CD7010AD8B4C8D7030AD8B4EFD7010ADD
:10081800F3D71DC0D9FF1EC0DAFFDF501F6E1F506F
:100828000F6E106A20EE07F01D50D9261E50DA22EE
:10083800DECF11F0DDCF12F0A8EC06F00FC015F0F6
:1008480010C016F0000E186E640E176EEFEC04F070
:1008580015C024F016C025F020EE01F01D50D92651
:100868001E50DA22DF50D8B42CD020EE06F01D50EE
:10087800D9261E50DA22DF501F6E010E206E1F2A65
:1008880002D0D89020361F2EFCD720508A108A6EAE
:1008980020EE07F01D50D9261E50DA22DECF1FF0B9
:1008A800DDCF20F024C021F025C022F0211E221E19
:1008B800214A222A1F502124246E20502220256EEE
:1008C80014D020EE06F01D50D9261E50DA22DF5033
:1008D8001F6E010E206E1F2A02D0D89020361F2EC0
:1008E800FCD72050FF0A8A148A6E20EE02F01D50B1
:1008F800D9261E50DA22DECF1FF0DDCF20F01FC030
:10090800D9FF20C0DAFF2444E846FC0BDF6E20EE56
:1009180004F01D50D9261E50DA22DECF1FF0DDCF9D
:1009280020F01FC0D9FF20C0DAFF24C021F025C065
:1009380022F0060E236E223422322132232EFBD7D8
:100948002150DF6E120028D026C0D9FF27C0DAFF59
:10095800DF50D8B405D026C0D9FF27C0DAFFDF069C
:1009680028C0D9FF29C0DAFFDF50D8B405D028C085
:10097800D9FF29C0DAFFDF0626C01DF027C01EF008
:100988000DEC04F028C01DF029C01EF00DEC04F099
:10099800210EE82EFED700F026C0D9FF27C0DAFFC7
:1009A800DF50D8A4D1D728C0D9FF29C0DAFFDF503B
:1009B800D8A4CAD720EE01F02650D9262750DA222B
:1009C800010EDF6E20EE01F02850D9262950DA22D8
:1009D800010EDF6E1200000E1A6E18AE06D0176CEC
:1009E800181ED8B0182A010E1A6E16AE06D0156C4D
:1009F800161ED8B0162A010E1A1A000E1C6E000E0A
:100A08001B6E17501810D8B41CD0010E196E04D0E4
:100A1800D89017361836192A18AEFAD7D8901B3638
:100A28001C361750155C18501658D8A005D017500A
:100A3800155E1850165A1B80D89018321732192E86
:100A4800EDD71A50D8B404D01B6C1C1ED8B01C2A81
:100A58001BC015F01CC016F01200000E156E000E1B
:100A6800146E000E166E000E166E030E166401D07C
:100A780020D06950116E126A060ED89011361236BF
:100A8800E82EFBD768CF13F0D8901332D8901332E2
:100A980013501112000E1212115014261250152262
:100AA800820E116EDE0EE82EFED7112EFCD7162A06
:100AB800DCD714C011F015C012F0D89012321132E0
:100AC800D8901232113211C00FF012C010F012007B
:100AD800000E156E000E146E000E166E000E166EC9
:100AE800030E166401D020D06750116E126A060EEC
:100AF800D89011361236E82EFBD766CF13F0D8906F
:100B08001332D890133213501112000E12121150D2
:100B1800142612501522820E116EDE0EE82EFED714
:100B2800112EFCD7162ADCD714C011F015C012F00C
:100B3800D89012321132D8901232113211C00FF0FF
:100B480012C010F0120028D026C0D9FF27C0DAFF43
:100B5800640EDF6005D026C0D9FF27C0DAFFDF2A80
:100B680028C0D9FF29C0DAFF640EDF6005D028C08D
:100B7800D9FF29C0DAFFDF2A26C01DF027C01EF0E2
:100B88000DEC04F028C01DF029C01EF00DEC04F097
:100B9800210EE82EFED700F026C0D9FF27C0DAFFC5
:100BA800630EDF64D1D728C0D9FF29C0DAFF630EEE
:100BB800DF64CAD712002BC026F02CC027F02DC046
:100BC80028F02EC029F0A7EC04F020EE01F02B50FD
:100BD800D9262C50DA22010EDF6E20EE01F02D50BE
:100BE800D9262E50DA22000EDF6E2BC026F02CC03C
:100BF80027F02DC028F02EC029F0A7EC05F0120030
:100C08002BC026F02CC027F02DC028F02EC029F0CC
:100C1800A7EC04F020EE01F02B50D9262C50DA2254
:100C2800000EDF6E20EE01F02D50D9262E50DA226C
:100C3800010EDF6E2BC026F02CC027F02DC028F047
:100C48002EC029F0A7EC05F01200106E000E126EEF
:100C5800000E116E000E126E010E116E09D0820E7A
:100C68000F6EDE0EE82EFED70F2EFCD7114A122A81
:100C78001050140D1150F35C1250F458D8A0120003
:100C8800EED7106E000E126E000E116E000E126E70
:100C9800010E116E09D0820E0F6EDE0EE82EFED701
:100CA8000F2EFCD7114A122A1050020D1150F35C76
:100CB8001250F458D8A01200EED720EE01F02B50B5
:100CC800D9262C50DA22000EDF6E20EE01F02D50CE
:100CD800D9262E50DA22000EDF6E2BC026F02CC04B
:100CE80027F02DC028F02EC029F0A7EC05F012003F
:100CF800000E7F6E800E7E6E6F0E6F6E000E6E6E33
:100D0800C70E7B6E000E7A6E000E796E000E786E3E
:100D1800000E776E000E766E93909392939493964E
:100D28001200106E1050D8A406D00FB002D08D90CB
:100D380001D08D8012001004D8A412000FB002D088
:100D48008D9201D08D8212000F501102F3CF13F053
:100D5800F4CF14F00F501202F35014261050110261
:100D6800F350142613C00FF014C010F01200899429
:100D7800899692849286B894B896B89CB89E060EC6
:100D8800636E060E626E96909692590EB76E1200BA
:100D9800010E0F6E94500FC094FFCD0EAF6E000E73
:100DA800B06EAA86AC84AB88AB8EAC98AB9C1200B4
:100DB80000EE3BF0110EEE6AE806FDE14C904C9215
:0A0DC800000EF86E000140EF03F08A
:020000040020DA
:08000000FFFFFFFFFFFFFFFF00
:020000040030CA
:0E000000FFC80F3E3C9D85FF0FC00FE00F4074
:00000001FF
