:040000005BEF0DF0B5
:101AB600000161EF0FF001500302F3CF05F0F4CF00
:101AC60006F001500402F350062602500302F350BA
:101AD600062605C001F006C002F01200000E7F6E59
:101AE600800E7E6E6F0E6F6E000E6E6EC70E7B6E74
:101AF600000E7A6E000E796E000E786E000E776E0E
:101B0600000E766E120020EE01F01D50D9261E50F2
:101B1600DA22000EDF6E20EE01F01F50D92620508B
:101B2600DA22000EDF6E1DC018F01EC019F01FC0AD
:101B36001AF020C01BF005EC0EF0120020EE01F0AA
:101B46001D50D9261E50DA22000EDF6E20EE01F05F
:101B56001F50D9262050DA22010EDF6E1DC018F064
:101B66001EC019F01FC01AF020C01BF005EC0EF0C5
:101B7600120020EE01F01D50D9261E50DA22010E69
:101B8600DF6E20EE01F01F50D9262050DA22000E1B
:101B9600DF6E1DC018F01EC019F01FC01AF020C05D
:101BA6001BF005EC0EF01200036E000E056E000E23
:101BB600046E000E076E000E066E000E056E010E18
:101BC600046E16D0000E076E010E066E07500EE16B
:101BD600150E065CD8B00AD0820E016EDE0EE82E17
:101BE600FED7012EFCD7064A072AF0D7044A052A53
:101BF6000350016E026A0450015C05500258D8A0D9
:101C06001200E0D728D018C0D9FF19C0DAFF640E39
:101C1600DF6005D018C0D9FF19C0DAFFDF2A1AC065
:101C2600D9FF1BC0DAFF640EDF6005D01AC0D9FFEA
:101C36001BC0DAFFDF2A18C00FF019C010F0C7EC7E
:101C46000EF01AC00FF01BC010F0C7EC0EF0210EFC
:101C5600E82EFED700F018C0D9FF19C0DAFF630ED0
:101C6600DF64D1D71AC0D9FF1BC0DAFF630EDF6469
:101C7600CAD71200000E0C6E0AAE06D0096C0A1EF8
:101C8600D8B00A2A010E0C6E08AE06D0076C081EE4
:101C9600D8B0082A010E0C1A000E0E6E000E0D6E3C
:101CA60009500A10D8B41CD0010E0B6E04D0D8907F
:101CB60009360A360B2A0AAEFAD7D8900D360E36F2
:101CC6000950075C0A500858D8A005D00950075E8D
:101CD6000A50085A0D80D8900A3209320B2EEDD7D9
:101CE6000C50D8B404D00D6C0E1ED8B00E2A0DC000
:101CF60007F00EC008F0120028D018C0D9FF19C08E
:101D0600DAFFDF50D8B405D018C0D9FF19C0DAFF02
:101D1600DF061AC0D9FF1BC0DAFFDF50D8B405D0E2
:101D26001AC0D9FF1BC0DAFFDF0618C00FF019C0B2
:101D360010F0C7EC0EF01AC00FF01BC010F0C7EC85
:101D46000EF0210EE82EFED700F018C0D9FF19C0FC
:101D5600DAFFDF50D8A4D1D71AC0D9FF1BC0DAFFEB
:101D6600DF50D8A4CAD720EE01F01850D926195052
:101D7600DA22010EDF6E20EE01F01A50D9261B5032
:101D8600DA22010EDF6E12000FC0D9FF10C0DAFF93
:101D9600DF50116E1150016E026A20EE07F00F50EF
:101DA600D9261050DA22DECF03F0DDCF04F05EEC48
:101DB6000DF001C007F002C008F0000E0A6E640EB6
:101DC600096E3DEC0EF007C016F008C017F020EEC5
:101DD60001F00F50D9261050DA22DF50D8B42CD09B
:101DE60020EE06F00F50D9261050DA22DF50116E81
:101DF600010E126E112A02D0D8901236112EFCD77F
:101E060012508A108A6E20EE07F00F50D926105015
:101E1600DA22DECF11F0DDCF12F016C013F017C0B4
:101E260014F0131E141E134A142A11501324166E8E
:101E360012501420176E14D020EE06F00F50D9263B
:101E46001050DA22DF50116E010E126E112A02D0E6
:101E5600D8901236112EFCD71250FF0A8A148A6EB9
:101E660020EE02F00F50D9261050DA22DECF11F004
:101E7600DDCF12F011C0D9FF12C0DAFF1644E846D2
:101E8600FC0BDF6E20EE04F00F50D9261050DA223C
:101E9600DECF11F0DDCF12F011C0D9FF12C0DAFF8C
:101EA60016C013F017C014F0060E156E1434143253
:101EB6001332152EFBD71350DF6E1200000E216E63
:101EC600010E226E790E236E0F0E246E780E256E8D
:101ED6000F0E266E000E276E000E296EC70E286E98
:101EE600000E2A6E010E2B6E770E2C6E0F0E2D6EC7
:101EF600760E2E6E0F0E2F6E020E306E000E326EA6
:101F0600C70E316E93909392939493969286B88669
:101F16000D0EC26E000EC16EAB0EC06E720ED36E8B
:101F2600D3A4FED771EC0DF0020ED7EC0DF0210E06
:101F3600186E000E196E2A0E1A6E000E1B6E7FECBE
:101F46000EF0020ED7EC0DF0210E186E000E196E73
:101F56002A0E1A6E000E1B6E05EC0EF0020ED7EC62
:101F66000DF0210E186E000E196E2A0E1A6E000E56
:101F76001B6E7FEC0EF0020ED7EC0DF0210E1D6EDF
:101F8600000E1E6E2A0E1F6E000E206E86EC0DF0E1
:101F9600020ED7EC0DF0210E186E000E196E2A0EE9
:101FA6001A6E000E1B6E7FEC0EF0020ED7EC0DF0D3
:101FB600210E1D6E000E1E6E2A0E1F6E000E206E66
:101FC600A1EC0DF0020ED7EC0DF0210E186E000EEE
:101FD600196E2A0E1A6E000E1B6E7FEC0EF0020EA4
:101FE600D7EC0DF0210E1D6E000E1E6E2A0E1F6E12
:0A1FF600000E206EBCEC0DF097D732
:020000040020DA
:08000000FFFFFFFFFFFFFFFF00
:020000040030CA
:0E000000FFC80F3F3C9D85FF0FC00FE00F4073
:00000001FF
