:0400000054EF00F0C9
:100008003282FACF01F0FBCF02F0E9CF03F0EACF5A
:1000180004F0E1CF05F0E2CF06F0D9CF07F0DACF50
:1000280008F0F3CF09F0F4CF0AF0F6CF0BF0F7CFD2
:100038000CF0F8CF0DF0F5CF0EF09EAA13D031508A
:10004800010D800EF324D96E000EF420DA6EAECFC7
:10005800DFFF0F0E3118D8A403D0000E316E01D087
:10006800312A9E9A0EC0F5FF0DC0F8FF0CC0F7FFAD
:100078000BC0F6FF0AC0F4FF09C0F3FF08C0DAFF9F
:1000880007C0D9FF06C0E2FF05C0E1FF04C0EAFFD0
:1000980003C0E9FF02C0FBFF01C0FAFF3292110062
:1000A800F0EF02F0000E00016D6F000E00016C6FA2
:1000B800000E00016B6F000E6A6FF28ED08EF28C0C
:1000C800F288F28C9F8A9D8A000E00016E6F010EE5
:1000D80000016F6F790E0001706F0F0E0001716FD4
:1000E800780E0001726F0F0E0001736F000E000191
:1000F800746F000E0001766FC70E756F000E000159
:10010800776F010E0001786F770E0001796F0F0E7F
:1001180000017A6F760E00017B6F0F0E00017C6F75
:10012800020E00017D6F000E00017F6FC70E7E6F0B
:10013800720ED36ED3B46DD0FDD7B4EC02F0E0EC00
:1001480002F0010E00016C6F64D06E0E2A6E000E74
:100158002B6E770E2C6E000E2D6E030E2E6EFEEC9F
:1001680002F057D0030E00018F19D8A402D0010E57
:1001780001D0000E2F6E020E00018019D8A402D003
:10018800010E01D0000E2F14E8A043D0800E0F6E90
:10019800000E106EB4EC01F00009D8B43AD0000E8D
:1001A80000016D6F090E00016D6501D01CD00001C2
:1001B8006D512F6E306A010E2F26000E3022800EF0
:1001C8002F24D96E000E3020DA6E00016D51010D1A
:1001D800600EF324E16E000EF420E26EDFCFE7FF3D
:1001E80000016D2BDFD7000E00016D6F0F0E0001AF
:1001F8006D6501D00ED000016D51010D800EF32404
:10020800D96E000EF420DA6E000EDF6E00016D2B41
:10021800EDD700016C51000AD8B48FD7010AD8B4C1
:1002280094D7030AD8B49ED7010AF3D71DC0D9FFC3
:100238001EC0DAFFDF501F6E1F500F6E106A20EECF
:1002480007F01D50D9261E50DA22DECF11F0DDCF7F
:1002580012F0CDEC02F00FC015F010C016F0000E31
:10026800186E640E176E56EC02F015C024F016C016
:1002780025F020EE01F01D50D9261E50DA22DF505D
:10028800D8B42CD020EE06F01D50D9261E50DA2204
:10029800DF501F6E010E206E1F2A02D0D890203624
:1002A8001F2EFCD720508A108A6E20EE07F01D50B2
:1002B800D9261E50DA22DECF1FF0DDCF20F024C071
:1002C80021F025C022F0211E221E214A222A1F5079
:1002D8002124246E20502220256E14D020EE06F012
:1002E8001D50D9261E50DA22DF501F6E010E206ED7
:1002F8001F2A02D0D89020361F2EFCD72050FF0A84
:100308008A148A6E20EE02F01D50D9261E50DA2279
:10031800DECF1FF0DDCF20F01FC0D9FF20C0DAFFED
:100328002444E846FC0BDF6E20EE04F01D50D9266D
:100338001E50DA22DECF1FF0DDCF20F01FC0D9FF1C
:1003480020C0DAFF24C021F025C022F0060E236E5B
:10035800223422322132232EFBD72150DF6E1200A5
:10036800000E176E000E196E000E186E000E1A6E33
:1003780020EE04F00F50D9261050DA22DF50116E0B
:1003880020EE03F00F50D9261050DA22DF50126EFB
:100398001250146E136A11501324186E000E142094
:1003A800196E20EE02F00F50D9261050DA22DF50D5
:1003B8001818176E050E1A6E090E1A6401D028D087
:1003C8001A50116E126A010E1126000E12221150D7
:1003D8000F24D96E12501020DA6EDF50136E1A50A7
:1003E800010DF3500F24D96EF4501020DA6EDF504F
:1003F800146E1450166E156A13501524186E000EDC
:100408001620196E17501818176E020E1A26D4D710
:10041800010E120028D026C0D9FF27C0DAFFDF500E
:10042800D8B405D026C0D9FF27C0DAFFDF0628C018
:10043800D9FF29C0DAFFDF50D8B405D028C0D9FFCA
:1004480029C0DAFFDF0626C01DF027C01EF01AEC0F
:1004580001F028C01DF029C01EF01AEC01F0210E91
:10046800E82EFED700F026C0D9FF27C0DAFFDF50FC
:10047800D8A4D1D728C0D9FF29C0DAFFDF50D8A423
:10048800CAD720EE01F02650D9262750DA22010ECD
:10049800DF6E20EE01F02850D9262950DA22010E0D
:1004A800DF6E1200000E1A6E18AE06D0176C181EFA
:1004B800D8B0182A010E1A6E16AE06D0156C161E84
:1004C800D8B0162A010E1A1A000E1C6E000E1B6EEA
:1004D80017501810D8B41CD0010E196E04D0D8903B
:1004E80017361836192A18AEFAD7D8901B361C3684
:1004F8001750155C18501658D8A005D01750155E1F
:100508001850165A1B80D89018321732192EEDD76A
:100518001A50D8B404D01B6C1C1ED8B01C2A1BC09F
:1005280015F01CC016F01200106E000E126E000EB0
:10053800116E000E126E010E116E09D0820E0F6E32
:10054800DE0EE82EFED70F2EFCD7114A122A1050C5
:10055800020D1150F35C1250F458D8A01200EED7D7
:10056800000E7F6E800E7E6E6F0E6F6E000E6E6ECA
:10057800C70E7B6E000E7A6E000E796E000E786ED6
:10058800000E776E000E766E9390939293949396E6
:1005980012000F501102F3CF13F0F4CF14F00F50E4
:1005A8001202F350142610501102F350142613C0EF
:1005B8000FF014C010F01200010E0F6E94500FC00F
:1005C80094FFCD0EAF6E000EB06EAA86AC84AB88D9
:1005D800AB8EAC98AB9C120000EE80F0100EEE6A69
:1005E800E806FDE1316A32903292000EF86E0001A1
:1005F80056EF00F02AC026F02BC027F02CC028F0B8
:100608002DC029F00EEC02F02E5098EC02F01200EA
:020000040020DA
:08000000FFFFFFFFFFFFFFFF00
:020000040030CA
:0E000000FFC80F3E3C9D85FF0FC00FE00F4074
:00000001FF
