:0400000057EF00F0C6
:100008004E82FACF01F0FBCF02F0E9CF03F0EACF3E
:1000180004F0E1CF05F0E2CF06F0D9CF07F0DACF50
:1000280008F0F3CF09F0F4CF0AF0F6CF0BF0F7CFD2
:100038000CF0F8CF0DF0F5CF0EF09EAA16D04D506B
:10004800010DEC0EF324D96E010EF420DA6EAECF5A
:10005800DFFF010E0101EB6F0F0E4D18D8A403D07E
:10006800000E4D6E01D04D2A9E9A0EC0F5FF0DC0B0
:10007800F8FF0CC0F7FF0BC0F6FF0AC0F4FF09C079
:10008800F3FF08C0DAFF07C0D9FF06C0E2FF05C0CA
:10009800E1FF04C0EAFF03C0E9FF02C0FBFF01C0A3
:1000A800FAFF4E92110047EF0AF045C069F046C0CA
:1000B8006AF047C06BF048C06CF049C06DF04AC0A8
:1000C8006EF04BC06FF04CC070F075C071F076C028
:1000D80072F077C073F078C074F0000E0001606FA2
:1000E800000E0001616F000E0001626F000E00013A
:1000F800646FC80E636F030E0001666F200E656F94
:10010800020E0001686F580E676F2FC026F030C0CE
:1001180027F031C028F032C029F059EC08F01EEC65
:1001280009F00FC06DF010C06EF0E3EC08F00FC0DE
:100138006FF010C070F0000E696E000E686E000E51
:10014800676E000E666E2FC02BF030C02CF031C0E9
:100158002DF032C02EF0B6EC09F03350F7EC09F070
:100168003350010DF3503426F45035222FC026F0B9
:1001780030C027F031C028F032C029F059EC08F01F
:100188001EEC09F00FC069F010C06AF0E3EC08F04B
:100198000FC06BF010C06CF0000E696E000E686E38
:1001A800000E676E000E666E2FC02BF030C02CF06C
:1001B80031C02DF032C02EF091EC09F03350020D11
:1001C800F350F7EC09F03350020DF350345EF4505D
:1001D800355A2FC026F030C027F031C028F032C081
:1001E80029F059EC08F01EEC09F00FC071F010C0AE
:1001F80072F0E3EC08F00FC073F010C074F0000E5A
:10020800696E000E686E000E676E000E666E000165
:10021800695100016B25366E00016A5100016C219D
:10022800376E00016351365C000164513758D8B00D
:100238000DD0000E00016A6F000E696F000E0001FC
:100248006C6F000E6B6F010E0001606F00016D5145
:1002580000016F25366E00016E5100017021376E66
:1002680000016351365C000164513758D8B00DD095
:10027800000E00016E6F000E6D6F000E0001706FB2
:10028800000E6F6F010E0001616F000171510001D6
:100298007325366E0001725100017421376E00011A
:1002A8006351365C000164513758D8B00DD0000E48
:1002B8000001726F000E716F000E0001746F000E66
:1002C800736F010E0001626F0001615160C036F06A
:1002D800376A3626000E3722000162513626000E94
:1002E8003722030E36183710D8A421D02FC02BF090
:1002F80030C02CF031C02DF032C02EF0B6EC09F031
:100308003350050DF350F7EC09F03350050DF35059
:100318003426F45035222FC026F030C027F031C0E3
:1003280028F032C029F059EC08F0030E1200000141
:1003380069510001655D00016A5100016659D8B034
:1003480059D000016B510001655D00016C5100013D
:100358006659D8B04FD020EE6BF0DECF36F0DDCF47
:1003680037F0361E371E364A372A000169513626BD
:1003780000016A51372200016751365C000168515B
:100388003758D8A016D069C036F06AC037F0361E84
:10039800371E364A372A00016B51362600016C5148
:1003A800372200016751365C000168513758D8B0D0
:1003B80021D02FC02BF030C02CF031C02DF032C02E
:1003C8002EF0B6EC09F03350020DF350F7EC09F0BB
:1003D8003350020DF3503426F45035222FC026F046
:1003E80030C027F031C028F032C029F059EC08F0AD
:1003F800020E120000016D510001655D00016E5191
:1004080000016659D8B056D000016F510001655DF2
:100418000001705100016659D8B04CD020EE6FF041
:10042800DECF36F0DDCF37F0361E371E364A372A94
:1004380000016D51362600016E51372200016751C7
:10044800365C000168513758D8A016D06DC036F018
:100458006EC037F0361E371E364A372A00016F51F4
:10046800362600017051372200016751365C0001C1
:1004780068513758D8B01ED02FC02BF030C02CF0A0
:1004880031C02DF032C02EF0B6EC09F03350F7EC45
:1004980009F03350010DF3503426F45035222FC0A3
:1004A80026F030C027F031C028F032C029F059ECCE
:1004B80008F09ED7000171510001655D000172517D
:1004C80000016659D8B043D0000173510001655D41
:1004D8000001745100016659D8B039D020EE73F08C
:1004E800DECF36F0DDCF37F0361E371E364A372AD4
:1004F80000017151362600017251372200016751FF
:10050800365C000168513758D8A016D071C036F053
:1005180072C037F0361E371E364A372A000173512B
:10052800362600017451372200016751365C0001FC
:1005380068513758D8B00BD02FC026F030C027F0FC
:1005480031C028F032C029F059EC08F051D7000129
:10055800695100016B5D00016A5100016C59D8B006
:1005680021D02FC02BF030C02CF031C02DF032C07C
:100578002EF0B6EC09F03350030DF350F7EC09F008
:100588003350030DF3503426F45035222FC026F093
:1005980030C027F031C028F032C029F059EC08F0FB
:1005A800000E1200000173510001715D00017451C9
:1005B80000017259D8B01ED02FC02BF030C02CF0DB
:1005C80031C02DF032C02EF091EC09F03350F7EC29
:1005D80009F03350010DF350345EF450355A2FC0F2
:1005E80026F030C027F031C028F032C029F059EC8D
:1005F80008F0D6D700016B510001695D00016C510C
:1006080000016A59D8B03FD000016D5100016F5DFB
:1006180000016E5100017059D8B035D02FC02BF0B1
:1006280030C02CF031C02DF032C02EF0B6EC09F0FD
:100638003350030DF3CF15F0F4CF16F0000E186EFB
:10064800020E176EA1EC08F01550F7EC09F03350C4
:10065800030DF3CF15F0F4CF16F0000E186E020E4E
:10066800176EA1EC08F015503426165035222FC00D
:1006780026F030C027F031C028F032C029F059ECFC
:1006880008F0010E1200000171510001735D0001B4
:10069800725100017459D8B038D000016F5100016F
:1006A8006D5D0001705100016E59D8B02ED02FC079
:1006B8002BF030C02CF031C02DF032C02EF0B6EC4B
:1006C80009F033C015F0166A000E186E020E176E88
:1006D800A1EC08F01550F7EC09F033C015F0166AD4
:1006E800000E186E020E176EA1EC08F01550342695
:1006F800165035222FC026F030C027F031C028F020
:1007080032C029F059EC08F0BCD7000E1200000ED8
:100718000101D76F000E0101D56F000E0101D66FE0
:10072800000E0101D36F000ED26F000E0101D86FC9
:10073800060E0101D46FF28EF28CF28CD08E9F8A55
:100748009D8A9E9A000E0101D96F010E0101DA6F90
:10075800790E0101DB6F0F0E0101DC6F780E0101CC
:10076800DD6F0F0E0101DE6F000E0101DF6F000E5D
:100778000101E16FC70EE06F000E0101E26F010E8B
:100788000101E36F770E0101E46F0F0E0101E56FC0
:10079800760E0101E66F0F0E0101E76F020E0101EF
:1007A800E86F000E0101EA6FC70EE96F720ED36E93
:1007B800D3B4B5D1FDD72EEC0AF0AEEC0AF09DEC1F
:1007C8000AF0A1EC07F09DEC0AF0D90E266E010E96
:1007D800276EE20E286E010E296E59EC09F0010E03
:1007E800DBEC09F0D90E266E010E276EE20E286E9C
:1007F800010E296E59EC08F0D90E2B6E010E2C6EE5
:10080800E20E2D6E010E2E6E13EC0AF0010EDBECDB
:1008180009F0D90E266E010E276EE20E286E010E23
:10082800296E59EC08F0010E0F6E000E77EC0AF0F5
:10083800010E0F6E010E77EC0AF0010EC7D0010110
:10084800D6510101D8A416D0D90E2F6E010E306EE4
:10085800E20E316E010E326ED4C133F00101D8516F
:10086800010D640EF324346E010EF420356E59EC3C
:1008780000F036D00101D605D8A40BD0D90E2F6EC2
:10088800010E306EE20E316E010E326EA2EC05F0F2
:1008980027D0020E0101D619D8A404D0020E0101F6
:1008A800D56F20D0030E0101D619D8A41BD0D90EBC
:1008B800266E010E276EE20E286E010E296E59EC87
:1008C80009F00101D451F7EC09F0D90E266E010E9A
:1008D800276EE20E286E010E296E59EC08F0000E04
:1008E8000101D66F0101D851010D000EF324D96E14
:1008F800010EF420DA6E010EDF6E0101D82B0FD144
:100908000101EB51D8B487D0D90E266E010E276E9F
:10091800E20E286E010E296E59EC08F0030E010153
:10092800FB19D8A402D0010E01D0000E3F6E020EB2
:100938000101EC19D8A402D0010E01D0000E3F1419
:10094800E8A0EDD0EC0E0F6E010E106EFFEC07F074
:100958000009D8B43ED0000E0101D76F090E01017D
:10096800D76501D01CD00101D7513F6E406A010EF6
:100978003F26000E4022EC0E3F24D96E010E402087
:10098800DA6E0101D751010DC80EF324E16E010E94
:10099800F420E26EDFCFE7FF0101D72BDFD7000E8F
:1009A8000101D76F0F0E0101D76501D00ED00101EB
:1009B800D751010DEC0EF324D96E010EF420DA6E36
:1009C800000EDF6E0101D72BEDD7030E0101D56FA5
:1009D800A6D0D90E2B6E010E2C6EE20E2D6E010ED6
:1009E8002E6E13EC0AF0050EF7EC09F0D90E266E00
:1009F800010E276EE20E286E010E296E59EC08F0E2
:100A0800D90E266E010E276EE20E286E010E296E93
:100A180059EC09F084D0010E0101D66F010E0101D5
:100A2800D56FD90E266E010E276EE20E286E010EC6
:100A3800296E59EC09F0050EF7EC09F070D00101A8
:100A4800D8510101D8B46BD00101D851010D000E65
:100A5800F324D96E010EF420DA6EDF50D8A417D033
:100A6800D90E2B6E010E2C6EE20E2D6E010E2E6E1F
:100A780013EC0AF00101D851010D640EF324D96E6C
:100A8800010EF420DA6EDF50F7EC09F045D00101D1
:100A9800D851010D000EF324D96E010EF420DA6E40
:100AA800DE04D8A439D00101D851010D640EF32415
:100AB800D96E010EF420DA6EDF50D8B417D0D90EF3
:100AC8002B6E010E2C6EE20E2D6E010E2E6E91EC29
:100AD80009F00101D851010D640EF324D96E010EFD
:100AE800F420DA6EDF50F7EC09F016D0D90E2B6E31
:100AF800010E2C6EE20E2D6E010E2E6EB6EC09F074
:100B08000101D851010D640EF324D96E010EF420B1
:100B1800DA6EDF50F7EC09F00101D80790D7010130
:100B2800D551000AD8B447D6010AD8B488D6030AE2
:100B3800D8B4E6D6010AD8B482D7F1D741C03BF081
:100B480042C03CF043C03DF044C03EF0000E366E5B
:100B5800C80E356E030E386E200E376E020E3A6ED2
:100B6800580E396E1EEC09F00FC03BF010C03CF077
:100B7800E3EC08F00FC03DF010C03EF0000E696EC7
:100B8800000E686E000E676E000E666E3B503D24C8
:100B9800336E3C503E20346E3350355C34503658FA
:100BA800D8B085D03B50375C3C503858D8B02ED0A0
:100BB8003D50375C3E503858D8B028D020EE3DF034
:100BC800DECF33F0DDCF34F0331E341E334A342AFF
:100BD8003B5033263C5034223950335C3A50345819
:100BE800D8A012D03BC033F03CC034F0331E341EC2
:100BF800334A342A3D5033263E5034223950335C30
:100C08003A503458D8B002D0020E12003B503D5C26
:100C18003C503E58D8A023D02FC026F030C027F033
:100C280031C028F032C029F059EC08F02FC02BF061
:100C380030C02CF031C02DF032C02EF0B6EC09F0E7
:100C4800030EF7EC09F02FC026F030C027F031C0B2
:100C580028F032C029F059EC08F0010E12003B5080
:100C68003D5C3C503E58D8B069D02FC026F030C00B
:100C780027F031C028F032C029F059EC08F02FC015
:100C88002BF030C02CF031C02DF032C02EF091EC9A
:100C980009F0030EF7EC09F02FC026F030C027F05A
:100CA80031C028F032C029F059EC08F0D6D72FC04F
:100CB80026F030C027F031C028F032C029F059ECB6
:100CC80008F03B503D5C3C503E58D8A019D02FC08E
:100CD8002BF030C02CF031C02DF032C02EF0B6EC25
:100CE80009F0050EF7EC09F02FC026F030C027F008
:100CF80031C028F032C029F059EC08F0000E12007B
:100D08003B503D5C3C503E58D8B018D02FC02BF01B
:100D180030C02CF031C02DF032C02EF091EC09F02B
:100D2800050EF7EC09F02FC026F030C027F031C0CF
:100D380028F032C029F059EC08F0E0D7000E120074
:100D48001DC0D9FF1EC0DAFFDF501F6E1F500F6E87
:100D5800106A20EE07F01D50D9261E50DA22DECF89
:100D680011F0DDCF12F08AEC0AF00FC015F010C0B8
:100D780016F0000E186E640E176EA1EC08F015C080
:100D880024F016C025F020EE01F01D50D9261E5083
:100D9800DA22DF50D8B42CD020EE06F01D50D92628
:100DA8001E50DA22DF501F6E010E206E1F2A02D05D
:100DB800D89020361F2EFCD720508A108A6E20EE3D
:100DC80007F01D50D9261E50DA22DECF1FF0DDCFE6
:100DD80020F024C021F025C022F0211E221E214A25
:100DE800222A1F502124246E20502220256E14D040
:100DF80020EE06F01D50D9261E50DA22DF501F6E55
:100E0800010E206E1F2A02D0D89020361F2EFCD744
:100E18002050FF0A8A148A6E20EE02F01D50D9264F
:100E28001E50DA22DECF1FF0DDCF20F01FC0D9FF21
:100E380020C0DAFF2444E846FC0BDF6E20EE04F005
:100E48001D50D9261E50DA22DECF1FF0DDCF20F04C
:100E58001FC0D9FF20C0DAFF24C021F025C022F02E
:100E6800060E236E223422322132232EFBD7215044
:100E7800DF6E1200126E12500F6E106A070ED890B5
:100E88000F361036E82EFBD7070E116E10341032CD
:100E98000F32112EFBD70F468B500F18FD0B0F1872
:100EA8008B6E12500F6E106A060ED8900F361036E1
:100EB800E82EFBD7070E116E103410320F32112EA8
:100EC800FBD70F460F468B500F18FB0B0F188B6E76
:100ED80012500F6E106A050ED8900F361036E82E95
:100EE800FBD7070E116E103410320F32112EFBD7BC
:100EF8008C500F18FE0B0F188C6E12500F6E106A64
:100F08000F3A103AF00E10160F500F0B1012F00E89
:100F18000F16070E116E103410320F32112EFBD738
:100F28000F468C500F18FD0B0F188C6EBEEC0AF094
:100F3800030EE82EFED700F01200929C9490949233
:100F4800949495909592270E156EF50EE82EFED77F
:100F5800152EFCD700F0030E3EEC07F00D0E156EB3
:100F6800FC0EE82EFED7152EFCD7030E3EEC07F03C
:100F7800850EE82EFED700F0030E3EEC07F0210E9A
:100F8800E82EFED700F0020E3EEC07F0210EE82E08
:100F9800FED700F0000E136E280E5FEC0AF0210E4B
:100FA800E82EFED700F0000E136E080E5FEC0AF074
:100FB800210EE82EFED700F0000E136E010E5FEC36
:100FC8000AF00D0E156EFC0EE82EFED7152EFCD776
:100FD800000E136E060E5FEC0AF0210EE82EFED707
:100FE80000F0000E136E0C0E5FEC0AF0210EE82ED6
:100FF800FED700F01200000E176E000E196E000EDC
:10100800186E000E1A6E20EE04F00F50D9261050FC
:10101800DA22DF50116E20EE03F00F50D92610505F
:10102800DA22DF50126E1250146E136A1150132414
:10103800186E000E1420196E20EE02F00F50D926FB
:101048001050DA22DF501818176E050E1A6E090EA6
:101058001A6401D028D01A50116E126A010E112696
:10106800000E122211500F24D96E12501020DA6E81
:10107800DF50136E1A50010DF3500F24D96EF4503F
:101088001020DA6EDF50146E1450166E156A135065
:101098001524186E000E1620196E17501818176EA2
:1010A800020E1A26D4D7010E120028D026C0D9FF66
:1010B80027C0DAFFDF50D8B405D026C0D9FF27C033
:1010C800DAFFDF0628C0D9FF29C0DAFFDF50D8B41D
:1010D80005D028C0D9FF29C0DAFFDF0626C01DF0D9
:1010E80027C01EF0A4EC06F028C01DF029C01EF091
:1010F800A4EC06F0210EE82EFED700F026C0D9FF9A
:1011080027C0DAFFDF50D8A4D1D728C0D9FF29C01B
:10111800DAFFDF50D8A4CAD720EE01F02650D9262E
:101128002750DA22010EDF6E20EE01F02850D92672
:101138002950DA22010EDF6E1200000E1A6E18AE68
:1011480006D0176C181ED8B0182A010E1A6E16AEE3
:1011580006D0156C161ED8B0162A010E1A1A000EE3
:101168001C6E000E1B6E17501810D8B41CD0010E40
:10117800196E04D0D89017361836192A18AEFAD72F
:10118800D8901B361C361750155C18501658D8A026
:1011980005D01750155E1850165A1B80D890183273
:1011A8001732192EEDD71A50D8B404D01B6C1C1E58
:1011B800D8B01C2A1BC015F01CC016F01200000E77
:1011C800156E000E146E000E166E000E166E030ECF
:1011D800166401D020D06950116E126A060ED8909C
:1011E80011361236E82EFBD768CF13F0D890133299
:1011F800D890133213501112000E121211501426E7
:1012080012501522820E116EDE0EE82EFED7112E18
:10121800FCD7162ADCD714C011F015C012F0D890EC
:1012280012321132D8901232113211C00FF012C09E
:1012380010F01200000E156E000E146E000E166EE1
:10124800000E166E030E166401D020D06750116E82
:10125800126A060ED89011361236E82EFBD766CFE2
:1012680013F0D8901332D890133213501112000E85
:1012780012121150142612501522820E116EDE0E13
:10128800E82EFED7112EFCD7162ADCD714C011F091
:1012980015C012F0D89012321132D8901232113291
:1012A80011C00FF012C010F0120028D026C0D9FFCC
:1012B80027C0DAFF640EDF6005D026C0D9FF27C03B
:1012C800DAFFDF2A28C0D9FF29C0DAFF640EDF6001
:1012D80005D028C0D9FF29C0DAFFDF2A26C01DF0B3
:1012E80027C01EF0A4EC06F028C01DF029C01EF08F
:1012F800A4EC06F0210EE82EFED700F026C0D9FF98
:1013080027C0DAFF630EDF64D1D728C0D9FF29C010
:10131800DAFF630EDF64CAD712002BC026F02CC098
:1013280027F02DC028F02EC029F059EC08F020EE47
:1013380001F02B50D9262C50DA22010EDF6E20EE58
:1013480001F02D50D9262E50DA22000EDF6E2BC068
:1013580026F02CC027F02DC028F02EC029F059EC1B
:1013680009F012002BC026F02CC027F02DC028F061
:101378002EC029F059EC08F020EE01F02B50D926A8
:101388002C50DA22000EDF6E20EE01F02D50D92607
:101398002E50DA22010EDF6E2BC026F02CC027F06B
:1013A8002DC028F02EC029F059EC09F01200106E5B
:1013B800000E126E000E116E000E126E010E116EEE
:1013C80009D0820E0F6EDE0EE82EFED70F2EFCD748
:1013D800114A122A1050140D1150F35C1250F4588F
:1013E800D8A01200EED7106E000E126E000E116E0D
:1013F800000E126E010E116E09D0820E0F6EDE0EF7
:10140800E82EFED70F2EFCD7114A122A1050020DD3
:101418001150F35C1250F458D8A01200EED720EE09
:1014280001F02B50D9262C50DA22000EDF6E20EE68
:1014380001F02D50D9262E50DA22000EDF6E2BC077
:1014480026F02CC027F02DC028F02EC029F059EC2A
:1014580009F01200000E7F6E800E7E6E6F0E6F6EAA
:10146800000E6E6EC70E7B6E000E7A6E000E796EE1
:10147800000E786E000E776E000E766E9390939243
:1014880093949396120001EEEBF0110EEE6AE806C3
:10149800FDE10001786B776B766B756B00EE41F0C0
:1014A8000D0EEE6AE806FDE14E904E92000EF86EC3
:1014B80000018BEF03F0146E13B002D0899C01D0A9
:1014C800898C14380F0B0F0B3EEC07F0060EE82E34
:1014D800FED700D014500F0B3EEC07F0210EE82E7B
:1014E800FED700F01200106E1050D8A406D00FB02E
:1014F80002D08D9001D08D8012001004D8A4120063
:101508000FB002D08D9201D08D8212000F501102BF
:10151800F3CF13F0F4CF14F00F501202F350142647
:1015280010501102F350142613C00FF014C010F01D
:1015380012008994899692849286B894B896B89C39
:10154800B89E060E636E060E626E96909692590EBF
:10155800B76E1200010E0F6E94500FC094FFCD0E9F
:10156800AF6E000EB06EAA86AC84AB88AB8EAC981A
:10157800AB9C12008B80030EE82EFED700F08B90F8
:0215880012004F
:020000040020DA
:08000000FFFFFFFFFFFFFFFF00
:020000040030CA
:0E000000FFC80F3E3C9D85FF0FC00FE00F4074
:00000001FF
