:040000006BEF00F0B2
:0E0008003C82FACF05F0FBCF06F008EF0DF0BA
:100018003C80D8CF13F0E8CF14F0E0CF15F0FACF3A
:1000280016F0FBCF17F0E9CF18F0EACF19F0E1CFBF
:100038001AF0E2CF1BF0D9CF1CF0DACF1DF0F3CFC6
:100048001EF0F4CF1FF0F6CF20F0F7CF21F0F8CF55
:1000580022F0F5CF23F09EAA16D03A50010DE90EF2
:10006800F324D96E010EF420DA6EAECFDFFF010E55
:100078000101E86F0F0E3A18D8A403D0000E3A6EAB
:1000880001D03A2A9E9A23C0F5FF22C0F8FF21C06A
:10009800F7FF20C0F6FF1FC0F4FF1EC0F3FF1DC00E
:1000A800DAFF1CC0D9FF1BC0E2FF1AC0E1FF19C06C
:1000B800EAFF18C0E9FF17C0FBFF16C0FAFF15C01A
:1000C800E0FF14C0E8FF13C0D8FF3C901000BAEF5F
:1000D8000FF08994899692849286B894B896B89CC1
:1000E800B89E060E636E060E626E96909692590E34
:1000F800B76E12009450C009946ECD0EAF6E000E0C
:10010800B06EAA86AC84AB88AB8EAC98AB9C120060
:100300000001000A006400E8031027C800C409E8DF
:10031000032020202020205363616E5769746852A7
:10032000616E676500202020202020466F756E6476
:1003300020426F6D622100202020202020476F691D
:100340006E6720486F6D65002020202020202053FC
:100350006561726368696E6700202020202020207C
:1003600020205363616E495200202020202020204D
:1003700020546F20476F21002020202020202020A3
:10038000526561647900202020202025642C2025DE
:1003900064000000B0C09EF0B1C09FF0B2C0A0F0F9
:1003A000B3C0A1F0B4C0A2F0B5C0A3F0B6C0A4F031
:1003B000B7C0A5F0B8C0A6F0B9C0A7F0BAC0A8F001
:1003C000BBC0A9F0000E00019B6F000E00019C6FE6
:1003D000000E00019D6F6AC062F06BC063F06CC0DC
:1003E00064F06DC065F0BEEC0CF0C8EC0DF024C0FC
:1003F000A2F025C0A3F08FEC0DF024C0A4F025C01E
:10040000A5F0000E286E010EA2EC0FF0210EE82ED2
:10041000FED700F0000E286E020EA2EC0FF0060EC2
:100420000001716F300EE82EFED7712FFCD700D07F
:10043000010E8AEC0FF0110E2A6E030E2B6E39ECB2
:100440000EF0020E8AEC0FF0730E306E000E316E5D
:10045000860E326E030E336EA2C034F0A3C035F0A8
:10046000A4C036F0A5C037F04EEC0AF0730E2A6E29
:10047000000E2B6E39EC0EF0000E696E000E686EE9
:10048000000E676E000E666E6AC066F06BC067F0A5
:100490006CC068F06DC069F0B8EC0EF000016E51F0
:1004A00039EC0FF06FC0D9FF70C0DAFF00016E5158
:1004B000DF266AC062F06BC063F06CC064F06DC090
:1004C00065F0BEEC0CF0C8EC0DF024C09EF025C029
:1004D0009FF08FEC0DF024C0A0F025C0A1F0000E1D
:1004E000286E010EA2EC0FF0210EE82EFED700F0D0
:1004F000000E286E020EA2EC0FF0060E0001716FC6
:10050000300EE82EFED7712FFCD700D0010E8AECFA
:100510000FF0110E2A6E030E2B6E39EC0EF0020E48
:100520008AEC0FF0730E306E000E316E860E326E56
:10053000030E336E9EC034F09FC035F0A0C036F07D
:10054000A1C037F04EEC0AF0730E2A6E000E2B6E2F
:1005500039EC0EF0000E696E000E686E000E676ECC
:10056000000E666E6AC066F06BC067F06CC068F023
:100570006DC069F091EC0EF000016E51020DF35068
:1005800039EC0FF000016E51020D6FC0D9FF70C041
:10059000DAFFF350DF5E6AC062F06BC063F06CC0DC
:1005A00064F06DC065F0BEEC0CF0C8EC0DF024C03A
:1005B000A6F025C0A7F08FEC0DF024C0A8F025C050
:1005C000A9F0000E286E010EA2EC0FF0210EE82E0D
:1005D000FED700F0000E286E020EA2EC0FF0060E01
:1005E0000001716F300EE82EFED7712FFCD700D0BE
:1005F000010E8AEC0FF0110E2A6E030E2B6E39ECF1
:100600000EF0020E8AEC0FF0730E306E000E316E9B
:10061000860E326E030E336EA6C034F0A7C035F0DE
:10062000A8C036F0A9C037F04EEC0AF0730E2A6E5F
:10063000000E2B6E39EC0EF0000E696E000E686E27
:10064000000E676E000E666E0B0EF66E030EF76EF2
:1006500000019E510001A0250001716F00019F5112
:100660000001A1210001726F0900F5500001715DC8
:100670000900F55000017259D8B00DD0000E0001EC
:100680009F6F000E9E6F000E0001A16F000EA06F05
:10069000010E00019B6F0B0EF66E030EF76E00014C
:1006A000A2510001A4250001716F0001A3510001B6
:1006B000A5210001726F0900F5500001715D09006C
:1006C000F55000017259D8B00DD0000E0001A36F93
:1006D000000EA26F000E0001A56F000EA46F010EA8
:1006E00000019C6F0B0EF66E030EF76E0001A65113
:1006F0000001A8250001716F0001A7510001A92187
:100700000001726F0900F5500001715D0900F5509C
:1007100000017259D8B00DD0000E0001A76F000E75
:10072000A66F000E0001A96F000EA86F010E000158
:100730009D6F00019C519BC071F00001726B000124
:100740007127000E722300019D5100017127000ED8
:100750007223030E0001711900017211D8A425D073
:100760006AC066F06BC067F06CC068F06DC069F07D
:10077000B8EC0EF000016E51050DF35039EC0FF09E
:1007800000016E51050D6FC0D9FF70C0DAFFF35044
:10079000DF266AC062F06BC063F06CC064F06DC0AD
:1007A00065F0BEEC0CF0FF0E12000D0EF66E030E9F
:1007B000F76E00019E510900F55C00019F51090090
:1007C000F558D8B073D00D0EF66E030EF76E00011B
:1007D000A0510900F55C0001A1510900F558D8B0FD
:1007E00065D00F0EF66E030EF76E20EEA0F0DECF92
:1007F00071F0DDCF72F00001711F721F714B722B0F
:1008000000019E510001712700019F5100017223D8
:100810000900F5500001715D0900F55000017259A1
:10082000D8A01FD00F0EF66E030EF76E9EC071F0AB
:100830009FC072F00001711F721F714B722B00017B
:10084000A051000171270001A1510001722309008C
:10085000F5500001715D0900F55000017259D8B0E2
:1008600025D06AC066F06BC067F06CC068F06DC0E0
:1008700069F0B8EC0EF000016E51020DF35039EC46
:100880000FF000016E51020D6FC0D9FF70C0DAFF8A
:10089000F350DF266AC062F06BC063F06CC064F096
:1008A0006DC065F0BEEC0CF0020E12000D0EF66E7F
:1008B000030EF76E0001A2510900F55C0001A3517F
:1008C0000900F558D8B06DD00D0EF66E030EF76E18
:1008D0000001A4510900F55C0001A5510900F5587B
:1008E000D8B05FD00F0EF66E030EF76E20EEA4F0B8
:1008F000DECF71F0DDCF72F00001711F721F714BFE
:10090000722B0001A251000171270001A3510001C7
:1009100072230900F5500001715D0900F5500001D6
:100920007259D8A01FD00F0EF66E030EF76EA2C03C
:1009300071F0A3C072F00001711F721F714B722B16
:100940000001A451000171270001A551000172238B
:100950000900F5500001715D0900F5500001725960
:10096000D8B01FD06AC066F06BC067F06CC068F08A
:100970006DC069F0B8EC0EF0030E1DEC0FF06FC007
:10098000D9FF70C0DAFF00016E51DF266AC062F045
:100990006BC063F06CC064F06DC065F0BEEC0CF031
:1009A00083D70D0EF66E030EF76E0001A6510900F7
:1009B000F55C0001A7510900F558D8B059D00D0ECB
:1009C000F66E030EF76E0001A8510900F55C0001F8
:1009D000A9510900F558D8B04BD00F0EF66E030E92
:1009E000F76E20EEA8F0DECF71F0DDCF72F00001DF
:1009F000711F721F714B722B0001A65100017127EC
:100A00000001A751000172230900F5500001715D3A
:100A10000900F55000017259D8A01FD00F0EF66ED4
:100A2000030EF76EA6C071F0A7C072F00001711F2F
:100A3000721F714B722B0001A85100017127000138
:100A4000A951000172230900F5500001715D0900F0
:100A5000F55000017259D8B00BD06AC062F06BC07B
:100A600063F06CC064F06DC065F0BEEC0CF01CD798
:100A700000019E510001A05D00019F510001A1599C
:100A8000D8B025D06AC066F06BC067F06CC068F063
:100A90006DC069F0B8EC0EF000016E51030DF3501B
:100AA00039EC0FF000016E51030D6FC0D9FF70C01B
:100AB000DAFFF350DF266AC062F06BC063F06CC0EF
:100AC00064F06DC065F0BEEC0CF0000E1200000189
:100AD000A8510001A65D0001A9510001A759D8B095
:100AE00020D06AC066F06BC067F06CC068F06DC063
:100AF00069F091EC0EF000016E5139EC0FF06FC00F
:100B0000D9FF70C0DAFF00016E51DF5E6AC062F08B
:100B10006BC063F06CC064F06DC065F0BEEC0CF0AF
:100B2000D4D70001A05100019E5D0001A151000138
:100B30009F59D8B043D00001A2510001A45D00012B
:100B4000A3510001A559D8B039D06AC066F06BC076
:100B500067F06CC068F06DC069F0B8EC0EF0000191
:100B60006E51030DF3CF2AF0F4CF2BF0000E2D6E53
:100B7000020E2C6E4DEC0DF02A5039EC0FF00001F6
:100B80006E51030DF3CF2AF0F4CF2BF0000E2D6E33
:100B9000020E2C6E4DEC0DF06FC0D9FF70C0DAFF65
:100BA0002A50DF266AC062F06BC063F06CC064F04C
:100BB0006DC065F0BEEC0CF0010E12000001A651F4
:100BC0000001A85D0001A7510001A959D8B03AD091
:100BD0000001A4510001A25D0001A5510001A3592B
:100BE000D8B030D06AC066F06BC067F06CC068F0F7
:100BF0006DC069F0B8EC0EF06EC02AF02B6A000EE2
:100C00002D6E020E2C6E4DEC0DF02A5039EC0FF0CB
:100C10006EC02AF02B6A000E2D6E020E2C6E4DEC6B
:100C20000DF06FC0D9FF70C0DAFF2A50DF266AC00E
:100C300062F06BC063F06CC064F06DC065F0BEEC38
:100C40000CF0BAD7000E1200000E0101D46F000E96
:100C50000101D36F000E0101D56F060E0101D26FA5
:100C6000F28EF28CF28CD08E9F9A9D8A9486F288B6
:100C70009E9AF292000E0101D66F010E0101D76F0C
:100C8000790E0101D86F0F0E0101D96F780E0101A5
:100C9000DA6F0F0E0101DB6F000E0101DC6F000E39
:100CA0000101DE6FC70EDD6F000E0101DF6F010E67
:100CB0000101E06F770E0101E16F0F0E0101E26F9C
:100CC000760E0101E36F0F0E0101E46F020E0101C8
:100CD000E56F000E0101E76FC70EE66F720ED36E6F
:100CE000D3B4D0D1FDD7D60E0001626F010E000142
:100CF000636FDF0E0001646F010E0001656FBEECD3
:100D00000CF0000E0101E86F010E8AEC0FF0780E76
:100D10002A6E030E2B6E39EC0EF0020E8AEC0FF0E9
:100D2000690E2A6E030E2B6E39EC0EF0ABD171EC0E
:100D30000FF07EEC00F006EC0CF06DEC00F0010E14
:100D4000246E000ECFEC0FF0010E246E010ECFECDE
:100D50000FF0D60E0001626F010E0001636FDF0E0F
:100D60000001646F010E0001656F01EC0EF0010ED1
:100D700039EC0FF086D1010E8AEC0FF0480E2A6E86
:100D8000030E2B6E39EC0EF00101D329D8A42ED01E
:100D9000D60E0001626F010E0001636FDF0E0001CD
:100DA000646F010E0001656F01EC0EF00101D2517C
:100DB00039EC0FF0D60E0001626F010E0001636F77
:100DC000DF0E0001646F010E0001656FBEEC0CF0D8
:100DD000000E0101D36F0101D551010D000EF32466
:100DE000D96E010EF420DA6E000E27D10101D35125
:100DF0000101D8A41ED0D60E00016A6F010E0001B9
:100E00006B6FDF0E00016C6F010E00016D6FD2C1C0
:100E10006EF00101D551010D640EF32400016F6FD6
:100E2000010EF4200001706FCAEC01F00101D36FD4
:100E30002ED00101D305D8A423D0D60E00016A6FAD
:100E4000010E00016B6FDF0E00016C6F010E0001DF
:100E50006D6FD50E00016E6F010E00016F6F640E95
:100E60000001706F010E0001716F000E0001726FC2
:100E7000010E0001736F53EC08F00101D36FDED057
:100E8000020E0101D319D8A4D9D0020E3B6E010184
:100E9000D551010D000EF324D96E010EF420DA6E47
:100EA000010ECBD00101E851D8B49CD0D60E000180
:100EB000626F010E0001636FDF0E0001646F010EAF
:100EC0000001656FBEEC0CF0030E0101F819D8A407
:100ED00002D0010E01D0000E0001AA6F020E010126
:100EE000E919D8A402D0010E01D0000E0001AA1504
:100EF000E8A0C8D0E90E246E010E256E64EC0CF05B
:100F00000009D8B441D0000E0101D46F090E0101CF
:100F1000D46501D020D00101D4510001AA6FAB6B80
:100F2000010E0001AA27000EAB23E90E0001AA253D
:100F3000D96E010E0001AB21DA6E0101D451010D11
:100F4000C80EF324E16E010EF420E26EDFCFE7FF5E
:100F50000101D42BDBD7000E0101D46F0F0E01016C
:100F6000D46501D00ED00101D451010DE90EF32456
:100F7000D96E010EF420DA6E000EDF6E0101D42B63
:100F8000EDD7030E3B6E7ED0D60E0001666F010ECC
:100F90000001676FDF0E0001686F010E0001696FCD
:100FA00000EC0FF0050E39EC0FF0D60E0001626F69
:100FB000010E0001636FDF0E0001646F010E00017E
:100FC000656FBEEC0CF0D60E0001626F010E0001E1
:100FD000636FDF0E0001646F010E0001656F01ECAD
:100FE0000EF050D0010E0101D36F010E3B6ED60EF4
:100FF0000001626F010E0001636FDF0E0001646F7C
:10100000010E0001656F01EC0EF0050E39EC0FF0DA
:101010000101D551010D000EF324D96E010EF4200B
:10102000DA6E000EDF6E0101D551010D640EF3245E
:10103000D96E010EF420DA6E050EDF6E0101D52B9C
:1010400021D0010E8AEC0FF0250E2A6E030E2B6EB6
:1010500039EC0EF0020E8AEC0FF0370E2A6E030EFA
:101060002B6E39EC0EF0D60E0001626F010E0001FE
:10107000636FDF0E0001646F010E0001656FBEEC4F
:101080000CF03B683B50000AD8B451D6010AD8B4E2
:1010900072D6030AD8B406D7010AD8B4D2D7FC0A4C
:1010A000D8B421D6EFD7ACC09EF0ADC09FF0AEC093
:1010B000A0F0AFC0A1F0C8EC0DF024C09EF025C098
:1010C0009FF08FEC0DF024C0A0F025C0A1F0000E21
:1010D000696E000E686E000E676E000E666E000E82
:1010E000286E010EA2EC0FF0210EE82EFED700F0C4
:1010F000000E286E020EA2EC0FF0060E0001746FB7
:10110000300EE82EFED7742FFCD700D0010E8AECEB
:101110000FF0590E2A6E030E2B6E39EC0EF0020EF4
:101120008AEC0FF0760E306E000E316E860E326E47
:10113000030E336E9EC034F09FC035F0A0C036F071
:10114000A1C037F04EEC0AF0760E2A6E000E2B6E20
:1011500039EC0EF000019E510001A0250001746FD2
:1011600000019F510001A1210001756F0B0EF66E69
:10117000030EF76E000174510900F55C0001755112
:101180000900F558D8B0F8D00D0EF66E030EF76EC4
:1011900000019E510900F55C00019F510900F558BE
:1011A000D8B050D00D0EF66E030EF76E0001A051B0
:1011B0000900F55C0001A1510900F558D8B042D0F2
:1011C0000F0EF66E030EF76E20EEA0F0DECF74F079
:1011D000DDCF75F00001741F751F744B752B000176
:1011E0009E510001742700019F51000175230900E1
:1011F000F5500001745D0900F55000017559D8A043
:101200001FD00F0EF66E030EF76E9EC074F09FC0D7
:1012100075F00001741F751F744B752B0001A051F0
:10122000000174270001A151000175230900F55048
:101230000001745D0900F55000017559D8B002D065
:10124000020E120000019E510001A05D00019F519D
:101250000001A159D8A03AD06AC062F06BC063F017
:101260006CC064F06DC065F0BEEC0CF06AC066F056
:101270006BC067F06CC068F06DC069F0B8EC0EF040
:10128000030E39EC0FF06AC062F06BC063F06CC003
:1012900064F06DC065F0BEEC0CF06EC0D9FF6FC09D
:1012A000DAFFDF500001746F00017451010DF3503B
:1012B00000017025D96EF45000017121DA6E030E21
:1012C000DF6E43D000016E4B6F2B54D000019E5156
:1012D0000001A05D00019F510001A159D8B0DCD0F0
:1012E0006AC062F06BC063F06CC064F06DC065F002
:1012F000BEEC0CF06AC066F06BC067F06CC068F0C2
:101300006DC069F091EC0EF0030E39EC0FF06AC07D
:1013100062F06BC063F06CC064F06DC065F0BEEC51
:101320000CF06EC0D9FF6FC0DAFFDF500001746FA0
:1013300000017451010DF35000017025D96EF45075
:1013400000017121DA6EFD0EBBD76EC0D9FF6FC0F0
:10135000DAFFDF500001746F00017451010DF3508A
:1013600000017225D96EF45000017321DA6E010E6E
:10137000DF6EA8D7010E12006AC062F06BC063F086
:101380006CC064F06DC065F0BEEC0CF000019E51C5
:101390000001A05D00019F510001A159D8A030D0EB
:1013A0006AC066F06BC067F06CC068F06DC069F031
:1013B000B8EC0EF0050E39EC0FF06AC062F06BC0AD
:1013C00063F06CC064F06DC065F0BEEC0CF06EC0F4
:1013D000D9FF6FC0DAFFDF500001746F0001745154
:1013E000010DF35000017025D96EF45000017121F8
:1013F000DA6E050EDF6E39D000016E4B6F2B4AD0CE
:1014000000019E510001A05D00019F510001A15902
:10141000D8B042D06AC066F06BC067F06CC068F0AC
:101420006DC069F091EC0EF0050E39EC0FF06AC05A
:1014300062F06BC063F06CC064F06DC065F0BEEC30
:101440000CF06EC0D9FF6FC0DAFFDF500001746F7F
:1014500000017451010DF35000017025D96EF45054
:1014600000017121DA6EFB0EC5D76EC0D9FF6FC0C7
:10147000DAFFDF500001746F00017451010DF35069
:1014800000017225D96EF45000017321DA6E010E4D
:10149000DF6EB2D7000E1200000E1200340E0001F3
:1014A000606F000E0001616F9DD0250E000166196E
:1014B000D8B409D030C0D9FF31C0DAFF66C0DFFF31
:1014C000304A312A8FD0000E0001626F32C0F6FF21
:1014D00033C0F7FF324A332A0800F5CF66F0000127
:1014E0006651000AD8B48BD0640AD8B403D00D0A70
:1014F000D8A478D060C0D9FF61C0DAFFDECF64F035
:10150000DDCF65F0020E00016027000E61230001AF
:1015100065AF08D0030E000162130001646D651F02
:10152000D8B0652B010E0001666F050E000166192B
:10153000D8B416D000016651020D010EF324F66EE8
:10154000030EF420F76E0900F5500001645D0900F8
:10155000F55000016559D8A003D00001662BE5D7EE
:1015600062C038F0030E3816D8B408D030C0D9FFA6
:1015700031C0DAFF2D0EDF6E304A312A66C063F0CB
:101580002BD000016351020D010EF324F66E030E01
:10159000F420F76E0900F5CF26F00A00F5CF27F00A
:1015A00064C024F065C025F068EC0EF024C02BF078
:1015B00025C02CF0000E2E6E0A0E2D6EDFEC0EF004
:1015C0002B50300F0001666F30C0D9FF31C0DAFFF9
:1015D00066C0DFFF304A312A00016307000163293A
:1015E000D8A4CFD732C0F6FF33C0F7FF324A332A30
:1015F0000800F5CF66F000016651D8A456D730C078
:10160000D9FF31C0DAFF000EDF6E120032C0D9FF01
:1016100033C0DAFFDF50346E3450246E256A20EE7A
:1016200007F03250D9263350DA22DECF26F0DDCF54
:1016300027F0E2EC0FF024C02AF025C02BF0000EBA
:101640002D6E640E2C6E4DEC0DF02AC060F02BC098
:1016500061F020EE01F03250D9263350DA22DF500B
:10166000D8B42ED020EE06F03250D9263350DA22EC
:10167000DF50346E010E356E342A02D0D8903536E4
:10168000342EFCD735508A108A6E20EE07F0325087
:10169000D9263350DA22DECF34F0DDCF35F060C00A
:1016A00036F061C037F0361E371E364A372A3450BE
:1016B00036240001606F355037200001616F14D06F
:1016C00020EE06F03250D9263350DA22DF50346E45
:1016D000010E356E342A02D0D8903536342EFCD720
:1016E0003550FF0A8A148A6E20EE02F03250D92655
:1016F0003350DA22DECF34F0DDCF35F034C0D9FFFD
:1017000035C0DAFF00016045E846FC0BDF6E20EED5
:1017100004F03250D9263350DA22DECF34F0DDCF58
:1017200035F034C0D9FF35C0DAFF60C036F061C093
:1017300037F0060E386E373437323632382EFBD754
:101740003650DF6E1200276E2750246E256A070E72
:10175000D89024362536E82EFBD7070E266E253482
:1017600025322432262EFBD724468B502418FD0B1D
:1017700024188B6E2750246E256A060ED8902436C6
:101780002536E82EFBD7070E266E25342532243267
:10179000262EFBD7244624468B502418FB0B2418F6
:1017A0008B6E2750246E256A050ED8902436253678
:1017B000E82EFBD7070E266E253425322432262E3E
:1017C000FBD78C502418FE0B24188C6E2750246EE7
:1017D000256A243A253AF00E251624500F0B2512BF
:1017E000F00E2416070E266E253425322432262EBE
:1017F000FBD724468C502418FD0B24188C6EF5EC76
:101800000FF0030EE82EFED700F01200929C949089
:101810009492949495909592270E2A6EF50EE82E48
:10182000FED72A2EFCD700F0030EA3EC0BF00D0E12
:101830002A6EFC0EE82EFED72A2EFCD7030EA3EC50
:101840000BF0850EE82EFED700F0030EA3EC0BF094
:10185000210EE82EFED700F0020EA3EC0BF0210EB5
:10186000E82EFED700F0000E286E280EA2EC0FF036
:10187000210EE82EFED700F0000E286E080EA2EC16
:101880000FF0210EE82EFED700F0000E286E010E9C
:10189000A2EC0FF00D0E2A6EFC0EE82EFED72A2EBB
:1018A000FCD7000E286E060EA2EC0FF0210EE82EDB
:1018B000FED700F0000E286E0C0EA2EC0FF0210EE9
:1018C000E82EFED700F01200000E2C6E000E2E6ED9
:1018D000000E2D6E000E2F6E20EE04F02450D9263F
:1018E0002550DA22DF50266E20EE03F02450D92650
:1018F0002550DA22DF50276E2750296E286A26509D
:1019000028242D6E000E29202E6E20EE02F0245089
:10191000D9262550DA22DF502D182C6E050E2F6E99
:10192000090E2F6401D028D02F50266E276A010E91
:101930002626000E272226502424D96E2750252043
:10194000DA6EDF50286E2F50010DF3502424D96E2B
:10195000F4502520DA6EDF50296E29502B6E2A6A4A
:1019600028502A242D6E000E2B202E6E2C502D1860
:101970002C6E020E2F26D4D7010E120028D062C082
:10198000D9FF63C0DAFFDF50D8B405D062C0D9FFF9
:1019900063C0DAFFDF0664C0D9FF65C0DAFFDF503D
:1019A000D8B405D064C0D9FF65C0DAFFDF0662C0D5
:1019B00032F063C033F006EC0BF064C032F065C067
:1019C00033F006EC0BF0210EE82EFED700F062C0DB
:1019D000D9FF63C0DAFFDF50D8A4D1D764C0D9FFE4
:1019E00065C0DAFFDF50D8A4CAD7000120EE01F0AD
:1019F0006251D9266351DA22010EDF6E000120EE1A
:101A000001F06451D9266551DA22010EDF6E120011
:101A1000E9CF07F0EACF08F0E1CF09F0E2CF0AF012
:101A2000D9CF0BF0DACF0CF0F3CF0DF0F4CF0EF0EE
:101A3000F6CF0FF0F7CF10F0F8CF11F0F5CF12F08E
:101A4000F2A20DD03B28D8A403D0010E3B6E03D0E8
:101A50003B50D8A43B68020E55EC0FF0F29212C036
:101A6000F5FF11C0F8FF10C0F7FF0FC0F6FF0EC062
:101A7000F4FF0DC0F3FF0CC0DAFF0BC0D9FF0AC0A2
:101A8000E2FF09C0E1FF08C0EAFF07C0E9FF06C0A6
:101A9000FBFF05C0FAFF3C921100000E2F6E2DAE29
:101AA00006D02C6C2D1ED8B02D2A010E2F6E2BAE19
:101AB00006D02A6C2B1ED8B02B2A010E2F1A000E2E
:101AC000316E000E306E2C502D10D8B41CD0010E8B
:101AD0002E6E04D0D8902C362D362E2A2DAEFAD765
:101AE000D890303631362C502A5C2D502B58D8A047
:101AF00005D02C502A5E2D502B5A3080D8902D3294
:101B00002C322E2EEDD72F50D8B404D0306C311E8D
:101B1000D8B0312A30C02AF031C02BF01200000EAC
:101B20002A6E000E296E000E2B6E000E2B6E030E19
:101B30002B6401D01ED06950266E276A070ED890FC
:101B400026362736E82EFBD768CF28F0D8902832E3
:101B500028502612000E27122650292627502A2206
:101B6000820E266EDE0EE82EFED7262EFCD72B2AFE
:101B7000DED729C026F02AC027F0D8902732263297
:101B8000D8902732263226C024F027C025F0120034
:101B9000000E2A6E000E296E000E2B6E000E2B6EAC
:101BA000030E2B6401D01ED06750266E276A070EE5
:101BB000D89026362736E82EFBD766CF28F0D89067
:101BC000283228502612000E271226502926275088
:101BD0002A22820E266EDE0EE82EFED7262EFCD797
:101BE0002B2ADED729C026F02AC027F0D89027322A
:101BF0002632D8902732263226C024F027C025F07E
:101C0000120028D062C0D9FF63C0DAFF640EDF6023
:101C100005D062C0D9FF63C0DAFFDF2A64C0D9FFF4
:101C200065C0DAFF640EDF6005D064C0D9FF65C00F
:101C3000DAFFDF2A62C032F063C033F006EC0BF04B
:101C400064C032F065C033F006EC0BF0210EE82ED4
:101C5000FED700F062C0D9FF63C0DAFF630EDF6415
:101C6000D1D764C0D9FF65C0DAFF630EDF64CAD77D
:101C700012001AD0010E286E2AC0F6FF2BC0F7FF03
:101C8000F86A020EF76403D00800F55005D0F6CFCD
:101C9000E1FFF7CFE2FFE750A2EC0FF02A4A2B2A30
:101CA000210EE82EFED700F02AC0F6FF2BC0F7FF6A
:101CB000F86A020EF76403D00800F55005D0F6CF9D
:101CC000E1FFF7CFE2FFE7500009D8B41200D2D706
:101CD000000E296E000E286E26502710D8B41CD096
:101CE000010E2A6E04D0D890263627362A2A27AE2F
:101CF000FAD7D890283629362650245C2750255804
:101D0000D8A005D02650245E2750255A2880D89088
:101D1000273226322A2EEDD728C024F029C025F0FC
:101D2000120066C062F067C063F068C064F069C00A
:101D300065F0BEEC0CF0000120EE01F06651D926F2
:101D40006751DA22010EDF6E000120EE01F06851CA
:101D5000D9266951DA22000EDF6E66C062F067C0D4
:101D600063F068C064F069C065F001EC0EF0120029
:101D700066C062F067C063F068C064F069C065F077
:101D8000BEEC0CF0000120EE01F06651D92667513F
:101D9000DA22000EDF6E000120EE01F06851D92634
:101DA0006951DA22010EDF6E66C062F067C063F02F
:101DB00068C064F069C065F001EC0EF012002D50AF
:101DC0002E10D8B418D0010E2F6E04D0D8902D3616
:101DD0002E362F2A2EAEFAD72D502B5C2E502C5893
:101DE000D8A004D02D502B5E2E502C5AD8902E32D5
:101DF0002D322F2EF1D72BC02BF02CC02CF012003F
:101E0000000120EE01F06651D9266751DA22000E5A
:101E1000DF6E000120EE01F06851D9266951DA2207
:101E2000000EDF6E66C062F067C063F068C064F0E9
:101E300069C065F001EC0EF01200256E000E276EF1
:101E4000000E266E000E276E010E266E09D0820E41
:101E5000246EDE0EE82EFED7242EFCD7264A272A33
:101E60002550140D2650F35C2750F458D8A01200CA
:101E7000EED7256E000E276E000E266E000E276E22
:101E8000010E266E09D0820E246EDE0EE82EFED7DD
:101E9000242EFCD7264A272A2550020D2650F35C13
:101EA0002750F458D8A01200EED7026E000E046E30
:101EB000000E036E000E046E010E036E09D0820E3A
:101EC000016EDE0EE82EFED7012EFCD7034A042A4F
:101ED0000250020D0350F35C0450F458D8A01200D5
:101EE000EED7000E7F6E800E7E6E6F0E6F6E000E50
:101EF0006E6EC70E7B6E000E7A6E000E796E000E4F
:101F0000786E000E776E000E766E93909392939497
:101F1000939612002A6E2A04D8A406D0000E286ECA
:101F2000800EA2EC0FF009D0020E2A18D8A405D01A
:101F3000000E286EC00EA2EC0FF0210EE82EFED788
:101F400000F01200296E28B002D0899C01D0898C43
:101F500029380F0B0F0BA3EC0BF0060EE82EFED763
:101F600000D029500F0BA3EC0BF0210EE82EFED76A
:101F700000F0120001EEE8F0110EEE6AE806FDE155
:101F800000EEACF0100EEE6AE806FDE13B6A3A6A3C
:101F90003C903C92000EF86E000124EF06F0256E96
:101FA0002550D8A406D024B002D08D9001D08D80C9
:101FB00012002504D8A4120024B002D08D9201D0C2
:101FC0008D82120024502602F3CF28F0F4CF29F09E
:101FD00024502702F350292625502602F3502926A3
:101FE00028C024F029C025F012008B80030EE82EB3
:081FF000FED700F08B901200F7
:020000040020DA
:08000000FFFFFFFFFFFFFFFF00
:020000040030CA
:0E000000FFC80F3E3C9D85FF0FC00FE00F4074
:00000001FF
