:0400000054EF00F0C9
:100008003782FACF01F0FBCF02F0E9CF03F0EACF55
:1000180004F0E1CF05F0E2CF06F0D9CF07F0DACF50
:1000280008F0F3CF09F0F4CF0AF0F6CF0BF0F7CFD2
:100038000CF0F8CF0DF0F5CF0EF09EAA13D0365085
:10004800010D800EF324D96E000EF420DA6EAECFC7
:10005800DFFF0F0E3618D8A403D0000E366E01D07D
:10006800362A9E9A0EC0F5FF0DC0F8FF0CC0F7FFA8
:100078000BC0F6FF0AC0F4FF09C0F3FF08C0DAFF9F
:1000880007C0D9FF06C0E2FF05C0E1FF04C0EAFFD0
:1000980003C0E9FF02C0FBFF01C0FAFF379211005D
:1000A80015EF04F0000E00016D6F000E00016C6F7B
:1000B800000E00016B6F000E6A6FF28ED08EF28C0C
:1000C800F288F28C9F8A9D8A000E00016E6F010EE5
:1000D80000016F6F790E0001706F0F0E0001716FD4
:1000E800780E0001726F0F0E0001736F000E000191
:1000F800746F000E0001766FC70E756F000E000159
:10010800776F010E0001786F770E0001796F0F0E7F
:1001180000017A6F760E00017B6F0F0E00017C6F75
:10012800020E00017D6F000E00017F6FC70E7E6F0B
:10013800720ED36ED3B472D0FDD7C6EC03F005ECC3
:1001480004F023EC04F0010E00016C6F67D06E0E12
:100158002F6E000E306E770E316E000E326E030E6B
:10016800336EB9EC01F0040E8EEC03F057D0030E99
:1001780000018F19D8A402D0010E01D0000E346EF0
:10018800020E00018019D8A402D0010E01D0000E81
:100198003414E8A043D0800E0F6E000E106E28ECC9
:1001A80002F00009D8B43AD0000E00016D6F090EB4
:1001B80000016D6501D01CD000016D51346E356AA7
:1001C800010E3426000E3522800E3424D96E000E1E
:1001D8003520DA6E00016D51010D600EF324E16ED9
:1001E800000EF420E26EDFCFE7FF00016D2BDFD7B2
:1001F800000E00016D6F0F0E00016D6501D00ED06D
:1002080000016D51010D800EF324D96E000EF4200B
:10021800DA6E000EDF6E00016D2BEDD700016C5118
:10022800000AD8B48AD7010AD8B491D7030AD8B437
:100238009ED7010AF3D71DC0D9FF1EC0DAFFDF50D1
:100248001F6E1F500F6E106A20EE07F01D50D92642
:100258001E50DA22DECF11F0DDCF12F0DFEC03F012
:100268000FC015F010C016F0000E186E640E176E51
:10027800CAEC02F015C024F016C025F020EE01F0FB
:100288001D50D9261E50DA22DF50D8B42CD020EECB
:1002980006F01D50D9261E50DA22DF501F6E010EBF
:1002A800206E1F2A02D0D89020361F2EFCD720504F
:1002B8008A108A6E20EE07F01D50D9261E50DA22C9
:1002C800DECF1FF0DDCF20F024C021F025C022F0C2
:1002D800211E221E214A222A1F502124246E20502A
:1002E8002220256E14D020EE06F01D50D9261E506F
:1002F800DA22DF501F6E010E206E1F2A02D0D8901E
:1003080020361F2EFCD72050FF0A8A148A6E20EE52
:1003180002F01D50D9261E50DA22DECF1FF0DDCFA5
:1003280020F01FC0D9FF20C0DAFF2444E846FC0BA8
:10033800DF6E20EE04F01D50D9261E50DA22DECFE3
:100348001FF0DDCF20F01FC0D9FF20C0DAFF24C086
:1003580021F025C022F0060E236E223422322132EB
:10036800232EFBD72150DF6E1200010E0F6E000EF8
:10037800F2EC03F0010E0F6E010EF2EC03F02FC049
:1003880026F030C027F031C028F032C029F082ECC6
:1003980002F03350AAEC03F02FC02BF030C02CF041
:1003A80031C02DF032C02EF069EC03F03350AAECC6
:1003B80003F02FC026F030C027F031C028F032C03B
:1003C80029F082EC02F03350AAEC03F02FC02BF096
:1003D80030C02CF031C02DF032C02EF044EC03F0C8
:1003E8003350020DF350AAEC03F02FC026F030C0B2
:1003F80027F031C028F032C029F082EC02F03350E7
:10040800AAEC03F02FC02BF030C02CF031C02DF037
:1004180032C02EF069EC03F03350AAEC03F02FC081
:1004280026F030C027F031C028F032C029F082EC25
:1004380002F0000E0F6E000EF2EC03F0000E0F6ECD
:10044800010EF2EC03F01200000E176E000E196E8A
:10045800000E186E000E1A6E20EE04F00F50D9260A
:100468001050DA22DF50116E20EE03F00F50D9261B
:100478001050DA22DF50126E1250146E136A1150A7
:100488001324186E000E1420196E20EE02F00F507F
:10049800D9261050DA22DF501818176E050E1A6E7A
:1004A800090E1A6401D028D01A50116E126A010E72
:1004B8001126000E122211500F24D96E125010204E
:1004C800DA6EDF50136E1A50010DF3500F24D96EF7
:1004D800F4501020DA6EDF50146E1450166E156A40
:1004E80013501524186E000E1620196E1750181880
:1004F800176E020E1A26D4D7010E120028D026C075
:10050800D9FF27C0DAFFDF50D8B405D026C0D9FFFD
:1005180027C0DAFFDF0628C0D9FF29C0DAFFDF507D
:10052800D8B405D028C0D9FF29C0DAFFDF0626C015
:100538001DF027C01EF01FEC01F028C01DF029C0D7
:100548001EF01FEC01F0210EE82EFED700F026C0A9
:10055800D9FF27C0DAFFDF50D8A4D1D728C0D9FFE8
:1005680029C0DAFFDF50D8A4CAD720EE01F0265000
:10057800D9262750DA22010EDF6E20EE01F028502E
:10058800D9262950DA22010EDF6E1200000E1A6EEB
:1005980018AE06D0176C181ED8B0182A010E1A6E9D
:1005A80016AE06D0156C161ED8B0162A010E1A1AE9
:1005B800000E1C6E000E1B6E17501810D8B41CD0FD
:1005C800010E196E04D0D89017361836192A18AEAD
:1005D800FAD7D8901B361C361750155C1850165889
:1005E800D8A005D01750155E1850165A1B80D89001
:1005F80018321732192EEDD71A50D8B404D01B6C04
:100608001C1ED8B01C2A1BC015F01CC016F0120006
:1006180028D026C0D9FF27C0DAFF640EDF6005D0D6
:1006280026C0D9FF27C0DAFFDF2A28C0D9FF29C092
:10063800DAFF640EDF6005D028C0D9FF29C0DAFFD1
:10064800DF2A26C01DF027C01EF01FEC01F028C0CD
:100658001DF029C01EF01FEC01F0210EE82EFED778
:1006680000F026C0D9FF27C0DAFF630EDF64D1D7B8
:1006780028C0D9FF29C0DAFF630EDF64CAD7120089
:100688002BC026F02CC027F02DC028F02EC029F052
:1006980082EC02F020EE01F02B50D9262C50DA2201
:1006A800010EDF6E20EE01F02D50D9262E50DA22F1
:1006B800000EDF6E2BC026F02CC027F02DC028F0CE
:1006C8002EC029F00CEC03F012002BC026F02CC031
:1006D80027F02DC028F02EC029F082EC02F020EE81
:1006E80001F02B50D9262C50DA22000EDF6E20EEB6
:1006F80001F02D50D9262E50DA22010EDF6E2BC0C4
:1007080026F02CC027F02DC028F02EC029F00CECC4
:1007180003F01200106E000E126E000E116E000E25
:10072800126E010E116E09D0820E0F6EDE0EE82ECB
:10073800FED70F2EFCD7114A122A1050140D115053
:10074800F35C1250F458D8A01200EED7106E000EC9
:10075800126E000E116E000E126E010E116E09D08F
:10076800820E0F6EDE0EE82EFED70F2EFCD7114A32
:10077800122A1050020D1150F35C1250F458D8A0F0
:100788001200EED7000E7F6E800E7E6E6F0E6F6EBB
:10079800000E6E6EC70E7B6E000E7A6E000E796EBE
:1007A800000E786E000E776E000E766E9390939220
:1007B8009394939612000F501102F3CF13F0F4CFD5
:1007C80014F00F501202F350142610501102F35077
:1007D800142613C00FF014C010F01200106E105041
:1007E800D8A406D00FB002D08D9001D08D80120011
:1007F8001004D8A412000FB002D08D9201D08D82BF
:100808001200010E0F6E94500FC094FFCD0EAF6E04
:10081800000EB06EAA86AC84AB88AB8EAC98AB9C4D
:10082800120000EE80F0100EEE6AE806FDE1366A6E
:1008380037903792000EF86E000156EF00F0899459
:100848009284B894060E636E96909692590EB76E7F
:0208580012008C
:020000040020DA
:08000000FFFFFFFFFFFFFFFF00
:020000040030CA
:0E000000FFC80F3E3C9D85FF0FC00FE00F4074
:00000001FF
