:040000006BEF00F0B2
:0E0008003C82FACF05F0FBCF06F03BEF0CF088
:100018003C80D8CF13F0E8CF14F0E0CF15F0FACF3A
:1000280016F0FBCF17F0E9CF18F0EACF19F0E1CFBF
:100038001AF0E2CF1BF0D9CF1CF0DACF1DF0F3CFC6
:100048001EF0F4CF1FF0F6CF20F0F7CF21F0F8CF55
:1000580022F0F5CF23F09EAA16D03A50010DE90EF2
:10006800F324D96E010EF420DA6EAECFDFFF010E55
:100078000101E86F0F0E3A18D8A403D0000E3A6EAB
:1000880001D03A2A9E9A23C0F5FF22C0F8FF21C06A
:10009800F7FF20C0F6FF1FC0F4FF1EC0F3FF1DC00E
:1000A800DAFF1CC0D9FF1BC0E2FF1AC0E1FF19C06C
:1000B800EAFF18C0E9FF17C0FBFF16C0FAFF15C01A
:1000C800E0FF14C0E8FF13C0D8FF3C901000D1EF48
:0200D8000EF028
:100300000001000A006400E8031027F401D007E8A8
:1003100003202020202020466F756E6420426F6DE0
:10032000622100202020202020476F696E6720482E
:100330006F6D6500202020202020205365617263AE
:1003400068696E67002020202020202020546F2024
:10035000476F21002020202020202020526561644A
:100360007900202020202025642C20256400000016
:10037000A8C076F0A9C077F0AAC078F0ABC079F039
:10038000ACC07AF0ADC07BF0AEC07CF0AFC07DF009
:10039000B0C07EF0B1C07FF0B2C080F0B3C081F0D9
:1003A000000E0001736F000E0001746F000E00015B
:1003B000756F6AC062F06BC063F06CC064F06DC0B2
:1003C00065F0F1EC0BF0FBEC0CF024C07AF025C0EA
:1003D0007BF0C2EC0CF024C07CF025C07DF0000E58
:1003E000696E000E686E000E676E000E666E6AC063
:1003F00066F06BC067F06CC068F06DC069F0EBEC44
:100400000DF000016E5150EC0EF06FC0D9FF70C0BE
:10041000DAFF00016E51DF266AC062F06BC063F044
:100420006CC064F06DC065F0F1EC0BF0FBEC0CF00F
:1004300024C076F025C077F0C2EC0CF024C078F030
:1004400025C079F0000E696E000E686E000E676EB2
:10045000000E666E6AC066F06BC067F06CC068F034
:100460006DC069F0C4EC0DF000016E51020DF35047
:1004700050EC0EF000016E51020D6FC0D9FF70C03C
:10048000DAFFF350DF5E6AC062F06BC063F06CC0ED
:1004900064F06DC065F0F1EC0BF0FBEC0CF024C0E7
:1004A0007EF025C07FF0C2EC0CF024C080F025C0A7
:1004B00081F0000E696E000E686E000E676E000E11
:1004C000666E0B0EF66E030EF76E0001765100019C
:1004D00078250001716F0001775100017921000139
:1004E000726F0900F5500001715D0900F5500001BF
:1004F0007259D8B00DD0000E0001776F000E766FE4
:10050000000E0001796F000E786F010E0001736F0D
:100510000B0EF66E030EF76E00017A5100017C257A
:100520000001716F00017B5100017D210001726F9C
:100530000900F5500001715D0900F5500001725984
:10054000D8B00DD0000E00017B6F000E7A6F000E48
:1005500000017D6F000E7C6F010E0001746F0B0EA9
:10056000F66E030EF76E00017E510001802500013A
:10057000716F00017F51000181210001726F09003C
:10058000F5500001715D0900F55000017259D8B0B5
:100590000DD0000E00017F6F000E7E6F000E000177
:1005A000816F000E806F010E0001756F00017451A4
:1005B00073C071F00001726B00017127000E72238D
:1005C0000001755100017127000E7223030E000116
:1005D000711900017211D8A425D06AC066F06BC0F1
:1005E00067F06CC068F06DC069F0EBEC0DF00001D5
:1005F0006E51050DF35050EC0EF000016E51050DDB
:100600006FC0D9FF70C0DAFFF350DF266AC062F016
:100610006BC063F06CC064F06DC065F0F1EC0BF082
:10062000FF0E12000D0EF66E030EF76E00017651EE
:100630000900F55C000177510900F558D8B073D076
:100640000D0EF66E030EF76E000178510900F55C91
:10065000000179510900F558D8B065D00F0EF66E3B
:10066000030EF76E20EE78F0DECF71F0DDCF72F082
:100670000001711F721F714B722B00017651000136
:10068000712700017751000172230900F550000124
:10069000715D0900F55000017259D8A01FD00F0EEE
:1006A000F66E030EF76E76C071F077C072F000013F
:1006B000711F721F714B722B00017851000171275D
:1006C00000017951000172230900F5500001715DAC
:1006D0000900F55000017259D8B025D06AC066F003
:1006E0006BC067F06CC068F06DC069F0EBEC0DF0AA
:1006F00000016E51020DF35050EC0EF000016E51EE
:10070000020D6FC0D9FF70C0DAFFF350DF266AC058
:1007100062F06BC063F06CC064F06DC065F0F1EC2A
:100720000BF0020E12000D0EF66E030EF76E0001B6
:100730007A510900F55C00017B510900F558D8B0E9
:100740006ED00D0EF66E030EF76E00017C5109009F
:10075000F55C00017D510900F558D8B060D00F0E4E
:10076000F66E030EF76E20EE7CF0DECF71F0DDCF7B
:1007700072F00001711F721F714B722B00017A51D0
:100780000001712700017B51000172230900F5501F
:100790000001715D0900F55000017259D8A01FD009
:1007A0000F0EF66E030EF76E7AC071F07BC072F01A
:1007B0000001711F721F714B722B00017C510001EF
:1007C000712700017D51000172230900F5500001DD
:1007D000715D0900F55000017259D8B020D06AC08F
:1007E00066F06BC067F06CC068F06DC069F0EBEC50
:1007F0000DF000016E5150EC0EF06FC0D9FF70C0CB
:10080000DAFF00016E51DF266AC062F06BC063F050
:100810006CC064F06DC065F0F1EC0BF082D70D0E8A
:10082000F66E030EF76E00017E510900F55C0001C3
:100830007F510900F558D8B059D00D0EF66E030E51
:10084000F76E000180510900F55C0001815109003B
:10085000F558D8B04BD00F0EF66E030EF76E20EEA3
:1008600080F0DECF71F0DDCF72F00001711F721FDA
:10087000714B722B00017E510001712700017F51E5
:10088000000172230900F5500001715D0900F55067
:1008900000017259D8A01FD00F0EF66E030EF76E2E
:1008A0007EC071F07FC072F00001711F721F714B2A
:1008B000722B00018051000171270001815100015C
:1008C00072230900F5500001715D0900F550000127
:1008D0007259D8B00BD06AC062F06BC063F06CC0C4
:1008E00064F06DC065F0F1EC0BF01BD700017651A0
:1008F0000001785D0001775100017959D8B025D009
:100900006AC066F06BC067F06CC068F06DC069F0DB
:10091000EBEC0DF000016E51030DF35050EC0EF0B6
:1009200000016E51030D6FC0D9FF70C0DAFFF350A4
:10093000DF266AC062F06BC063F06CC064F06DC00B
:1009400065F0F1EC0BF0000E120000018051000187
:100950007E5D0001815100017F59D8B020D06AC06E
:1009600066F06BC067F06CC068F06DC069F0C4ECF5
:100970000DF000016E5150EC0EF06FC0D9FF70C049
:10098000DAFF00016E51DF5E6AC062F06BC063F097
:100990006CC064F06DC065F0F1EC0BF0D4D70001D1
:1009A00078510001765D0001795100017759D8B086
:1009B00043D000017A5100017C5D00017B510001B0
:1009C0007D59D8B039D06AC066F06BC067F06CC092
:1009D00068F06DC069F0EBEC0DF000016E51030D95
:1009E000F3CF2AF0F4CF2BF0000E2D6E020E2C6EFA
:1009F00080EC0CF02A5050EC0EF000016E51030D0B
:100A0000F3CF2AF0F4CF2BF0000E2D6E020E2C6ED9
:100A100080EC0CF06FC0D9FF70C0DAFF2A50DF26DF
:100A20006AC062F06BC063F06CC064F06DC065F0CA
:100A3000F1EC0BF0010E120000017E510001805D0F
:100A400000017F5100018159D8B03AD000017C519A
:100A500000017A5D00017D5100017B59D8B030D092
:100A60006AC066F06BC067F06CC068F06DC069F07A
:100A7000EBEC0DF06EC02AF02B6A000E2D6E020E0C
:100A80002C6E80EC0CF02A5050EC0EF06EC02AF068
:100A90002B6A000E2D6E020E2C6E80EC0CF06FC0D7
:100AA000D9FF70C0DAFF2A50DF266AC062F06BC03F
:100AB00063F06CC064F06DC065F0F1EC0BF0BAD778
:100AC000000E1200000E0101D46F000E0101D36F61
:100AD000000E0101D56F060E0101D26F2BEC0FF055
:100AE000000E0101D66F010E0101D76F790E0101D1
:100AF000D86F0F0E0101D96F780E0101DA6F0F0E5A
:100B00000101DB6F000E0101DC6F000E0101DE6FE1
:100B1000C70EDD6F000E0101DF6F010E0101E06FF6
:100B2000770E0101E16F0F0E0101E26F760E0101F8
:100B3000E36F0F0E0101E46F020E0101E56F000E7D
:100B40000101E76FC70EE66F720ED36ED3B4CDD13D
:100B5000FDD7D60E0001626F010E0001636FDF0E3C
:100B60000001646F010E0001656FF1EC0BF0010EE6
:100B7000A1EC0EF0540E2A6E030E2B6E6CEC0DF0F1
:100B8000020EA1EC0EF0450E2A6E030E2B6E6CECDD
:100B90000DF0ABD188EC0EF01DEC0FF039EC0BF042
:100BA0000CEC0FF0010E246E000EE6EC0EF0010EC0
:100BB000246E010EE6EC0EF0D60E0001626F010EFF
:100BC0000001636FDF0E0001646F010E0001656FAD
:100BD00034EC0DF0010E50EC0EF03B6886D1010EA6
:100BE000A1EC0EF0340E2A6E030E2B6E6CEC0DF0A1
:100BF0000101D329D8A42ED0D60E0001626F010EB8
:100C00000001636FDF0E0001646F010E0001656F6C
:100C100034EC0DF00101D25150EC0EF0D60E000173
:100C2000626F010E0001636FDF0E0001646F010E41
:100C30000001656FF1EC0BF0000E0101D36F0101B3
:100C4000D551010D000EF324D96E010EF420DA6E99
:100C5000000E27D10101D3510101D8A41ED0D60E18
:100C600000016A6F010E00016B6FDF0E00016C6FF7
:100C7000010E00016D6FD2C16EF00101D551010D61
:100C8000640EF32400016F6F010EF4200001706FF9
:100C9000B8EC01F00101D36F2ED00101D305D8A427
:100CA00023D0D60E00016A6F010E00016B6FDF0EBC
:100CB00000016C6F010E00016D6FD50E00016E6FAB
:100CC000010E00016F6F640E0001706F010E0001D4
:100CD000716F000E0001726F010E0001736F86ECE0
:100CE00007F00101D36FDED0020E0101D319D8A4A1
:100CF000D9D0020E3B6E0101D551010D000EF32437
:100D0000D96E010EF420DA6E010ECBD00101E8514C
:100D1000D8B49CD0D60E0001626F010E0001636F43
:100D2000DF0E0001646F010E0001656FF1EC0BF046
:100D3000030E0101F819D8A402D0010E01D0000E53
:100D40000001A26F020E0101E919D8A402D0010E20
:100D500001D0000E0001A215E8A0C7D0E90E246E54
:100D6000010E256E97EC0BF00009D8B441D0000EAF
:100D70000101D46F090E0101D46501D020D0010119
:100D8000D4510001A26FA36B010E0001A227000E37
:100D9000A323E90E0001A225D96E010E0001A321B3
:100DA000DA6E0101D451010DC80EF324E16E010E7B
:100DB000F420E26EDFCFE7FF0101D42BDBD7000E7A
:100DC0000101D46F0F0E0101D46501D00ED00101D5
:100DD000D451010DE90EF324D96E010EF420DA6E20
:100DE000000EDF6E0101D42BEDD7030E3B6E7DD0DC
:100DF000D60E0001666F010E0001676FDF0E000165
:100E0000686F010E0001696F33EC0EF0050E50ECB7
:100E10000EF0D60E0001626F010E0001636FDF0E4F
:100E20000001646F010E0001656FF1EC0BF0D60E4E
:100E30000001626F010E0001636FDF0E0001646F3D
:100E4000010E0001656F34EC0DF04FD0010E010171
:100E5000D36F010E3B6ED60E0001626F010E0001D2
:100E6000636FDF0E0001646F010E0001656F34ECEB
:100E70000DF0050E50EC0EF00101D551010D000EE4
:100E8000F324D96E010EF420DA6E000EDF6E01013C
:100E9000D551010D640EF324D96E010EF420DA6EE3
:100EA000050EDF6E0101D52B20D0010EA1EC0EF056
:100EB000110E2A6E030E2B6E6CEC0DF0020EA1ECDF
:100EC0000EF0230E2A6E030E2B6E6CEC0DF0D60E78
:100ED0000001626F010E0001636FDF0E0001646F9D
:100EE000010E0001656FF1EC0BF03B50000AD8B425
:100EF00051D6010AD8B473D6030AD8B407D7010A69
:100F0000D8B4D3D7FC0AD8B424D6EFD7A4C09EF067
:100F1000A5C09FF0A6C0A0F0A7C0A1F0FBEC0CF00C
:100F200024C09EF025C09FF0C2EC0CF024C0A0F0BD
:100F300025C0A1F0000E696E000E686E000E676E8F
:100F4000000E666E000E286E010EB9EC0EF0210E3A
:100F5000E82EFED700F0000E286E020EB9EC0EF05F
:100F6000060E0001746F300EE82EFED7742FFCD7EA
:100F700000D0010EA1EC0EF0340E2A6E030E2B6E83
:100F80006CEC0DF0020EA1EC0EF0760E306E000E41
:100F9000316E620E326E030E336E9EC034F09FC00F
:100FA00035F0A0C036F0A1C037F081EC09F0760E24
:100FB0002A6E000E2B6E6CEC0DF000019E510001AC
:100FC000A0250001746F00019F510001A1210001C3
:100FD000756F0B0EF66E030EF76E0001745109006B
:100FE000F55C000175510900F558D8B0F8D00D0E28
:100FF000F66E030EF76E00019E510900F55C0001CC
:101000009F510900F558D8B050D00D0EF66E030E62
:10101000F76E0001A0510900F55C0001A151090023
:10102000F558D8B042D00F0EF66E030EF76E20EED4
:10103000A0F0DECF74F0DDCF75F00001741F751FD6
:10104000744B752B00019E510001742700019F51C4
:10105000000175230900F5500001745D0900F55089
:1010600000017559D8A01FD00F0EF66E030EF76E53
:101070009EC074F09FC075F00001741F751F744B03
:10108000752B0001A051000174270001A15100013E
:1010900075230900F5500001745D0900F550000149
:1010A0007559D8B002D0020E120000019E51000105
:1010B000A05D00019F510001A159D8A03AD06AC09B
:1010C00062F06BC063F06CC064F06DC065F0F1EC71
:1010D0000BF06AC066F06BC067F06CC068F06DC062
:1010E00069F0EBEC0DF0030E50EC0EF06AC062F00C
:1010F0006BC063F06CC064F06DC065F0F1EC0BF098
:101100006EC0D9FF6FC0DAFFDF500001746F0001BD
:101110007451010DF35000017025D96EF450000197
:101120007121DA6E030EDF6E43D000016E4B6F2B20
:1011300054D000019E510001A05D00019F510001AB
:10114000A159D8B0DCD06AC062F06BC063F06CC04B
:1011500064F06DC065F0F1EC0BF06AC066F06BC036
:1011600067F06CC068F06DC069F0C4EC0DF0030E60
:1011700050EC0EF06AC062F06BC063F06CC064F0BB
:101180006DC065F0F1EC0BF06EC0D9FF6FC0DAFFF7
:10119000DF500001746F00017451010DF350000124
:1011A0007025D96EF45000017121DA6EFD0EBBD7A7
:1011B0006EC0D9FF6FC0DAFFDF500001746F00010D
:1011C0007451010DF35000017225D96EF4500001E5
:1011D0007321DA6E010EDF6EA8D7010E12006AC00D
:1011E00062F06BC063F06CC064F06DC065F0F1EC50
:1011F0000BF000019E510001A05D00019F51000114
:10120000A159D8A030D06AC066F06BC067F06CC03E
:1012100068F06DC069F0EBEC0DF0050E50EC0EF0CF
:101220006AC062F06BC063F06CC064F06DC065F0C2
:10123000F1EC0BF06EC0D9FF6FC0DAFFDF50000198
:10124000746F00017451010DF35000017025D96EC7
:10125000F45000017121DA6E050EDF6E39D0000105
:101260006E4B6F2B4AD000019E510001A05D000122
:101270009F510001A159D8B042D06AC066F06BC03E
:1012800067F06CC068F06DC069F0C4EC0DF0050E3D
:1012900050EC0EF06AC062F06BC063F06CC064F09A
:1012A0006DC065F0F1EC0BF06EC0D9FF6FC0DAFFD6
:1012B000DF500001746F00017451010DF350000103
:1012C0007025D96EF45000017121DA6EFB0EC5D77E
:1012D0006EC0D9FF6FC0DAFFDF500001746F0001EC
:1012E0007451010DF35000017225D96EF4500001C4
:1012F0007321DA6E010EDF6EB2D7000E1200000EFF
:101300001200340E0001606F000E0001616F9DD06D
:10131000250E00016619D8B409D030C0D9FF31C0FC
:10132000DAFF66C0DFFF304A312A8FD0000E00019D
:10133000626F32C0F6FF33C0F7FF324A332A08002B
:10134000F5CF66F000016651000AD8B48BD0640A6C
:10135000D8B403D00D0AD8A478D060C0D9FF61C03A
:10136000DAFFDECF64F0DDCF65F0020E000160270A
:10137000000E6123000165AF08D0030E0001621367
:101380000001646D651FD8B0652B010E0001666F0A
:10139000050E00016619D8B416D000016651020D81
:1013A000010EF324F66E030EF420F76E0900F550DB
:1013B0000001645D0900F55000016559D8A003D013
:1013C0000001662BE5D762C038F0030E3816D8B49A
:1013D00008D030C0D9FF31C0DAFF2D0EDF6E304AA1
:1013E000312A66C063F02BD000016351020D010E5B
:1013F000F324F66E030EF420F76E0900F5CF26F005
:101400000A00F5CF27F064C024F065C025F09BECFE
:101410000DF024C02BF025C02CF0000E2E6E0A0E0D
:101420002D6E12EC0EF02B50300F0001666F30C0A5
:10143000D9FF31C0DAFF66C0DFFF304A312A000130
:10144000630700016329D8A4CFD732C0F6FF33C0A9
:10145000F7FF324A332A0800F5CF66F000016651E3
:10146000D8A456D730C0D9FF31C0DAFF000EDF6EE6
:10147000120032C0D9FF33C0DAFFDF50346E34506F
:10148000246E256A20EE07F03250D9263350DA2236
:10149000DECF26F0DDCF27F0F9EC0EF024C02AF0E5
:1014A00025C02BF0000E2D6E640E2C6E80EC0CF01F
:1014B0002AC060F02BC061F020EE01F03250D92636
:1014C0003350DA22DF50D8B42ED020EE06F032505E
:1014D000D9263350DA22DF50346E010E356E342AAD
:1014E00002D0D8903536342EFCD735508A108A6E0B
:1014F00020EE07F03250D9263350DA22DECF34F016
:10150000DDCF35F060C036F061C037F0361E371ED3
:10151000364A372A345036240001606F3550372060
:101520000001616F14D020EE06F03250D9263350FE
:10153000DA22DF50346E010E356E342A02D0D89094
:101540003536342EFCD73550FF0A8A148A6E20EEC9
:1015500002F03250D9263350DA22DECF34F0DDCF1C
:1015600035F034C0D9FF35C0DAFF00016045E846E8
:10157000FC0BDF6E20EE04F03250D9263350DA2215
:10158000DECF34F0DDCF35F034C0D9FF35C0DAFF1F
:1015900060C036F061C037F0060E386E373437322F
:1015A0003632382EFBD73650DF6E1200276E2750AA
:1015B000246E256A070ED89024362536E82EFBD7F0
:1015C000070E266E253425322432262EFBD72446DC
:1015D0008B502418FD0B24188B6E2750246E256A1F
:1015E000060ED89024362536E82EFBD7070E266E39
:1015F000253425322432262EFBD7244624468B5010
:101600002418FB0B24188B6E2750246E256A050EB8
:10161000D89024362536E82EFBD7070E266E2534C3
:1016200025322432262EFBD78C502418FE0B24188A
:101630008C6E2750246E256A243A253AF00E251622
:1016400024500F0B2512F00E2416070E266E25349B
:1016500025322432262EFBD724468C502418FD0B2D
:1016600024188C6E36EC0FF0030EE82EFED700F037
:101670001200929C94909492949495909592270E37
:101680002A6EF50EE82EFED72A2EFCD700F0030EA8
:10169000D6EC0AF00D0E2A6EFC0EE82EFED72A2E8E
:1016A000FCD7030ED6EC0AF0850EE82EFED700F02C
:1016B000030ED6EC0AF0210EE82EFED700F0020E43
:1016C000D6EC0AF0210EE82EFED700F0000E286EB0
:1016D000280EB9EC0EF0210EE82EFED700F0000E19
:1016E000286E080EB9EC0EF0210EE82EFED700F0A1
:1016F000000E286E010EB9EC0EF00D0E2A6EFC0ED7
:10170000E82EFED72A2EFCD7000E286E060EB9EC66
:101710000EF0210EE82EFED700F0000E286E0C0E03
:10172000B9EC0EF0210EE82EFED700F01200000EEC
:101730002C6E000E2E6E000E2D6E000E2F6E20EE03
:1017400004F02450D9262550DA22DF50266E20EEF0
:1017500003F02450D9262550DA22DF50276E275077
:10176000296E286A265028242D6E000E29202E6E00
:1017700020EE02F02450D9262550DA22DF502D1811
:101780002C6E050E2F6E090E2F6401D028D02F501D
:10179000266E276A010E2626000E272226502424B4
:1017A000D96E27502520DA6EDF50286E2F50010D9C
:1017B000F3502424D96EF4502520DA6EDF50296EC0
:1017C00029502B6E2A6A28502A242D6E000E2B20B9
:1017D0002E6E2C502D182C6E020E2F26D4D7010EF3
:1017E000120028D062C0D9FF63C0DAFFDF50D8B43E
:1017F00005D062C0D9FF63C0DAFFDF0664C0D9FF3D
:1018000065C0DAFFDF50D8B405D064C0D9FF65C029
:10181000DAFFDF0662C032F063C033F039EC0AF061
:1018200064C032F065C033F039EC0AF0210EE82EC6
:10183000FED700F062C0D9FF63C0DAFFDF50D8A442
:10184000D1D764C0D9FF65C0DAFFDF50D8A4CAD7AA
:10185000000120EE01F06251D9266351DA22010E17
:10186000DF6E000120EE01F06451D9266551DA22C5
:10187000010EDF6E1200E9CF07F0EACF08F0E1CFEA
:1018800009F0E2CF0AF0D9CF0BF0DACF0CF0F3CFAA
:101890000DF0F4CF0EF0F6CF0FF0F7CF10F0F8CF39
:1018A00011F0F5CF12F0F2A20DD03B28D8A403D04E
:1018B000010E3B6E03D03B50D8A43B68020E6CEC8B
:1018C0000EF0F29212C0F5FF11C0F8FF10C0F7FF42
:1018D0000FC0F6FF0EC0F4FF0DC0F3FF0CC0DAFF1F
:1018E0000BC0D9FF0AC0E2FF09C0E1FF08C0EAFF50
:1018F00007C0E9FF06C0FBFF05C0FAFF3C921100DC
:10190000000E2F6E2DAE06D02C6C2D1ED8B02D2AB9
:10191000010E2F6E2BAE06D02A6C2B1ED8B02B2AB0
:10192000010E2F1A000E316E000E306E2C502D104D
:10193000D8B41CD0010E2E6E04D0D8902C362D3683
:101940002E2A2DAEFAD7D890303631362C502A5C5C
:101950002D502B58D8A005D02C502A5E2D502B5A34
:101960003080D8902D322C322E2EEDD72F50D8B477
:1019700004D0306C311ED8B0312A30C02AF031C0CA
:101980002BF01200000E2A6E000E296E000E2B6E38
:10199000000E2B6E030E2B6401D01ED06950266EF4
:1019A000276A070ED89026362736E82EFBD768CF51
:1019B00028F0D890283228502612000E27122650E0
:1019C000292627502A22820E266EDE0EE82EFED70A
:1019D000262EFCD72B2ADED729C026F02AC027F0D6
:1019E000D89027322632D8902732263226C024F0CB
:1019F00027C025F01200000E2A6E000E296E000E80
:101A00002B6E000E2B6E030E2B6401D01ED0675080
:101A1000266E276A070ED89026362736E82EFBD783
:101A200066CF28F0D890283228502612000E2712B0
:101A30002650292627502A22820E266EDE0EE82EF8
:101A4000FED7262EFCD72B2ADED729C026F02AC0A7
:101A500027F0D89027322632D8902732263226C057
:101A600024F027C025F0120028D062C0D9FF63C03F
:101A7000DAFF640EDF6005D062C0D9FF63C0DAFF11
:101A8000DF2A64C0D9FF65C0DAFF640EDF6005D0CD
:101A900064C0D9FF65C0DAFFDF2A62C032F063C0DC
:101AA00033F039EC0AF064C032F065C033F039EC41
:101AB0000AF0210EE82EFED700F062C0D9FF63C005
:101AC000DAFF630EDF64D1D764C0D9FF65C0DAFFE7
:101AD000630EDF64CAD712001AD0010E286E2AC026
:101AE000F6FF2BC0F7FFF86A020EF76403D0080078
:101AF000F55005D0F6CFE1FFF7CFE2FFE750B9ECA4
:101B00000EF02A4A2B2A210EE82EFED700F02AC01A
:101B1000F6FF2BC0F7FFF86A020EF76403D0080047
:101B2000F55005D0F6CFE1FFF7CFE2FFE75000090F
:101B3000D8B41200D2D7000E296E000E286E26509F
:101B40002710D8B41CD0010E2A6E04D0D8902636A7
:101B500027362A2A27AEFAD7D89028362936265093
:101B6000245C27502558D8A005D02650245E275045
:101B7000255A2880D890273226322A2EEDD728C021
:101B800024F029C025F0120066C062F067C063F03F
:101B900068C064F069C065F0F1EC0BF0000120EE64
:101BA00001F06651D9266751DA22010EDF6E00017D
:101BB00020EE01F06851D9266951DA22000EDF6E5D
:101BC00066C062F067C063F068C064F069C065F029
:101BD00034EC0DF0120066C062F067C063F068C0BC
:101BE00064F069C065F0F1EC0BF0000120EE01F04B
:101BF0006651D9266751DA22000EDF6E000120EE11
:101C000001F06851D9266951DA22010EDF6E66C0F3
:101C100062F067C063F068C064F069C065F034ECDE
:101C20000DF012002D502E10D8B418D0010E2F6ECA
:101C300004D0D8902D362E362F2A2EAEFAD72D501E
:101C40002B5C2E502C58D8A004D02D502B5E2E503B
:101C50002C5AD8902E322D322F2EF1D72BC02BF0AC
:101C60002CC02CF01200000120EE01F06651D926A4
:101C70006751DA22000EDF6E000120EE01F068519C
:101C8000D9266951DA22000EDF6E66C062F067C0A5
:101C900063F068C064F069C065F034EC0DF01200C8
:101CA000256E000E276E000E266E000E276E010EAA
:101CB000266E09D0820E246EDE0EE82EFED7242E6C
:101CC000FCD7264A272A2550020D2650F35C2750C0
:101CD000F458D8A01200EED7026E000E046E000E6B
:101CE000036E000E046E010E036E09D0820E016EAB
:101CF000DE0EE82EFED7012EFCD7034A042A02503E
:101D0000020D0350F35C0450F458D8A01200EED733
:101D1000000E7F6E800E7E6E6F0E6F6E000E6E6E0A
:101D2000C70E7B6E000E7A6E000E796E000E786E16
:101D3000000E776E000E766E939093929394939626
:101D400012002A6E2A04D8A406D0000E286E800E37
:101D5000B9EC0EF009D0020E2A18D8A405D0000E56
:101D6000286EC00EB9EC0EF0210EE82EFED700F062
:101D70001200296E28B002D0899C01D0898C2938A4
:101D80000F0B0F0BD6EC0AF0060EE82EFED700D094
:101D900029500F0BD6EC0AF0210EE82EFED700F0EA
:101DA000120001EEE8F0110EEE6AE806FDE100EE29
:101DB000A4F0100EEE6AE806FDE13B6A3A6A3C9038
:101DC0003C92000EF86E000162EF05F0256E255082
:101DD000D8A406D024B002D08D9001D08D801200FE
:101DE0002504D8A4120024B002D08D9201D08D8297
:101DF000120024502602F3CF28F0F4CF29F024500B
:101E00002702F350292625502602F350292628C000
:101E100024F029C025F01200899489969284928634
:101E2000B894B896B89CB89E060E636E060E626EA5
:101E300096909692590EB76E12009450C009946E07
:101E4000CD0EAF6E000EB06EAA86AC84AB88AB8EA2
:101E5000AC98AB9C1200F28EF28CF28CD08E9F9AD2
:101E60009D8A9486F2889E9AF29212008B80030ECD
:0A1E7000E82EFED700F08B90120060
:020000040020DA
:08000000FFFFFFFFFFFFFFFF00
:020000040030CA
:0E000000FFC80F3E3C9D85FF0FC00FE00F4074
:00000001FF
