:0400000054EF00F0C9
:100008004282FACF01F0FBCF02F0E9CF03F0EACF4A
:1000180004F0E1CF05F0E2CF06F0D9CF07F0DACF50
:1000280008F0F3CF09F0F4CF0AF0F6CF0BF0F7CFD2
:100038000CF0F8CF0DF0F5CF0EF09EAA13D031508A
:10004800010D320EF324D96E000EF420DA6EAECF15
:10005800DFFF0F0E3118D8A403D0000E316E01D087
:10006800312A9E9A0EC0F5FF0DC0F8FF0CC0F7FFAD
:100078000BC0F6FF0AC0F4FF09C0F3FF08C0DAFF9F
:1000880007C0D9FF06C0E2FF05C0E1FF04C0EAFFD0
:1000980003C0E9FF02C0FBFF01C0FAFF4292110052
:1000A800C7EF03F0000E00016A6FF28EF28CF2883F
:1000B8009D8ACD0EAF6E000EB06EAA86AC84AB885A
:1000C800AB8EAC98000E00016B6F010E00016C6FD7
:1000D800790E00016D6F0F0E00016E6F780E000132
:1000E8006F6F0F0E0001706F000E0001716F000E30
:1000F8000001736FC70E726F000E0001746F010E5E
:100108000001756F770E0001766F0F0E0001776F93
:10011800760E0001786F0F0E0001796F020E000154
:100128007A6F000E00017C6FC70E7B6F93909392DD
:10013800939493969286B8860D0EC26E000EC16E89
:10014800AB0EC06E720ED36ED3A4FED79FEC03F035
:100158009E8A010E20EC03F06B0E266E000E276EB1
:10016800740E286E000E296E5EEC02F0010E20EC73
:1001780003F06B0E266E000E276E740E286E000EAE
:10018800296EE8EC02F0010E20EC03F06B0E266EEF
:10019800000E276E740E286E000E296E5EEC02F0BB
:1001A800010E20EC03F06B0E2B6E000E2C6E740EFD
:1001B8002D6E000E2E6E84EC03F0010E20EC03F081
:1001C8006B0E266E000E276E740E286E000E296EBA
:1001D8005EEC02F0010E20EC03F06B0E2B6E000EAD
:1001E8002C6E740E2D6E000E2E6E69EC03F0010E4F
:1001F80020EC03F06B0E266E000E276E740E286E30
:10020800000E296E5EEC02F0010E20EC03F06B0E7E
:100218002B6E000E2C6E740E2D6E000E2E6E4EEC94
:1002280003F0030E4118D8A402D0010E01D0000E2D
:100238002F6E020E3218D8A402D0010E01D0000E83
:100248002F14E8A085D7320E0F6E000E106E04EC46
:1002580002F00009D8B47CD7000E00016A6F090EBD
:1002680000016A6501D01CD000016A512F6E306A06
:10027800010E2F26000E3022320E2F24D96E000ECA
:100288003020DA6E00016A51010D600EF324E16E30
:10029800000EF420E26EDFCFE7FF00016A2BDFD704
:1002A800000E00016A6F0F0E00016A6501D050D779
:1002B80000016A51010D320EF324D96E000EF420AC
:1002C800DA6E000EDF6E00016A2BEDD71DC0D9FF74
:1002D8001EC0DAFFDF501F6E1F500F6E106A20EE2F
:1002E80007F01D50D9261E50DA22DECF11F0DDCFDF
:1002F80012F0B4EC03F00FC015F010C016F0000EA9
:10030800186E640E176EA6EC02F015C024F016C025
:1003180025F020EE01F01D50D9261E50DA22DF50BC
:10032800D8B42CD020EE06F01D50D9261E50DA2263
:10033800DF501F6E010E206E1F2A02D0D890203683
:100348001F2EFCD720508A108A6E20EE07F01D5011
:10035800D9261E50DA22DECF1FF0DDCF20F024C0D0
:1003680021F025C022F0211E221E214A222A1F50D8
:100378002124246E20502220256E14D020EE06F071
:100388001D50D9261E50DA22DF501F6E010E206E36
:100398001F2A02D0D89020361F2EFCD72050FF0AE3
:1003A8008A148A6E20EE02F01D50D9261E50DA22D9
:1003B800DECF1FF0DDCF20F01FC0D9FF20C0DAFF4D
:1003C8002444E846FC0BDF6E20EE04F01D50D926CD
:1003D8001E50DA22DECF1FF0DDCF20F01FC0D9FF7C
:1003E80020C0DAFF24C021F025C022F0060E236EBB
:1003F800223422322132232EFBD72150DF6E120005
:10040800000E176E000E196E000E186E000E1A6E92
:1004180020EE04F00F50D9261050DA22DF50116E6A
:1004280020EE03F00F50D9261050DA22DF50126E5A
:100438001250146E136A11501324186E000E1420F3
:10044800196E20EE02F00F50D9261050DA22DF5034
:100458001818176E050E1A6E090E1A6401D028D0E6
:100468001A50116E126A010E1126000E1222115036
:100478000F24D96E12501020DA6EDF50136E1A5006
:10048800010DF3500F24D96EF4501020DA6EDF50AE
:10049800146E1450166E156A13501524186E000E3B
:1004A8001620196E17501818176E020E1A26D4D770
:1004B800010E120028D026C0D9FF27C0DAFFDF506E
:1004C800D8B405D026C0D9FF27C0DAFFDF0628C078
:1004D800D9FF29C0DAFFDF50D8B405D028C0D9FF2A
:1004E80029C0DAFFDF0626C01DF027C01EF06AEC1F
:1004F80001F028C01DF029C01EF06AEC01F0210EA1
:10050800E82EFED700F026C0D9FF27C0DAFFDF505B
:10051800D8A4D1D728C0D9FF29C0DAFFDF50D8A482
:10052800CAD720EE01F02650D9262750DA22010E2C
:10053800DF6E20EE01F02850D9262950DA22010E6C
:10054800DF6E1200000E1A6E18AE06D0176C181E59
:10055800D8B0182A010E1A6E16AE06D0156C161EE3
:10056800D8B0162A010E1A1A000E1C6E000E1B6E49
:1005780017501810D8B41CD0010E196E04D0D8909A
:1005880017361836192A18AEFAD7D8901B361C36E3
:100598001750155C18501658D8A005D01750155E7E
:1005A8001850165A1B80D89018321732192EEDD7CA
:1005B8001A50D8B404D01B6C1C1ED8B01C2A1BC0FF
:1005C80015F01CC016F0120028D026C0D9FF27C08D
:1005D800DAFF640EDF6005D026C0D9FF27C0DAFF36
:1005E800DF2A28C0D9FF29C0DAFF640EDF6005D0F2
:1005F80028C0D9FF29C0DAFFDF2A26C01DF027C08E
:100608001EF06AEC01F028C01DF029C01EF06AEC4B
:1006180001F0210EE82EFED700F026C0D9FF27C032
:10062800DAFF630EDF64D1D728C0D9FF29C0DAFF0B
:10063800630EDF64CAD71200116E000E136E000E2F
:10064800126E000E156E000E146E000E136E010E63
:10065800126E16D0000E156E010E146E15500EE1B6
:10066800150E145CD8B00AD0820E0F6EDE0EE82E7E
:10067800FED70F2EFCD7144A152AF0D7124A132A90
:1006880011500F6E106A12500F5C13501058D8A0FA
:100698001200E0D720EE01F02B50D9262C50DA2298
:1006A800010EDF6E20EE01F02D50D9262E50DA22F1
:1006B800000EDF6E2BC026F02CC027F02DC028F0CE
:1006C8002EC029F0E8EC02F0120020EE01F02B50C9
:1006D800D9262C50DA22000EDF6E20EE01F02D50C4
:1006E800D9262E50DA22010EDF6E2BC026F02CC040
:1006F80027F02DC028F02EC029F0E8EC02F01200F7
:1007080020EE01F02B50D9262C50DA22000EDF6E95
:1007180020EE01F02D50D9262E50DA22000EDF6E81
:100728002BC026F02CC027F02DC028F02EC029F0B1
:10073800E8EC02F01200000E7F6E800E7E6E6F0EE7
:100748006F6E000E6E6EC70E7B6E000E7A6E000E18
:10075800796E000E786E000E776E000E766E1200BF
:100768000F501102F3CF13F0F4CF14F00F50120210
:10077800F350142610501102F350142613C00FF032
:1007880014C010F0120000EE31F0110EEE6AE80607
:0C079800FDE142904292000156EF00F09B
:020000040020DA
:08000000FFFFFFFFFFFFFFFF00
:020000040030CA
:0E000000FFC80F3E3C9D85FF0FC00FE00F4074
:00000001FF
