:0400000054EF00F0C9
:100008004C82FACF01F0FBCF02F0E9CF03F0EACF40
:1000180004F0E1CF05F0E2CF06F0D9CF07F0DACF50
:1000280008F0F3CF09F0F4CF0AF0F6CF0BF0F7CFD2
:100038000CF0F8CF0DF0F5CF0EF09EAA13D04B5070
:10004800010D3B0EF324D96E000EF420DA6EAECF0C
:10005800DFFF0F0E4B18D8A403D0000E4B6E01D053
:100068004B2A9E9A0EC0F5FF0DC0F8FF0CC0F7FF93
:100078000BC0F6FF0AC0F4FF09C0F3FF08C0DAFF9F
:1000880007C0D9FF06C0E2FF05C0E1FF04C0EAFFD0
:1000980003C0E9FF02C0FBFF01C0FAFF4C92110048
:1000A80024EF07F0000E0001606F000E0001616F81
:1000B800000E0001626F030E0001646FE80E636FAB
:1000C8002FC026F030C027F031C028F032C029F008
:1000D800FFEC04F0C4EC05F00FC069F010C06AF042
:1000E80089EC05F00FC06BF010C06CF02FC02BF03E
:1000F80030C02CF031C02DF032C02EF05CEC06F090
:1001080033509DEC06F02FC026F030C027F031C0E8
:1001180028F032C029F0FFEC04F0C4EC05F00FC061
:1001280065F010C066F089EC05F00FC067F010C0EC
:1001380068F02FC02BF030C02CF031C02DF032C049
:100148002EF037EC06F03350020DF3509DEC06F01C
:100158002FC026F030C027F031C028F032C029F077
:10016800FFEC04F0C4EC05F00FC06DF010C06EF0A9
:1001780089EC05F00FC06FF010C070F02FC026F0AA
:1001880030C027F031C028F032C029F0FFEC04F06D
:100198000001655100016725346E000166510001B8
:1001A8006821356E00016351345C00016451355893
:1001B800D8B00DD0000E0001666F000E656F000EFE
:1001C8000001686F000E676F010E0001606F00018B
:1001D800695100016B25346E00016A5100016C21E0
:1001E800356E00016351345C000164513558D8B054
:1001F8000DD0000E00016A6F000E696F000E00013D
:100208006C6F000E6B6F010E0001616F00016D5184
:1002180000016F25346E00016E5100017021356EAA
:1002280000016351345C000164513558D8B00DD0D9
:10023800000E00016E6F000E6D6F000E0001706FF2
:10024800000E6F6F010E0001626F0001615160C006
:1002580034F0356A3426000E352200016251342606
:10026800000E3522030E34183510D8A41BD02FC029
:100278002BF030C02CF031C02DF032C02EF05CECE9
:1002880006F03350050DF3509DEC06F02FC026F014
:1002980030C027F031C028F032C029F0FFEC04F05C
:1002A800000E120065C00FF066C010F09BEC04F061
:1002B8000009D8B41BD02FC02BF030C02CF031C0AF
:1002C8002DF032C02EF05CEC06F03350020DF350E6
:1002D8009DEC06F02FC026F030C027F031C028F082
:1002E80032C029F0FFEC04F0020E120069C00FF0D2
:1002F8006AC010F09BEC04F00009D8B419D02FC0E4
:100308002BF030C02CF031C02DF032C02EF05CEC58
:1003180006F033509DEC06F02FC026F030C027F0D1
:1003280031C028F032C029F0FFEC04F0020E1200B0
:100338006DC00FF06EC010F09BEC04F00009D8B44B
:100348000CD02FC026F030C027F031C028F032C0C2
:1003580029F0FFEC04F0020E1200000165510001C3
:10036800675D0001665100016859D8B01BD02FC0E5
:100378002BF030C02CF031C02DF032C02EF05CECE8
:1003880006F03350030DF3509DEC06F02FC026F015
:1003980030C027F031C028F032C029F0FFEC04F05B
:1003A800000E120000016F5100016D5D00017051D7
:1003B80000016E59D8B019D02FC02BF030C02CF0E6
:1003C80031C02DF032C02EF037EC06F033509DECE2
:1003D80006F02FC026F030C027F031C028F032C018
:1003E80029F0FFEC04F0000E120000016751000133
:1003F800655D0001685100016659D8B02FD0000131
:10040800695100016B5D00016A5100016C59D8B057
:1004180025D02FC02BF030C02CF031C02DF032C0C9
:100428002EF05CEC06F03350030DF3CF15F0F4CF4B
:1004380016F0000E186E020E176E47EC05F01550F8
:100448009DEC06F02FC026F030C027F031C028F010
:1004580032C029F0FFEC04F0010E120000016D51CA
:1004680000016F5D00016E5100017059D8B0120093
:1004780000016B510001695D00016C5100016A596E
:10048800D8B012002FC02BF030C02CF031C02DF0A6
:1004980032C02EF05CEC06F033C015F0166A000E80
:1004A800186E020E176E47EC05F015509DEC06F01D
:1004B8002FC026F030C027F031C028F032C029F014
:1004C800FFEC04F0010E1200000E0001736F000E25
:1004D8000001756F000E0001766F000E0001726F4B
:1004E800000E716F060E0001746FF28ED08EF28CC2
:1004F800F288F28C9F8A9D8A000E0001776F010EA8
:100508000001786F790E0001796F0F0E00017A6F84
:10051800780E00017B6F0F0E00017C6F000E00014A
:100528007D6F000E00017F6FC70E7E6F000E000109
:10053800806F010E0001816F770E0001826F0F0E30
:100548000001836F760E0001846F0F0E0001856F26
:10055800020E0001866F000E0001886FC70E876FBC
:10056800720ED36ED3B47BD0FDD7D4EC06F013EC67
:1005780007F0770E266E000E276E800E286E000E8E
:10058800296EFFEC05F0010E81EC06F0770E266E61
:10059800000E276E800E286E000E296EFFEC04F008
:1005A800770E2B6E000E2C6E800E2D6E000E2E6EAA
:1005B800B9EC06F0010E81EC06F0770E266E000EFF
:1005C800276E800E286E000E296EFFEC04F0010ED7
:1005D8000F6E000EEDEC06F0010E0F6E010EEDEC45
:1005E80006F03AD0000176510001D8A40DD0770E5C
:1005F8002F6E000E306E800E316E000E326E74C09B
:1006080033F056EC00F00ED000017605D8A40DD0DA
:10061800770E2F6E000E306E800E316E000E326E29
:1006280040EC03F00001766F1AD0020E0001761933
:10063800D8A415D0020E11D0770E266E000E276EA4
:10064800800E286E000E296EFFEC05F0010E81EC7D
:1006580006F0010E0001766F010E0001756F0001B2
:100668007551000AD8B481D7010AD8B4BBD7030A98
:10067800D8B4E2D7010AF3D7030E366EE80E356E0A
:10068800C4EC05F00FC037F010C038F089EC05F065
:100698000FC039F010C03AF037503924336E385053
:1006A8003A20346E3350355C34503658D8B05DD06B
:1006B80037C00FF038C010F09BEC04F00009D8B434
:1006C80002D0020E12003750395C38503A58D8A080
:1006D80023D02FC026F030C027F031C028F032C018
:1006E80029F0FFEC04F02FC02BF030C02CF031C003
:1006F8002DF032C02EF05CEC06F0030E9DEC06F0F7
:100708002FC026F030C027F031C028F032C029F0C1
:10071800FFEC04F0010E12003750395C38503A589B
:10072800D8B012002FC026F030C027F031C028F012
:1007380032C029F0FFEC04F02FC02BF030C02CF0B1
:1007480031C02DF032C02EF037EC06F0030E9DECD0
:1007580006F02FC026F030C027F031C028F032C094
:1007680029F0FFEC04F0010E12002FC026F030C073
:1007780027F031C028F032C029F0FFEC04F03750E0
:10078800395C38503A58D8A019D02FC02BF030C057
:100798002CF031C02DF032C02EF05CEC06F0050EC6
:1007A8009DEC06F02FC026F030C027F031C028F0AD
:1007B80032C029F0FFEC04F0000E12003750395C0B
:1007C80038503A58D8B012002FC02BF030C02CF057
:1007D80031C02DF032C02EF037EC06F0050E9DEC3E
:1007E80006F02FC026F030C027F031C028F032C004
:1007F80029F0FFEC04F0000E12001DC0D9FF1EC046
:10080800DAFFDF501F6E1F500F6E106A20EE07F0E0
:100818001D50D9261E50DA22DECF11F0DDCF12F09E
:1008280000EC07F00FC015F010C016F0000E186E9F
:10083800640E176E47EC05F015C024F016C025F0BD
:1008480020EE01F01D50D9261E50DA22DF50D8B410
:100858002CD020EE06F01D50D9261E50DA22DF508B
:100868001F6E010E206E1F2A02D0D89020361F2E30
:10087800FCD720508A108A6E20EE07F01D50D9262A
:100888001E50DA22DECF1FF0DDCF20F024C021F089
:1008980025C022F0211E221E214A222A1F5021246F
:1008A800246E20502220256E14D020EE06F01D5014
:1008B800D9261E50DA22DF501F6E010E206E1F2A25
:1008C80002D0D89020361F2EFCD72050FF0A8A1459
:1008D8008A6E20EE02F01D50D9261E50DA22DECF95
:1008E8001FF0DDCF20F01FC0D9FF20C0DAFF24445D
:1008F800E846FC0BDF6E20EE04F01D50D9261E5092
:10090800DA22DECF1FF0DDCF20F01FC0D9FF20C0D4
:10091800DAFF24C021F025C022F0060E236E22340F
:1009280022322132232EFBD72150DF6E1200090E0E
:10093800176EC40E166E000E196E640E186E000E39
:10094800156E0FC0D9FF10C0DAFFDE50165CDE50FE
:100958001758D8B04ED020EE02F00F50D9261050BC
:10096800DA22DE50165CDE501758D8B042D00FC0DD
:10097800D9FF10C0DAFFDECF11F0DDCF12F020EE84
:1009880002F00F50D9261050DA22DECF13F0DDCF57
:1009980014F0131E141E134A142A11501326125051
:1009A80014221850135C19501458D8A020D020EEE7
:1009B80002F00F50D9261050DA22DECF11F0DDCF29
:1009C80012F00FC0D9FF10C0DAFFDECF13F0DDCF71
:1009D80014F0131E141E134A142A11501326125011
:1009E80014221850135C19501458D8B002D0010EB4
:1009F800156E1550120028D026C0D9FF27C0DAFF7F
:100A0800DF50D8B405D026C0D9FF27C0DAFFDF06EB
:100A180028C0D9FF29C0DAFFDF50D8B405D028C0D4
:100A2800D9FF29C0DAFFDF0626C01DF027C01EF057
:100A380001EC04F028C01DF029C01EF001EC04F000
:100A4800210EE82EFED700F026C0D9FF27C0DAFF16
:100A5800DF50D8A4D1D728C0D9FF29C0DAFFDF508A
:100A6800D8A4CAD720EE01F02650D9262750DA227A
:100A7800010EDF6E20EE01F02850D9262950DA2227
:100A8800010EDF6E1200000E1A6E18AE06D0176C3B
:100A9800181ED8B0182A010E1A6E16AE06D0156C9C
:100AA800161ED8B0162A010E1A1A000E1C6E000E59
:100AB8001B6E17501810D8B41CD0010E196E04D034
:100AC800D89017361836192A18AEFAD7D8901B3688
:100AD8001C361750155C18501658D8A005D017505A
:100AE800155E1850165A1B80D89018321732192ED6
:100AF800EDD71A50D8B404D01B6C1C1ED8B01C2AD1
:100B08001BC015F01CC016F01200000E156E000E6A
:100B1800146E000E166E000E166E030E166401D0CB
:100B280020D06950116E126A060ED890113612360E
:100B3800E82EFBD768CF13F0D8901332D890133231
:100B480013501112000E12121150142612501522B1
:100B5800820E116EDE0EE82EFED7112EFCD7162A55
:100B6800DCD714C011F015C012F0D890123211322F
:100B7800D8901232113211C00FF012C010F01200CA
:100B8800000E156E000E146E000E166E000E166E18
:100B9800030E166401D020D06750116E126A060E3B
:100BA800D89011361236E82EFBD766CF13F0D890BE
:100BB8001332D890133213501112000E1212115022
:100BC800142612501522820E116EDE0EE82EFED764
:100BD800112EFCD7162ADCD714C011F015C012F05C
:100BE800D89012321132D8901232113211C00FF04F
:100BF80012C010F0120028D026C0D9FF27C0DAFF93
:100C0800640EDF6005D026C0D9FF27C0DAFFDF2ACF
:100C180028C0D9FF29C0DAFF640EDF6005D028C0DC
:100C2800D9FF29C0DAFFDF2A26C01DF027C01EF031
:100C380001EC04F028C01DF029C01EF001EC04F0FE
:100C4800210EE82EFED700F026C0D9FF27C0DAFF14
:100C5800630EDF64D1D728C0D9FF29C0DAFF630E3D
:100C6800DF64CAD712002BC026F02CC027F02DC095
:100C780028F02EC029F0FFEC04F020EE01F02B50F4
:100C8800D9262C50DA22010EDF6E20EE01F02D500D
:100C9800D9262E50DA22000EDF6E2BC026F02CC08B
:100CA80027F02DC028F02EC029F0FFEC05F0120027
:100CB8002BC026F02CC027F02DC028F02EC029F01C
:100CC800FFEC04F020EE01F02B50D9262C50DA224C
:100CD800000EDF6E20EE01F02D50D9262E50DA22BC
:100CE800010EDF6E2BC026F02CC027F02DC028F097
:100CF8002EC029F0FFEC05F01200106E000E126EE7
:100D0800000E116E000E126E010E116E09D0820EC9
:100D18000F6EDE0EE82EFED70F2EFCD7114A122AD0
:100D28001050140D1150F35C1250F458D8A0120052
:100D3800EED7106E000E126E000E116E000E126EBF
:100D4800010E116E09D0820E0F6EDE0EE82EFED750
:100D58000F2EFCD7114A122A1050020D1150F35CC5
:100D68001250F458D8A01200EED720EE01F02B5004
:100D7800D9262C50DA22000EDF6E20EE01F02D501D
:100D8800D9262E50DA22000EDF6E2BC026F02CC09A
:100D980027F02DC028F02EC029F0FFEC05F0120036
:100DA800000E7F6E800E7E6E6F0E6F6E000E6E6E82
:100DB800C70E7B6E000E7A6E000E796E000E786E8E
:100DC800000E776E000E766E93909392939493969E
:100DD8001200106E1050D8A406D00FB002D08D901B
:100DE80001D08D8012001004D8A412000FB002D0D8
:100DF8008D9201D08D8212000F501102F3CF13F0A3
:100E0800F4CF14F00F501202F350142610501102B0
:100E1800F350142613C00FF014C010F01200899478
:100E2800899692849286B894B896B89CB89E060E15
:100E3800636E060E626E96909692590EB76E120009
:100E480000EE3BF0110EEE6AE806FDE14C904C9284
:0A0E5800000EF86E000168EF02F0D2
:020000040020DA
:08000000FFFFFFFFFFFFFFFF00
:020000040030CA
:0E000000FFC80F3E3C9D85FF0FC00FE00F4074
:00000001FF
