:0400000054EF00F0C9
:100008004582FACF01F0FBCF02F0E9CF03F0EACF47
:1000180004F0E1CF05F0E2CF06F0D9CF07F0DACF50
:1000280008F0F3CF09F0F4CF0AF0F6CF0BF0F7CFD2
:100038000CF0F8CF0DF0F5CF0EF09EAA13D0445077
:10004800010D810EF324D96E000EF420DA6EAECFC6
:10005800DFFF0F0E4418D8A403D0000E446E01D061
:10006800442A9E9A0EC0F5FF0DC0F8FF0CC0F7FF9A
:100078000BC0F6FF0AC0F4FF09C0F3FF08C0DAFF9F
:1000880007C0D9FF06C0E2FF05C0E1FF04C0EAFFD0
:1000980003C0E9FF02C0FBFF01C0FAFF459211004F
:1000A800DBEF05F0010E0F6E000EA9EC05F0010E56
:1000B8000F6E010EA9EC05F02FC026F030C027F016
:1000C80031C028F032C029F0F1EC03F0335061EC74
:1000D80005F0E5EC04F00FC03AF010C03BF0B3ECCB
:1000E80004F00FC03CF010C03DF02FC02BF030C022
:1000F8002CF031C02DF032C02EF03CEC05F033501E
:1001080061EC05F02FC026F030C027F031C028F090
:1001180032C029F0F1EC03F0335061EC05F0E5EC66
:1001280004F00FC036F010C037F0B3EC04F00FC085
:1001380038F010C039F02FC02BF030C02CF031C08F
:100148002DF032C02EF017EC05F03350020DF350AD
:1001580061EC05F02FC026F030C027F031C028F040
:1001680032C029F0F1EC03F0335061EC05F0E5EC16
:1001780004F00FC03EF010C03FF0B3EC04F00FC025
:1001880040F010C041F0000E0F6E000EA9EC05F013
:10019800000E0F6E010EA9EC05F03650385C375092
:1001A8003958D8B01BD02FC02BF030C02CF031C03C
:1001B8002DF032C02EF03CEC05F03350030DF35017
:1001C80061EC05F02FC026F030C027F031C028F0D0
:1001D80032C029F0F1EC03F0000E120040503E5CF2
:1001E80041503F58D8B018D02FC02BF030C02CF059
:1001F80031C02DF032C02EF017EC05F0335061EC11
:1002080005F02FC026F030C027F031C028F032C0EA
:1002180029F0F1EC03F0E0D73850365C3950375804
:10022800D8B02BD03A503C5C3B503D58D8B025D084
:100238002FC02BF030C02CF031C02DF032C02EF082
:100248003CEC05F03350030DF3CF15F0F4CF16F066
:10025800000E186E020E176E39EC04F0155061ECA2
:1002680005F02FC026F030C027F031C028F032C08A
:1002780029F0F1EC03F0010E12003E50405C3F50B3
:100288004158D8B027D03C503A5C3D503B58D8B084
:1002980021D02FC02BF030C02CF031C02DF032C04F
:1002A8002EF03CEC05F033C015F0166A000E186EFF
:1002B800020E176E39EC04F0155061EC05F02FC0F2
:1002C80026F030C027F031C028F032C029F0F1EC18
:1002D80003F0D1D736C034F037C035F0341E351EA0
:1002E800344A352A3850342639503522E90E345CE0
:1002F800030E3558D8B014D020EE38F0DECF34F0E5
:10030800DDCF35F0341E351E344A352A36503426B2
:1003180037503522E90E345C030E3558D8A01BD06F
:100328002FC02BF030C02CF031C02DF032C02EF091
:100338003CEC05F03350020DF35061EC05F02FC092
:1003480026F030C027F031C028F032C029F0F1EC97
:1003580003F0020E12003AC034F03BC035F0341EF0
:10036800351E344A352A3C5034263D503522E90E94
:10037800345C030E3558D8B014D020EE3CF0DECFF4
:1003880034F0DDCF35F0341E351E344A352A3A5064
:1003980034263B503522E90E345C030E3558D8A07C
:1003A80018D02FC02BF030C02CF031C02DF032C047
:1003B8002EF03CEC05F0335061EC05F02FC026F030
:1003C80030C027F031C028F032C029F0F1EC03F03A
:1003D800C0D73EC034F03FC035F0341E351E344A15
:1003E800352A4050342641503522E90E345C030E3C
:1003F8003558D8B0AED720EE40F0DECF34F0DDCFA0
:1004080035F0341E351E344A352A3E5034263F50C6
:100418003522E90E345C030E3558D8B09AD7000E51
:100428001200000E00016E6F000E00016C6F000ECE
:1004380000016D6F000E00016B6F000E6A6FF28E87
:10044800D08EF28CF288F28C9F8A9D8A000E000171
:100458006F6F010E0001706F790E0001716F0F0E42
:100468000001726F780E0001736F0F0E0001746F38
:10047800000E0001756F000E0001776FC70E766FD2
:10048800000E0001786F010E0001796F770E0001F0
:100498007A6F0F0E00017B6F760E00017C6F0F0ED6
:1004A80000017D6F020E00017E6F000E0001806F5B
:1004B800C70E7F6F720ED36ED3B48ED0FDD77DEC8E
:1004C80005F0BCEC05F0010E2DD0CCEC05F00001D8
:1004D8006D510001D8A40DD06F0E2F6E000E306E36
:1004E800780E316E000E326E060E336E56EC00F04A
:1004F80010D000016D05D8A40FD06F0E2F6E000E1E
:10050800306E780E316E000E326E030E336E56EC7E
:1005180000F000016D6F60D0020E00016D19D8A4C3
:100528005BD0020E00016C6F57D0030E00019019CA
:10053800D8A402D0010E01D0000E426E020E0001B6
:100548008119D8A402D0010E01D0000E4214E8A0EF
:1005580043D0810E0F6E000E106E97EC03F0000969
:10056800D8B43AD0000E00016E6F090E00016E6516
:1005780001D01CD000016E51426E436A010E422622
:10058800000E4322810E4224D96E000E4320DA6EFB
:1005980000016E51010D600EF324E16E000EF4208F
:1005A800E26EDFCFE7FF00016E2BDFD7000E000100
:1005B8006E6F0F0E00016E6501D00ED000016E51F6
:1005C800010D810EF324D96E000EF420DA6E000EB0
:1005D800DF6E00016E2BEDD700016C51000AD8B414
:1005E8006ED7010AD8B471D7030AD8B49ED7010AC6
:1005F800F3D71DC0D9FF1EC0DAFFDF501F6E1F5092
:100608000F6E106A20EE07F01D50D9261E50DA2210
:10061800DECF11F0DDCF12F096EC05F00FC015F02B
:1006280010C016F0000E186E640E176E39EC04F048
:1006380015C024F016C025F020EE01F01D50D92673
:100648001E50DA22DF50D8B42CD020EE06F01D5010
:10065800D9261E50DA22DF501F6E010E206E1F2A87
:1006680002D0D89020361F2EFCD720508A108A6ED0
:1006780020EE07F01D50D9261E50DA22DECF1FF0DB
:10068800DDCF20F024C021F025C022F0211E221E3B
:10069800214A222A1F502124246E20502220256E10
:1006A80014D020EE06F01D50D9261E50DA22DF5055
:1006B8001F6E010E206E1F2A02D0D89020361F2EE2
:1006C800FCD72050FF0A8A148A6E20EE02F01D50D3
:1006D800D9261E50DA22DECF1FF0DDCF20F01FC052
:1006E800D9FF20C0DAFF2444E846FC0BDF6E20EE79
:1006F80004F01D50D9261E50DA22DECF1FF0DDCFC0
:1007080020F01FC0D9FF20C0DAFF24C021F025C087
:1007180022F0060E236E223422322132232EFBD7FA
:100728002150DF6E1200000E176E000E196E000EBB
:10073800186E000E1A6E20EE04F00F50D9261050D5
:10074800DA22DF50116E20EE03F00F50D926105038
:10075800DA22DF50126E1250146E136A11501324ED
:10076800186E000E1420196E20EE02F00F50D926D4
:100778001050DA22DF501818176E050E1A6E090E7F
:100788001A6401D028D01A50116E126A010E11266F
:10079800000E122211500F24D96E12501020DA6E5A
:1007A800DF50136E1A50010DF3500F24D96EF45018
:1007B8001020DA6EDF50146E1450166E156A13503E
:1007C8001524186E000E1620196E17501818176E7B
:1007D800020E1A26D4D7010E120028D026C0D9FF3F
:1007E80027C0DAFFDF50D8B405D026C0D9FF27C00C
:1007F800DAFFDF0628C0D9FF29C0DAFFDF50D8B4F6
:1008080005D028C0D9FF29C0DAFFDF0626C01DF0B1
:1008180027C01EF0FDEC02F028C01DF029C01EF014
:10082800FDEC02F0210EE82EFED700F026C0D9FF1D
:1008380027C0DAFFDF50D8A4D1D728C0D9FF29C0F4
:10084800DAFFDF50D8A4CAD720EE01F02650D92607
:100858002750DA22010EDF6E20EE01F02850D9264B
:100868002950DA22010EDF6E1200000E1A6E18AE41
:1008780006D0176C181ED8B0182A010E1A6E16AEBC
:1008880006D0156C161ED8B0162A010E1A1A000EBC
:100898001C6E000E1B6E17501810D8B41CD0010E19
:1008A800196E04D0D89017361836192A18AEFAD708
:1008B800D8901B361C361750155C18501658D8A0FF
:1008C80005D01750155E1850165A1B80D89018324C
:1008D8001732192EEDD71A50D8B404D01B6C1C1E31
:1008E800D8B01C2A1BC015F01CC016F0120028D066
:1008F80026C0D9FF27C0DAFF640EDF6005D026C006
:10090800D9FF27C0DAFFDF2A28C0D9FF29C0DAFFBC
:10091800640EDF6005D028C0D9FF29C0DAFFDF2ABE
:1009280026C01DF027C01EF0FDEC02F028C01DF007
:1009380029C01EF0FDEC02F0210EE82EFED700F0D3
:1009480026C0D9FF27C0DAFF630EDF64D1D728C0DD
:10095800D9FF29C0DAFF630EDF64CAD71200000E80
:10096800146E000E136E000E156E000E156E030E3B
:10097800156401D017D0685069CF11F0126A11C000
:1009880012F0116A1112000E121211501326125091
:100998001422820E116EDE0EE82EFED7112EFCD721
:1009A800152AE5D713C011F014C012F0D8901136EB
:1009B8001236D8901136123611C00FF012C010F04E
:1009C8001200000E146E000E136E000E156E000E4F
:1009D800156E030E156401D017D0665067CF11F05D
:1009E800126A11C012F0116A1112000E121211507F
:1009F800132612501422820E116EDE0EE82EFED738
:100A0800112EFCD7152AE5D713C011F014C012F027
:100A1800D89011361236D8901136123611C00FF010
:100A280012C010F012002BC026F02CC027F02DC0E9
:100A380028F02EC029F0F1EC03F020EE01F02B5045
:100A4800D9262C50DA22010EDF6E20EE01F02D504F
:100A5800D9262E50DA22000EDF6E2BC026F02CC0CD
:100A680027F02DC028F02EC029F07BEC04F01200EE
:100A78002BC026F02CC027F02DC028F02EC029F05E
:100A8800F1EC03F020EE01F02B50D9262C50DA229D
:100A9800000EDF6E20EE01F02D50D9262E50DA22FE
:100AA800010EDF6E2BC026F02CC027F02DC028F0D9
:100AB8002EC029F07BEC04F01200106E000E126EAE
:100AC800000E116E000E126E010E116E09D0820E0C
:100AD8000F6EDE0EE82EFED70F2EFCD7114A122A13
:100AE8001050020D1150F35C1250F458D8A01200A7
:100AF800EED7000E7F6E800E7E6E6F0E6F6E000E4C
:100B08006E6EC70E7B6E000E7A6E000E796E000E4A
:100B1800786E000E776E000E766E93909392939493
:100B2800939612000F501102F3CF13F0F4CF14F084
:100B38000F501202F350142610501102F3501426CD
:100B480013C00FF014C010F01200106E1050D8A48B
:100B580006D00FB002D08D9001D08D801200100405
:100B6800D8A412000FB002D08D9201D08D8212004D
:100B7800010E0F6E94500FC094FFCD0EAF6E000E95
:100B8800B06EAA86AC84AB88AB8EAC98AB9C1200D6
:100B98008994899692849286B894B896060E636E64
:100BA800060E626E96909692590EB76E120000EE7F
:100BB80081F0100EEE6AE806FDE1446A4590459220
:0A0BC800000EF86E000115EF02F0B8
:020000040020DA
:08000000FFFFFFFFFFFFFFFF00
:020000040030CA
:0E000000FFC80F3E3C9D85FF0FC00FE00F4074
:00000001FF
