:0400000057EF00F0C6
:100008004E82FACF01F0FBCF02F0E9CF03F0EACF3E
:1000180004F0E1CF05F0E2CF06F0D9CF07F0DACF50
:1000280008F0F3CF09F0F4CF0AF0F6CF0BF0F7CFD2
:100038000CF0F8CF0DF0F5CF0EF09EAA16D04D506B
:10004800010D830EF324D96E000EF420DA6EAECFC4
:10005800DFFF010E0001826F0F0E4D18D8A403D0E8
:10006800000E4D6E01D04D2A9E9A0EC0F5FF0DC0B0
:10007800F8FF0CC0F7FF0BC0F6FF0AC0F4FF09C079
:10008800F3FF08C0DAFF07C0D9FF06C0E2FF05C0CA
:10009800E1FF04C0EAFF03C0E9FF02C0FBFF01C0A3
:1000A800FAFF4E9211003CEF08F0000E366E000E7B
:1000B800376E000E386E000E3A6EC80E396E050E99
:1000C8003C6EDC0E3B6E010E3E6EF40E3D6E2FC094
:1000D80026F030C027F031C028F032C029F007ECF4
:1000E80006F0CCEC06F00FC043F010C044F091ECE1
:1000F80006F00FC045F010C046F02FC02BF030C0FE
:100108002CF031C02DF032C02EF064EC07F03350E3
:10011800A5EC07F02FC026F030C027F031C028F03A
:1001280032C029F007EC06F0CCEC06F00FC03FF027
:1001380010C040F091EC06F00FC041F010C042F042
:100148002FC02BF030C02CF031C02DF032C02EF073
:100158003FEC07F03350020DF350A5EC07F02FC029
:1001680026F030C027F031C028F032C029F007EC63
:1001780006F0CCEC06F00FC047F010C048F091EC48
:1001880006F00FC049F010C04AF03F504124346EC9
:1001980040504220356E3950345C3A503558D8B00A
:1001A8000AD0000E406E000E3F6E000E426E000E2A
:1001B800416E010E366E43504524346E445046203D
:1001C800356E3950345C3A503558D8B00AD0000EE4
:1001D800446E000E436E000E466E000E456E010E14
:1001E800376E47504924346E48504A20356E39508E
:1001F800345C3A503558D8B00AD0000E486E000E1C
:10020800476E000E4A6E000E496E010E386E37506A
:1002180036C034F0356A3426000E3522385034267C
:10022800000E3522030E34183510D8A432D02FC052
:100238002BF030C02CF031C02DF032C02EF064EC21
:1002480007F03350050DF350A5EC07F02FC026F04A
:1002580030C027F031C028F032C029F007EC06F092
:100268002FC026F030C027F031C028F032C029F066
:1002780007EC07F03350A5EC07F02FC026F030C08C
:1002880027F031C028F032C029F007EC06F0000E44
:1002980012003F503B5C40503C58D8B047D04150CA
:1002A8003B5C42503C58D8B041D020EE41F0DECF04
:1002B80034F0DDCF35F0341E351E344A352A3F5030
:1002C8003426405035223D50345C3E503558D8A035
:1002D80012D03FC034F040C035F0341E351E344AC9
:1002E800352A41503426425035223D50345C3E5028
:1002F8003558D8B01BD02FC02BF030C02CF031C0EF
:100308002DF032C02EF064EC07F03350020DF3509C
:10031800A5EC07F02FC026F030C027F031C028F038
:1003280032C029F007EC06F0020E120043503B5C85
:1003380044503C58D8B044D045503B5C46503C589B
:10034800D8B03ED020EE45F0DECF34F0DDCF35F02A
:10035800341E351E344A352A43503426445035223B
:100368003D50345C3E503558D8A012D043C034F0CC
:1003780044C035F0341E351E344A352A45503426DB
:10038800465035223D50345C3E503558D8B018D0D0
:100398002FC02BF030C02CF031C02DF032C02EF021
:1003A80064EC07F03350A5EC07F02FC026F030C0FE
:1003B80027F031C028F032C029F007EC06F0B4D796
:1003C80047503B5C48503C58D8B037D049503B5C0C
:1003D8004A503C58D8B031D020EE49F0DECF34F046
:1003E800DDCF35F0341E351E344A352A47503426C1
:1003F800485035223D50345C3E503558D8A012D074
:1004080047C034F048C035F0341E351E344A352A0A
:10041800495034264A5035223D50345C3E503558B8
:10042800D8B00BD02FC026F030C027F031C028F04C
:1004380032C029F007EC06F077D73F50415C4050B6
:100448004258D8B01AD02FC02BF030C02CF031C091
:100458002DF032C02EF064EC07F03350030DF3504A
:10046800A5EC07F02FC026F030C027F031C028F0E7
:1004780032C029F007EC06F00AD74950475C4A50C9
:100488004858D8B018D02FC02BF030C02CF031C04D
:100498002DF032C02EF03FEC07F03350A5EC07F0FA
:1004A8002FC026F030C027F031C028F032C029F024
:1004B80007EC06F0ECD641503F5C42504058D8B0AB
:1004C8002BD04350455C44504658D8B025D02FC057
:1004D8002BF030C02CF031C02DF032C02EF064EC7F
:1004E80007F03350030DF3CF15F0F4CF16F0000EDC
:1004F800186E020E176E4FEC06F01550A5EC07F0BB
:100508002FC026F030C027F031C028F032C029F0C3
:1005180007EC06F0010E12004750495C48504A5853
:10052800D8B027D04550435C46504458D8B021D065
:100538002FC02BF030C02CF031C02DF032C02EF07F
:1005480064EC07F033C015F0166A000E186E020E40
:10055800176E4FEC06F01550A5EC07F02FC026F0EB
:1005680030C027F031C028F032C029F007EC06F07F
:10057800D1D7000E1200000E00016F6F000E0001AF
:100588006D6F000E00016E6F000E00016B6F000EA4
:100598006A6F060E00016C6FF28ED08EF28CF288B4
:1005A800F28C9F8A9D8A9E9A000E0001706F010E40
:1005B8000001716F790E0001726F0F0E0001736FE9
:1005C800780E0001746F0F0E0001756F000E0001A8
:1005D800766F000E0001786FC70E776F000E00016E
:1005E800796F010E00017A6F770E00017B6F0F0E95
:1005F80000017C6F760E00017D6F0F0E00017E6F8B
:10060800020E00017F6F000E0001816FC70E806F20
:10061800720ED36ED3B404D1FDD7DCEC07F02CEC0A
:1006280008F01BEC08F0700E266E000E276E790E8F
:10063800286E000E296E07EC07F0010E89EC07F012
:10064800700E266E000E276E790E286E000E296E2B
:1006580007EC06F0700E2B6E000E2C6E790E2D6EC8
:10066800000E2E6EC1EC07F0010E89EC07F0700E3B
:10067800266E000E276E790E286E000E296E07EC86
:1006880006F0010E0F6E000EF5EC07F0010E0F6E6E
:10069800010EF5EC07F0C1D000016E510001D8A49D
:1006A8000DD0700E2F6E000E306E790E316E000E6A
:1006B800326E6CC033F059EC00F00ED000016E05BC
:1006C800D8A40DD0700E2F6E000E306E790E316EDC
:1006D800000E326E21EC04F000016E6FA1D0020E04
:1006E80000016E19D8A49CD0020E98D00001825146
:1006F800D8A40ED0700E266E000E276E790E286EC6
:10070800000E296E07EC07F0050EA5EC07F082D065
:10071800700E266E000E276E790E286E000E296E5A
:1007280007EC06F0030E00019219D8A402D0010EBE
:1007380001D0000E4B6E020E00018319D8A402D01E
:10074800010E01D0000E4B14E8A064D0830E0F6E8A
:10075800000E106EADEC05F00009D8B43AD0000ECA
:1007680000016F6F090E00016F6501D01CD00001F8
:100778006F514B6E4C6A010E4B26000E4C22830EB5
:100788004B24D96E000E4C20DA6E00016F51010D1A
:10079800600EF324E16E000EF420E26EDFCFE7FF77
:1007A80000016F2BDFD7000E00016F6F0F0E0001E5
:1007B8006F6501D02FD000016F51010D830EF32416
:1007C800D96E000EF420DA6E000EDF6E00016F2B7A
:1007D800EDD7700E2B6E000E2C6E790E2D6E000E5E
:1007E8002E6EC1EC07F0010E89EC07F0700E266E34
:1007F800000E276E790E286E000E296E07EC06F0A3
:10080800700E266E000E276E790E286E000E296E69
:1008180007EC07F0010E00016E6F010E00016D6F0D
:1008280000016D51000AD8B4F8D6010AD8B434D7FB
:10083800030AD8B45BD7010AF3D7000E366EC80E88
:10084800356E050E386EDC0E376E010E3A6EF40EFC
:10085800396ECCEC06F00FC03BF010C03CF091ECC8
:1008680006F00FC03DF010C03EF03B503D24336E03
:100878003C503E20346E3350355C34503658D8B036
:1008880085D03B50375C3C503858D8B02ED03D50BE
:10089800375C3E503858D8B028D020EE3DF0DECF37
:1008A80033F0DDCF34F0331E341E334A342A3B5044
:1008B80033263C5034223950335C3A503458D8A04F
:1008C80012D03BC033F03CC034F0331E341E334AE0
:1008D800342A3D5033263E5034223950335C3A5046
:1008E8003458D8B002D0020E12003B503D5C3C5048
:1008F8003E58D8A023D02FC026F030C027F031C0F2
:1009080028F032C029F007EC06F02FC02BF030C0D9
:100918002CF031C02DF032C02EF064EC07F0030E3D
:10092800A5EC07F02FC026F030C027F031C028F022
:1009380032C029F007EC06F0010E12003B503D5C76
:100948003C503E58D8B069D02FC026F030C027F0B0
:1009580031C028F032C029F007EC06F02FC02BF088
:1009680030C02CF031C02DF032C02EF03FEC07F033
:10097800030EA5EC07F02FC026F030C027F031C0D9
:1009880028F032C029F007EC06F0D6D72FC026F0A1
:1009980030C027F031C028F032C029F007EC06F04B
:1009A8003B503D5C3C503E58D8A019D02FC02BF08E
:1009B80030C02CF031C02DF032C02EF064EC07F0BE
:1009C800050EA5EC07F02FC026F030C027F031C087
:1009D80028F032C029F007EC06F0000E12003B5058
:1009E8003D5C3C503E58D8B018D02FC02BF030C0DA
:1009F8002CF031C02DF032C02EF03FEC07F0050E80
:100A0800A5EC07F02FC026F030C027F031C028F041
:100A180032C029F007EC06F0E0D7000E12001DC026
:100A2800D9FF1EC0DAFFDF501F6E1F500F6E106A0D
:100A380020EE07F01D50D9261E50DA22DECF11F025
:100A4800DDCF12F008EC08F00FC015F010C016F05A
:100A5800000E186E640E176E4FEC06F015C024F0E9
:100A680016C025F020EE01F01D50D9261E50DA22BE
:100A7800DF50D8B42CD020EE06F01D50D9261E50D9
:100A8800DA22DF501F6E010E206E1F2A02D0D89086
:100A980020361F2EFCD720508A108A6E20EE07F0D1
:100AA8001D50D9261E50DA22DECF1FF0DDCF20F0F0
:100AB80024C021F025C022F0211E221E214A222A0C
:100AC8001F502124246E20502220256E14D020EEA1
:100AD80006F01D50D9261E50DA22DF501F6E010E77
:100AE800206E1F2A02D0D89020361F2EFCD7205007
:100AF800FF0A8A148A6E20EE02F01D50D9261E5075
:100B0800DA22DECF1FF0DDCF20F01FC0D9FF20C0D2
:100B1800DAFF2444E846FC0BDF6E20EE04F01D509B
:100B2800D9261E50DA22DECF1FF0DDCF20F01FC0FD
:100B3800D9FF20C0DAFF24C021F025C022F0060E1C
:100B4800236E223422322132232EFBD72150DF6E2E
:100B58001200000E176E000E196E000E186E000EB1
:100B68001A6E20EE04F00F50D9261050DA22DF500A
:100B7800116E20EE03F00F50D9261050DA22DF5004
:100B8800126E1250146E136A11501324186E000E50
:100B98001420196E20EE02F00F50D9261050DA22D8
:100BA800DF501818176E050E1A6E090E1A6401D058
:100BB80028D01A50116E126A010E1126000E122248
:100BC80011500F24D96E12501020DA6EDF50136EB8
:100BD8001A50010DF3500F24D96EF4501020DA6E1C
:100BE800DF50146E1450166E156A13501524186EC3
:100BF800000E1620196E17501818176E020E1A26B6
:100C0800D4D7010E120028D026C0D9FF27C0DAFF9A
:100C1800DF50D8B405D026C0D9FF27C0DAFFDF06D9
:100C280028C0D9FF29C0DAFFDF50D8B405D028C0C2
:100C3800D9FF29C0DAFFDF0626C01DF027C01EF045
:100C480013EC05F028C01DF029C01EF013EC05F0C8
:100C5800210EE82EFED700F026C0D9FF27C0DAFF04
:100C6800DF50D8A4D1D728C0D9FF29C0DAFFDF5078
:100C7800D8A4CAD720EE01F02650D9262750DA2268
:100C8800010EDF6E20EE01F02850D9262950DA2215
:100C9800010EDF6E1200000E1A6E18AE06D0176C29
:100CA800181ED8B0182A010E1A6E16AE06D0156C8A
:100CB800161ED8B0162A010E1A1A000E1C6E000E47
:100CC8001B6E17501810D8B41CD0010E196E04D022
:100CD800D89017361836192A18AEFAD7D8901B3676
:100CE8001C361750155C18501658D8A005D0175048
:100CF800155E1850165A1B80D89018321732192EC4
:100D0800EDD71A50D8B404D01B6C1C1ED8B01C2ABE
:100D18001BC015F01CC016F01200000E156E000E58
:100D2800146E000E166E000E166E030E166401D0B9
:100D380020D06950116E126A060ED89011361236FC
:100D4800E82EFBD768CF13F0D8901332D89013321F
:100D580013501112000E121211501426125015229F
:100D6800820E116EDE0EE82EFED7112EFCD7162A43
:100D7800DCD714C011F015C012F0D890123211321D
:100D8800D8901232113211C00FF012C010F01200B8
:100D9800000E156E000E146E000E166E000E166E06
:100DA800030E166401D020D06750116E126A060E29
:100DB800D89011361236E82EFBD766CF13F0D890AC
:100DC8001332D890133213501112000E1212115010
:100DD800142612501522820E116EDE0EE82EFED752
:100DE800112EFCD7162ADCD714C011F015C012F04A
:100DF800D89012321132D8901232113211C00FF03D
:100E080012C010F0120028D026C0D9FF27C0DAFF80
:100E1800640EDF6005D026C0D9FF27C0DAFFDF2ABD
:100E280028C0D9FF29C0DAFF640EDF6005D028C0CA
:100E3800D9FF29C0DAFFDF2A26C01DF027C01EF01F
:100E480013EC05F028C01DF029C01EF013EC05F0C6
:100E5800210EE82EFED700F026C0D9FF27C0DAFF02
:100E6800630EDF64D1D728C0D9FF29C0DAFF630E2B
:100E7800DF64CAD712002BC026F02CC027F02DC083
:100E880028F02EC029F007EC06F020EE01F02B50D8
:100E9800D9262C50DA22010EDF6E20EE01F02D50FB
:100EA800D9262E50DA22000EDF6E2BC026F02CC079
:100EB80027F02DC028F02EC029F007EC07F012000B
:100EC8002BC026F02CC027F02DC028F02EC029F00A
:100ED80007EC06F020EE01F02B50D9262C50DA2230
:100EE800000EDF6E20EE01F02D50D9262E50DA22AA
:100EF800010EDF6E2BC026F02CC027F02DC028F085
:100F08002EC029F007EC07F01200106E000E126ECA
:100F1800000E116E000E126E010E116E09D0820EB7
:100F28000F6EDE0EE82EFED70F2EFCD7114A122ABE
:100F38001050140D1150F35C1250F458D8A0120040
:100F4800EED7106E000E126E000E116E000E126EAD
:100F5800010E116E09D0820E0F6EDE0EE82EFED73E
:100F68000F2EFCD7114A122A1050020D1150F35CB3
:100F78001250F458D8A01200EED720EE01F02B50F2
:100F8800D9262C50DA22000EDF6E20EE01F02D500B
:100F9800D9262E50DA22000EDF6E2BC026F02CC088
:100FA80027F02DC028F02EC029F007EC07F012001A
:100FB800000E7F6E800E7E6E6F0E6F6E000E6E6E70
:100FC800C70E7B6E000E7A6E000E796E000E786E7C
:100FD800000E776E000E766E93909392939493968C
:100FE8001200106E1050D8A406D00FB002D08D9009
:100FF80001D08D8012001004D8A412000FB002D0C6
:101008008D9201D08D8212000F501102F3CF13F090
:10101800F4CF14F00F501202F3501426105011029E
:10102800F350142613C00FF014C010F01200899466
:10103800899692849286B894B896B89CB89E060E03
:10104800636E060E626E96909692590EB76E1200F7
:10105800010E0F6E94500FC094FFCD0EAF6E000EB0
:10106800B06EAA86AC84AB88AB8EAC98AB9C1200F1
:1010780000EE82F0110EEE6AE806FDE14D6A4E9030
:0C1088004E92000EF86E0001BFEF02F067
:020000040020DA
:08000000FFFFFFFFFFFFFFFF00
:020000040030CA
:0E000000FFC80F3E3C9D85FF0FC00FE00F4074
:00000001FF
