:040000006BEF00F0B2
:0E0008004082FACF01F0FBCF02F032EF0AF097
:100018004080D8CF0FF0E8CF10F0E0CF11F0FACF42
:1000280012F0FBCF13F0E9CF14F0EACF15F0E1CFCF
:1000380016F0E2CF17F0D9CF18F0DACF19F0F3CFD6
:100048001AF0F4CF1BF0F6CF1CF0F7CF1DF0F8CF65
:100058001EF0F5CF1FF09EAA16D03E50010DEA0EF5
:10006800F324D96E010EF420DA6EAECFDFFF010E55
:100078000101E96F0F0E3E18D8A403D0000E3E6EA2
:1000880001D03E2A9E9A1FC0F5FF1EC0F8FF1DC072
:10009800F7FF1CC0F6FF1BC0F4FF1AC0F3FF19C01E
:1000A800DAFF18C0D9FF17C0E2FF16C0E1FF15C07C
:1000B800EAFF14C0E9FF13C0FBFF12C0FAFF11C02A
:1000C800E0FF10C0E8FF0FC0D8FF40901000EBEF32
:0200D8000BF02B
:1003000000F401D007E8030080C06EF081C06FF0F8
:1003100082C070F083C071F084C072F085C073F049
:1003200086C074F087C075F088C076F089C077F019
:100330008AC078F08BC079F0000E00016B6F000E60
:1003400000016C6F000E00016D6F64C037F065C076
:1003500038F066C039F067C03AF0A8EC09F0A6ECB6
:100360000AF020C072F021C073F06DEC0AF020C0DA
:1003700074F021C075F0000E696E000E686E000EFC
:10038000676E000E666E64C060F065C061F066C0A6
:1003900062F067C063F03EEC0BF0000168519EEC28
:1003A0000BF069C0D9FF6AC0DAFF00016851DF268F
:1003B00064C037F065C038F066C039F067C03AF005
:1003C000A8EC09F0A6EC0AF020C06EF021C06FF096
:1003D0006DEC0AF020C070F021C071F0000E696E63
:1003E000000E686E000E676E000E666E64C060F0F0
:1003F00065C061F066C062F067C063F017EC0BF097
:1004000000016851020DF3509EEC0BF000016851A1
:10041000020D69C0D9FF6AC0DAFFF350DF5E64C025
:1004200037F065C038F066C039F067C03AF0A8EC24
:1004300009F0A6EC0AF020C076F021C077F06DEC50
:100440000AF020C078F021C079F0000E696E000E2D
:10045000686E000E676E000E666E010EF66E030E7D
:10046000F76E00016E51000170253C6E00016F5166
:10047000000171213D6E0900F5503C5C0900F5500A
:100480003D58D8B00DD0000E00016F6F000E6E6F9A
:10049000000E0001716F000E706F010E00016B6F96
:1004A000010EF66E030EF76E000172510001742505
:1004B0003C6E00017351000175213D6E0900F5503D
:1004C0003C5C0900F5503D58D8B00DD0000E00013D
:1004D000736F000E726F000E0001756F000E746F67
:1004E000010E00016C6F010EF66E030EF76E000137
:1004F0007651000178253C6E000177510001792189
:100500003D6E0900F5503C5C0900F5503D58D8B0EF
:100510000DD0000E0001776F000E766F000E000107
:10052000796F000E786F010E00016D6F00016C5144
:100530006BC03CF03D6A3C26000E3D2200016D512F
:100540003C26000E3D22030E3C183D10D8A425D0B9
:1005500064C060F065C061F066C062F067C063F0BF
:100560003EEC0BF000016851050DF3509EEC0BF0D2
:1005700000016851050D69C0D9FF6AC0DAFFF35068
:10058000DF2664C037F065C038F066C039F067C058
:100590003AF0A8EC09F0FF0E1200030EF66E030EFF
:1005A000F76E00016E510900F55C00016F51090002
:1005B000F558D8B069D0030EF66E030EF76E000141
:1005C00070510900F55C000171510900F558D8B06F
:1005D0005BD0050EF66E030EF76E20EE70F0DECFE8
:1005E0003CF0DDCF3DF03C1E3D1E3C4A3D2A000163
:1005F0006E513C2600016F513D220900F5503C5CD4
:100600000900F5503D58D8A01AD0050EF66E030E1D
:10061000F76E6EC03CF06FC03DF03C1E3D1E3C4A84
:100620003D2A000170513C26000171513D22090014
:10063000F5503C5C0900F5503D58D8B025D064C059
:1006400060F065C061F066C062F067C063F03EECC8
:100650000BF000016851020DF3509EEC0BF000010D
:100660006851020D69C0D9FF6AC0DAFFF350DF2676
:1006700064C037F065C038F066C039F067C03AF042
:10068000A8EC09F0020E1200030EF66E030EF76ED0
:10069000000172510900F55C000173510900F55821
:1006A000D8B064D0030EF66E030EF76E00017451DD
:1006B0000900F55C000175510900F558D8B056D015
:1006C000050EF66E030EF76E20EE74F0DECF3CF0F2
:1006D000DDCF3DF03C1E3D1E3C4A3D2A00017251DB
:1006E0003C26000173513D220900F5503C5C090095
:1006F000F5503D58D8A01AD0050EF66E030EF76ED1
:1007000072C03CF073C03DF03C1E3D1E3C4A3D2A89
:10071000000174513C26000175513D220900F5503D
:100720003C5C0900F5503D58D8B020D064C060F062
:1007300065C061F066C062F067C063F03EEC0BF02C
:10074000000168519EEC0BF069C0D9FF6AC0DAFF66
:1007500000016851DF2664C037F065C038F066C01C
:1007600039F067C03AF0A8EC09F08CD7030EF66EAA
:10077000030EF76E000176510900F55C0001775118
:100780000900F558D8B04FD0030EF66E030EF76E81
:10079000000178510900F55C000179510900F55814
:1007A000D8B041D0050EF66E030EF76E20EE78F04D
:1007B000DECF3CF0DDCF3DF03C1E3D1E3C4A3D2AE5
:1007C000000176513C26000177513D220900F55089
:1007D0003C5C0900F5503D58D8A01AD0050EF66EC5
:1007E000030EF76E76C03CF077C03DF03C1E3D1E18
:1007F0003C4A3D2A000178513C26000179513D22B6
:100800000900F5503C5C0900F5503D58D8B00BD0BC
:1008100064C037F065C038F066C039F067C03AF0A0
:10082000A8EC09F02FD700016E510001705D0001A6
:100830006F5100017159D8B025D064C060F065C017
:1008400061F066C062F067C063F03EEC0BF000013F
:100850006851030DF3509EEC0BF000016851030D3D
:1008600069C0D9FF6AC0DAFFF350DF2664C037F0F1
:1008700065C038F066C039F067C03AF0A8EC09F0FE
:10088000000E1200000178510001765D00017951DF
:1008900000017759D8B020D064C060F065C061F025
:1008A00066C062F067C063F017EC0BF0000168519E
:1008B0009EEC0BF069C0D9FF6AC0DAFF00016851F5
:1008C000DF5E64C037F065C038F066C039F067C0DD
:1008D0003AF0A8EC09F0D4D70001705100016E5D28
:1008E0000001715100016F59D8B043D0000172511D
:1008F0000001745D0001735100017559D8B039D001
:1009000064C060F065C061F066C062F067C063F00B
:100910003EEC0BF000016851030DF3CF26F0F4CF4D
:1009200027F0000E296E020E286EF0EC09F026501A
:100930009EEC0BF000016851030DF3CF26F0F4CFCD
:1009400027F0000E296E020E286EF0EC09F069C047
:10095000D9FF6AC0DAFF2650DF2664C037F065C0D1
:1009600038F066C039F067C03AF0A8EC09F0010E23
:100970001200000176510001785D000177510001FD
:100980007959D8B03AD0000174510001725D00016C
:10099000755100017359D8B030D064C060F065C0A3
:1009A00061F066C062F067C063F03EEC0BF068C0B7
:1009B00026F0276A000E296E020E286EF0EC09F070
:1009C00026509EEC0BF068C026F0276A000E296EB8
:1009D000020E286EF0EC09F069C0D9FF6AC0DAFF98
:1009E0002650DF2664C037F065C038F066C039F0A5
:1009F00067C03AF0A8EC09F0BAD7000E1200000E5A
:100A00000101D66F000E0101D36F000E0101D56FF9
:100A1000000E0101D46F060E0101D26FF28EF28C2E
:100A2000F28CD08E9F9A9D8A9486F2889E9AF2923A
:100A3000000E0101D76F010E0101D86F790E01017F
:100A4000D96F0F0E0101DA6F780E0101DB6F0F0E07
:100A50000101DC6F000E0101DD6F000E0101DF6F8F
:100A6000C70EDE6F000E0101E06F010E0101E16FA4
:100A7000770E0101E26F0F0E0101E36F760E0101A7
:100A8000E46F0F0E0101E56F020E0101E66F000E2B
:100A90000101E86FC70EE76F720ED36ED3B464D155
:100AA000FDD7BAEC0BF037EC0CF0F0EC08F026ECCC
:100AB0000CF0D70E376E010E386EE00E396E010E57
:100AC0003A6EDFEC0AF0010E82EC0BF0D70E376EB7
:100AD000010E386EE00E396E010E3A6EA8EC09F088
:100AE000D70E0001606F010E0001616FE00E000182
:100AF000626F010E0001636F65EC0BF0010E82EC7A
:100B00000BF0D70E376E010E386EE00E396E010E07
:100B10003A6EA8EC09F0010E206E000E00EC0CF00D
:100B2000010E206E010E00EC0CF0010ED6D001017A
:100B3000D529D8A41AD0D70E376E010E386EE00E24
:100B4000396E010E3A6EDFEC0AF00101D2519EECD3
:100B50000BF0D70E376E010E386EE00E396E010EB7
:100B60003A6EA8EC09F0000E33D00101D551010115
:100B7000D8A41CD0D70E0001646F010E0001656F70
:100B8000E00E0001666F010E0001676FD2C168F0D0
:100B90000101D451010D640EF3240001696F010EAF
:100BA000F42000016A6F84EC01F012D00101D50538
:100BB000D8A411D0D70E0001646F010E0001656F3B
:100BC000E00E0001666F010E0001676FC3EC06F0D6
:100BD0000101D56F08D0020E0101D519D8A403D0A8
:100BE000020E0101D36F0101D451010D000EF32457
:100BF000D96E010EF420DA6E010EDF6E0101D42BE6
:100C0000B3D00101E951D8B491D0D70E376E010E9F
:100C1000386EE00E396E010E3A6EA8EC09F0030E44
:100C20000101F919D8A402D0010E01D0000E000173
:100C30007A6F020E0101EA19D8A402D0010E01D088
:100C4000000E00017A15E8A08FD0EA0E206E010E8A
:100C5000216E4EEC09F00009D8B442D0000E01011B
:100C6000D66F090E0101D66501D020D00101D65101
:100C700000017A6F7B6B010E00017A27000E7B2347
:100C8000EA0E00017A25D96E010E00017B21DA6E91
:100C90000101D651010DC80EF324E16E010EF420BE
:100CA000E26EDFCFE7FF0101D62BDBD7000E01019B
:100CB000D66F0F0E0101D66501D00ED00101D651BD
:100CC000010DEA0EF324D96E010EF420DA6E000E47
:100CD000DF6E0101D62BEDD7030E0101D36F44D097
:100CE000D70E0001606F010E0001616FE00E000180
:100CF000626F010E0001636F65EC0BF0050E9EEC58
:100D00000BF0D70E376E010E386EE00E396E010E05
:100D10003A6EA8EC09F0D70E376E010E386EE00E71
:100D2000396E010E3A6EDFEC0AF01ED0010E0101A1
:100D3000D56F010E0101D36FD70E376E010E386EDD
:100D4000E00E396E010E3A6EDFEC0AF0050E9EECF5
:100D50000BF00AD0D70E376E010E386EE00E396EEA
:100D6000010E3A6EA8EC09F00101D351000AD8B483
:100D700098D6010AD8B4DBD6030AD8B442D7010A00
:100D8000D8B4E8D7F1D77CC068F07DC069F07EC0E8
:100D90006AF07FC06BF0A6EC0AF020C068F021C0BA
:100DA00069F06DEC0AF020C06AF021C06BF0000E13
:100DB000696E000E686E000E676E000E666E0001B2
:100DC000685100016A253C6E0001695100016B21E8
:100DD0003D6E010EF66E030EF76E3C500900F55C99
:100DE0003D500900F558D8B0ADD0030EF66E030E95
:100DF000F76E000168510900F55C000169510900B6
:100E0000F558D8B046D0030EF66E030EF76E00010B
:100E10006A510900F55C00016B510900F558D8B022
:100E200038D0050EF66E030EF76E20EE6AF0DECFB8
:100E30003CF0DDCF3DF03C1E3D1E3C4A3D2A00010A
:100E400068513C26000169513D220900F5503C5C87
:100E50000900F5503D58D8A01AD0050EF66E030EC5
:100E6000F76E68C03CF069C03DF03C1E3D1E3C4A38
:100E70003D2A00016A513C2600016B513D220900C8
:100E8000F5503C5C0900F5503D58D8B002D0020E38
:100E900012000001685100016A5D00016951000102
:100EA0006B59D8A023D064C037F065C038F066C055
:100EB00039F067C03AF0A8EC09F064C060F065C092
:100EC00061F066C062F067C063F03EEC0BF0030EA9
:100ED0009EEC0BF064C037F065C038F066C039F0A6
:100EE00067C03AF0A8EC09F0010E12000001685149
:100EF00000016A5D0001695100016B59D8B071D0E1
:100F000064C037F065C038F066C039F067C03AF0A9
:100F1000A8EC09F064C060F065C061F066C062F0E2
:100F200067C063F017EC0BF0030E9EEC0BF064C08F
:100F300037F065C038F066C039F067C03AF0A8EC09
:100F400009F0D2D764C037F065C038F066C039F018
:100F500067C03AF0A8EC09F00001685100016A5D31
:100F60000001695100016B59D8A019D064C060F02C
:100F700065C061F066C062F067C063F03EEC0BF0E4
:100F8000050E9EEC0BF064C037F065C038F066C00B
:100F900039F067C03AF0A8EC09F0000E1200000129
:100FA000685100016A5D0001695100016B59D8B0B8
:100FB00018D064C060F065C061F066C062F067C0C0
:100FC00063F017EC0BF0050E9EEC0BF064C037F0ED
:100FD00065C038F066C039F067C03AF0A8EC09F097
:100FE000DCD7000E12002EC0D9FF2FC0DAFFDF5071
:100FF000306E3050206E216A20EE07F02E50D92638
:101000002F50DA22DECF22F0DDCF23F013EC0CF0EC
:1010100020C026F021C027F0000E296E640E286E35
:10102000F0EC09F026C035F027C036F020EE01F0D4
:101030002E50D9262F50DA22DF50D8B42CD020EEF3
:1010400006F02E50D9262F50DA22DF50306E010ED6
:10105000316E302A02D0D8903136302EFCD7315044
:101060008A108A6E20EE07F02E50D9262F50DA22F1
:10107000DECF30F0DDCF31F035C032F036C033F0A6
:10108000321E331E324A332A30503224356E3150EC
:101090003320366E14D020EE06F02E50D9262F5075
:1010A000DA22DF50306E010E316E302A02D0D89035
:1010B0003136302EFCD73150FF0A8A148A6E20EE6A
:1010C00002F02E50D9262F50DA22DECF30F0DDCFBD
:1010D00031F030C0D9FF31C0DAFF3544E846FC0BAF
:1010E000DF6E20EE04F02E50D9262F50DA22DECF0C
:1010F00030F0DDCF31F030C0D9FF31C0DAFF35C07C
:1011000032F036C033F0060E346E333433323232BE
:10111000342EFBD73250DF6E1200236E2350206E28
:10112000216A070ED89020362136E82EFBD7070E0D
:10113000226E213421322032222EFBD720468B50C2
:101140002018FD0B20188B6E2350206E216A060E8E
:10115000D89020362136E82EFBD7070E226E213498
:1011600021322032222EFBD7204620468B502018D9
:10117000FB0B20188B6E2350206E216A050ED89031
:1011800020362136E82EFBD7070E226E213421327D
:101190002032222EFBD78C502018FE0B20188C6E8C
:1011A0002350206E216A203A213AF00E2116205059
:1011B0000F0B2112F00E2016070E226E2134213261
:1011C0002032222EFBD720468C502018FD0B2018F1
:1011D0008C6E45EC0CF0030EE82EFED700F01200EA
:1011E000929C94909492949495909592270E266E4A
:1011F000F50EE82EFED7262EFCD700F0030E8DEC60
:1012000008F00D0E266EFC0EE82EFED7262EFCD71B
:10121000030E8DEC08F0850EE82EFED700F0030ECD
:101220008DEC08F0210EE82EFED700F0020E8DECBA
:1012300008F0210EE82EFED700F0000E246E280ED6
:10124000D3EC0BF0210EE82EFED700F0000E246E3A
:10125000080ED3EC0BF0210EE82EFED700F0000EA6
:10126000246E010ED3EC0BF00D0E266EFC0EE82E54
:10127000FED7262EFCD7000E246E060ED3EC0BF004
:10128000210EE82EFED700F0000E246E0C0ED3ECDB
:101290000BF0210EE82EFED700F01200000E286E93
:1012A000000E2A6E000E296E000E2B6E20EE04F04A
:1012B0002050D9262150DA22DF50226E20EE03F092
:1012C0002050D9262150DA22DF50236E2350256E7C
:1012D000246A22502424296E000E25202A6E20EE36
:1012E00002F02050D9262150DA22DF502918286E2A
:1012F000050E2B6E090E2B6401D028D02B50226EC8
:10130000236A010E2226000E232222502024D96EA9
:1013100023502120DA6EDF50246E2B50010DF35044
:101320002024D96EF4502120DA6EDF50256E25502E
:10133000276E266A24502624296E000E27202A6E46
:1013400028502918286E020E2B26D4D7010E120021
:1013500028D037C0D9FF38C0DAFFDF50D8B405D065
:1013600037C0D9FF38C0DAFFDF0639C0D9FF3AC02D
:10137000DAFFDF50D8B405D039C0D9FF3AC0DAFF60
:10138000DF0637C02EF038C02FF0F3EC07F039C07D
:101390002EF03AC02FF0F3EC07F0210EE82EFED726
:1013A00000F037C0D9FF38C0DAFFDF50D8A4D1D75A
:1013B00039C0D9FF3AC0DAFFDF50D8A4CAD720EE2F
:1013C00001F03750D9263850DA22010EDF6E20EEB8
:1013D00001F03950D9263A50DA22010EDF6E1200A0
:1013E000000E2B6E29AE06D0286C291ED8B0292AF3
:1013F000010E2B6E27AE06D0266C271ED8B0272AEA
:10140000010E2B1A000E2D6E000E2C6E2850291086
:10141000D8B41CD0010E2A6E04D0D89028362936B4
:101420002A2A29AEFAD7D8902C362D362850265C99
:1014300029502758D8A005D02850265E2950275A71
:101440002C80D890293228322A2EEDD72B50D8B4B0
:1014500004D02C6C2D1ED8B02D2A2CC026F02DC007
:1014600027F01200E9CF03F0EACF04F0E1CF05F056
:10147000E2CF06F0D9CF07F0DACF08F0F3CF09F0CA
:10148000F4CF0AF0F6CF0BF0F7CF0CF0F8CF0DF059
:10149000F5CF0EF0F2A203D0010E3F6EF2920EC015
:1014A000F5FF0DC0F8FF0CC0F7FF0BC0F6FF0AC038
:1014B000F4FF09C0F3FF08C0DAFF07C0D9FF06C078
:1014C000E2FF05C0E1FF04C0EAFF03C0E9FF02C07C
:1014D000FBFF01C0FAFF40921100000E266E000EC5
:1014E000256E000E276E000E276E030E276401D0B6
:1014F0001ED06950226E236A070ED89022362336FA
:10150000E82EFBD768CF24F0D89024322450221242
:10151000000E23122250252623502622820E226EF0
:10152000DE0EE82EFED7222EFCD7272ADED725C0D6
:1015300022F026C023F0D89023322232D8902332D2
:10154000223222C020F023C021F01200000E266EAD
:10155000000E256E000E276E000E276E030E276408
:1015600001D01ED06750226E236A070ED890223613
:101570002336E82EFBD766CF24F0D89024322450AF
:101580002212000E23122250252623502622820EDC
:10159000226EDE0EE82EFED7222EFCD7272ADED7BB
:1015A00025C022F026C023F0D89023322232D890D2
:1015B0002332223222C020F023C021F0120028D092
:1015C00037C0D9FF38C0DAFF640EDF6005D037C0FE
:1015D000D9FF38C0DAFFDF2A39C0D9FF3AC0DAFFB5
:1015E000640EDF6005D039C0D9FF3AC0DAFFDF2AC8
:1015F00037C02EF038C02FF0F3EC07F039C02EF0D2
:101600003AC02FF0F3EC07F0210EE82EFED700F0E1
:1016100037C0D9FF38C0DAFF630EDF64D1D739C0D5
:10162000D9FF3AC0DAFF630EDF64CAD7120060C088
:1016300037F061C038F062C039F063C03AF0A8EC0E
:1016400009F0000120EE01F06051D9266151DA2243
:10165000010EDF6E000120EE01F06251D9266351C8
:10166000DA22000EDF6E60C037F061C038F062C071
:1016700039F063C03AF0DFEC0AF0120060C037F0D6
:1016800061C038F062C039F063C03AF0A8EC09F0EC
:10169000000120EE01F06051D9266151DA22000EDE
:1016A000DF6E000120EE01F06251D9266351DA228B
:1016B000010EDF6E60C037F061C038F062C039F0F3
:1016C00063C03AF0DFEC0AF01200000120EE01F0F6
:1016D0006051D9266151DA22000EDF6E000120EE42
:1016E00001F06251D9266351DA22000EDF6E60C02C
:1016F00037F061C038F062C039F063C03AF0DFEC17
:101700000AF01200216E000E236E000E226E000EF3
:10171000236E010E226E09D0820E206EDE0EE82EA0
:10172000FED7202EFCD7224A232A2150140D225006
:10173000F35C2350F458D8A01200EED7216E000EAF
:10174000236E000E226E000E236E010E226E09D053
:10175000820E206EDE0EE82EFED7202EFCD7224A07
:10176000232A2150020D2250F35C2350F458D8A0B4
:101770001200EED7000E7F6E800E7E6E6F0E6F6EC3
:10178000000E6E6EC70E7B6E000E7A6E000E796EC6
:10179000000E786E000E776E000E766E9390939228
:1017A000939493961200256E24B002D0899C01D0A8
:1017B000898C25380F0B0F0B8DEC08F0060EE82EE8
:1017C000FED700D025500F0B8DEC08F0210EE82E2F
:1017D000FED700F0120001EEE9F0110EEE6AE80605
:1017E000FDE100EE7CF0100EEE6AE806FDE13F6AD6
:1017F0003E6A40904092000EF86E0001FFEF04F048
:10180000216E2150D8A406D020B002D08D9001D0F6
:101810008D8012002104D8A4120020B002D08D9235
:1018200001D08D82120020502202F3CF24F0F4CF99
:1018300025F020502302F350252621502202F35098
:10184000252624C020F025C021F012008994899615
:1018500092849286B894B896B89CB89E060E636E31
:10186000060E626E96909692590EB76E12009450C4
:10187000C009946ECD0EAF6E000EB06EAA86AC8419
:10188000AB88AB8EAC98AB9C12008B80030EE82E1D
:08189000FED700F08B9012005E
:020000040020DA
:08000000FFFFFFFFFFFFFFFF00
:020000040030CA
:0E000000FFC80F3E3C9D85FF0FC00FE00F4074
:00000001FF
