:0400000054EF00F0C9
:100008005082FACF01F0FBCF02F0E9CF03F0EACF3C
:1000180004F0E1CF05F0E2CF06F0D9CF07F0DACF50
:1000280008F0F3CF09F0F4CF0AF0F6CF0BF0F7CFD2
:100038000CF0F8CF0DF0F5CF0EF09EAA13D04F506C
:10004800010D3F0EF324D96E000EF420DA6EAECF08
:10005800DFFF0F0E4F18D8A403D0000E4F6E01D04B
:100068004F2A9E9A0EC0F5FF0DC0F8FF0CC0F7FF8F
:100078000BC0F6FF0AC0F4FF09C0F3FF08C0DAFF9F
:1000880007C0D9FF06C0E2FF05C0E1FF04C0EAFFD0
:1000980003C0E9FF02C0FBFF01C0FAFF5092110044
:1000A800C4EF07F0000E0001606F000E0001616FE1
:1000B800000E0001626F000E0001646FC80E636FCE
:1000C800050E0001666FDC0E656F010E0001686F9A
:1000D800F40E676F2FC026F030C027F031C028F02B
:1000E80032C029F09FEC05F064EC06F00FC06DF00B
:1000F80010C06EF029EC06F00FC06FF010C070F061
:100108002FC02BF030C02CF031C02DF032C02EF0B3
:10011800FCEC06F033503DEC07F02FC026F030C061
:1001280027F031C028F032C029F09FEC05F064ECCC
:1001380006F00FC069F010C06AF029EC06F00FC095
:100148006BF010C06CF02FC02BF030C02CF031C019
:100158002DF032C02EF0D7EC06F03350020DF350DC
:100168003DEC07F02FC026F030C027F031C028F052
:1001780032C029F09FEC05F064EC06F00FC071F076
:1001880010C072F029EC06F00FC073F010C074F0C4
:100198000001695100016B25346E00016A510001AC
:1001A8006C21356E00016351345C0001645135588F
:1001B800D8B00DD0000E00016A6F000E696F000EF6
:1001C80000016C6F000E6B6F010E0001606F000183
:1001D8006D5100016F25346E00016E5100017021D0
:1001E800356E00016351345C000164513558D8B054
:1001F8000DD0000E00016E6F000E6D6F000E000135
:10020800706F000E6F6F010E0001616F0001715178
:1002180000017325346E0001725100017421356E9E
:1002280000016351345C000164513558D8B00DD0D9
:10023800000E0001726F000E716F000E0001746FE6
:10024800000E736F010E0001626F2FC026F030C0E0
:1002580027F031C028F032C029F09FEC05F00001EA
:10026800615160C034F0356A3426000E3522000131
:1002780062513426000E3522030E34183510D8A4E6
:1002880032D02FC02BF030C02CF031C02DF032C04E
:100298002EF0FCEC06F03350050DF3503DEC07F062
:1002A8002FC026F030C027F031C028F032C029F026
:1002B8009FEC05F02FC026F030C027F031C028F0A1
:1002C80032C029F09FEC06F033503DEC07F02FC008
:1002D80026F030C027F031C028F032C029F09FEC5A
:1002E80005F0000E1200000169510001655D000172
:1002F8006A5100016659D8B053D000016B51000112
:10030800655D00016C5100016659D8B049D020EEF6
:100318006BF0DECF34F0DDCF35F0341E351E344AB5
:10032800352A00016951342600016A51352200013D
:100338006751345C000168513558D8A016D069C09F
:1003480034F06AC035F0341E351E344A352A0001AF
:100358006B51342600016C51352200016751345C21
:10036800000168513558D8B01BD02FC02BF030C0D1
:100378002CF031C02DF032C02EF0FCEC06F03350DA
:10038800020DF3503DEC07F02FC026F030C027F0E7
:1003980031C028F032C029F09FEC05F0020E12009F
:1003A80000016D510001655D00016E510001665943
:1003B800D8B050D000016F510001655D0001705147
:1003C80000016659D8B046D020EE6FF0DECF34F089
:1003D800DDCF35F0341E351E344A352A00016D5103
:1003E800342600016E51352200016751345C00014A
:1003F80068513558D8A016D06DC034F06EC035F0AD
:10040800341E351E344A352A00016F513426000146
:100418007051352200016751345C0001685135582C
:10042800D8B018D02FC02BF030C02CF031C02DF030
:1004380032C02EF0FCEC06F033503DEC07F02FC034
:1004480026F030C027F031C028F032C029F09FECE8
:1004580005F0A4D7000171510001655D00017251DA
:1004680000016659D8B043D0000173510001655DA1
:100478000001745100016659D8B039D020EE73F0EC
:10048800DECF34F0DDCF35F0341E351E344A352A40
:100498000001715134260001725135220001675163
:1004A800345C000168513558D8A016D071C034F0BA
:1004B80072C035F0341E351E344A352A0001735196
:1004C800342600017451352200016751345C000163
:1004D80068513558D8B00BD02FC026F030C027F05F
:1004E80031C028F032C029F09FEC05F057D7000141
:1004F800695100016B5D00016A5100016C59D8B067
:100508001AD02FC02BF030C02CF031C02DF032C0E3
:100518002EF0FCEC06F03350030DF3503DEC07F0E1
:100528002FC026F030C027F031C028F032C029F0A3
:100538009FEC05F0D6D6000173510001715D0001F2
:10054800745100017259D8B018D02FC02BF030C0A8
:100558002CF031C02DF032C02EF0D7EC06F033501D
:100568003DEC07F02FC026F030C027F031C028F04E
:1005780032C029F09FEC05F0B4D600016B510001A0
:10058800695D00016C5100016A59D8B02FD0000193
:100598006D5100016F5D00016E5100017059D8B0B6
:1005A80025D02FC02BF030C02CF031C02DF032C038
:1005B8002EF0FCEC06F03350030DF3CF15F0F4CF1A
:1005C80016F0000E186E020E176EE7EC05F01550C7
:1005D8003DEC07F02FC026F030C027F031C028F0DE
:1005E80032C029F09FEC05F0010E12000001715194
:1005F8000001735D0001725100017459D8B02BD00D
:1006080000016F5100016D5D0001705100016E59CC
:10061800D8B021D02FC02BF030C02CF031C02DF035
:1006280032C02EF0FCEC06F033C015F0166A000E4E
:10063800186E020E176EE7EC05F015503DEC07F04A
:100648002FC026F030C027F031C028F032C029F082
:100658009FEC05F0C9D7000E1200000E366EC80ECA
:10066800356E050E386EDC0E376E010E3A6EF40EDE
:10067800396E64EC06F00FC03BF010C03CF029EC7A
:1006880006F00FC03DF010C03EF02FC026F030C07D
:1006980027F031C028F032C029F09FEC05F03B501C
:1006A8003D24336E3C503E20346E3350355C34501C
:1006B8003658D8B085D03B50375C3C503858D8B005
:1006C8002ED03D50375C3E503858D8B028D020EE58
:1006D8003DF0DECF33F0DDCF34F0331E341E334A25
:1006E800342A3B5033263C5034223950335C3A503C
:1006F8003458D8A012D03BC033F03CC034F0331E7D
:10070800341E334A342A3D5033263E503422395061
:10071800335C3A503458D8B002D0020E12003B5025
:100728003D5C3C503E58D8A023D02FC026F030C0A6
:1007380027F031C028F032C029F09FEC05F02FC017
:100748002BF030C02CF031C02DF032C02EF0FCEC74
:1007580006F0030E3DEC07F02FC026F030C027F05E
:1007680031C028F032C029F09FEC05F0010E1200CC
:100778003B503D5C3C503E58D8B069D02FC026F065
:1007880030C027F031C028F032C029F09FEC05F0C6
:100798002FC02BF030C02CF031C02DF032C02EF01D
:1007A800D7EC06F0030E3DEC07F02FC026F030C062
:1007B80027F031C028F032C029F09FEC05F0D6D7D9
:1007C8002FC026F030C027F031C028F032C029F001
:1007D8009FEC05F03B503D5C3C503E58D8A019D0EA
:1007E8002FC02BF030C02CF031C02DF032C02EF0CD
:1007F800FCEC06F0050E3DEC07F02FC026F030C0EB
:1008080027F031C028F032C029F09FEC05F0000E27
:1008180012003B503D5C3C503E58D8B018D02FC019
:100828002BF030C02CF031C02DF032C02EF0D7ECB8
:1008380006F0050E3DEC07F02FC026F030C027F07B
:1008480031C028F032C029F09FEC05F0E0D7000E47
:100858001200000E0001776F000E0001796F000E84
:1008680000017A6F000E0001766F000E756F060E9C
:100878000001786FF28ED08EF28CF288F28C9F8A0B
:100888009D8A000E00017B6F010E00017C6F790EBE
:1008980000017D6F0F0E00017E6F780E00017F6FE3
:1008A8000F0E0001806F000E0001816F000E000125
:1008B800836FC70E826F000E0001846F010E000166
:1008C800856F770E0001866F0F0E0001876F760E19
:1008D8000001886F0F0E0001896F020E00018A6FF8
:1008E800000E00018C6FC70E8B6F720ED36ED3B4DF
:1008F8007BD0FDD774EC07F0B3EC07F07B0E266EC7
:10090800000E276E840E286E000E296E9FEC06F0EE
:10091800010E21EC07F07B0E266E000E276E840E6A
:10092800286E000E296E9FEC05F07B0E2B6E000ED4
:100938002C6E840E2D6E000E2E6E59EC07F0010EF3
:1009480021EC07F07B0E266E000E276E840E286EB3
:10095800000E296E9FEC05F0010E0F6E000E8DEC57
:1009680007F0010E0F6E010E8DEC07F03AD0000172
:100978007A510001D8A40DD07B0E2F6E000E306E78
:10098800840E316E000E326E78C033F056EC00F0F3
:100998000ED000017A05D8A40DD07B0E2F6E000E64
:1009A800306E840E316E000E326E31EC03F00001B1
:1009B8007A6F1AD0020E00017A19D8A415D0020E47
:1009C80011D07B0E266E000E276E840E286E000E48
:1009D800296E9FEC06F0010E21EC07F0010E0001D4
:1009E8007A6F010E0001796F00017951000AD8B4BD
:1009F80081D7010AD8B4BBD7030AD8B4E2D7010A11
:100A0800F3D71DC0D9FF1EC0DAFFDF501F6E1F507D
:100A18000F6E106A20EE07F01D50D9261E50DA22FC
:100A2800DECF11F0DDCF12F0A0EC07F00FC015F00B
:100A380010C016F0000E186E640E176EE7EC05F085
:100A480015C024F016C025F020EE01F01D50D9265F
:100A58001E50DA22DF50D8B42CD020EE06F01D50FC
:100A6800D9261E50DA22DF501F6E010E206E1F2A73
:100A780002D0D89020361F2EFCD720508A108A6EBC
:100A880020EE07F01D50D9261E50DA22DECF1FF0C7
:100A9800DDCF20F024C021F025C022F0211E221E27
:100AA800214A222A1F502124246E20502220256EFC
:100AB80014D020EE06F01D50D9261E50DA22DF5041
:100AC8001F6E010E206E1F2A02D0D89020361F2ECE
:100AD800FCD72050FF0A8A148A6E20EE02F01D50BF
:100AE800D9261E50DA22DECF1FF0DDCF20F01FC03E
:100AF800D9FF20C0DAFF2444E846FC0BDF6E20EE65
:100B080004F01D50D9261E50DA22DECF1FF0DDCFAB
:100B180020F01FC0D9FF20C0DAFF24C021F025C073
:100B280022F0060E236E223422322132232EFBD7E6
:100B38002150DF6E120028D026C0D9FF27C0DAFF67
:100B4800DF50D8B405D026C0D9FF27C0DAFFDF06AA
:100B580028C0D9FF29C0DAFFDF50D8B405D028C093
:100B6800D9FF29C0DAFFDF0626C01DF027C01EF016
:100B780005EC05F028C01DF029C01EF005EC05F0B5
:100B8800210EE82EFED700F026C0D9FF27C0DAFFD5
:100B9800DF50D8A4D1D728C0D9FF29C0DAFFDF5049
:100BA800D8A4CAD720EE01F02650D9262750DA2239
:100BB800010EDF6E20EE01F02850D9262950DA22E6
:100BC800010EDF6E1200000E1A6E18AE06D0176CFA
:100BD800181ED8B0182A010E1A6E16AE06D0156C5B
:100BE800161ED8B0162A010E1A1A000E1C6E000E18
:100BF8001B6E17501810D8B41CD0010E196E04D0F3
:100C0800D89017361836192A18AEFAD7D8901B3646
:100C18001C361750155C18501658D8A005D0175018
:100C2800155E1850165A1B80D89018321732192E94
:100C3800EDD71A50D8B404D01B6C1C1ED8B01C2A8F
:100C48001BC015F01CC016F01200000E156E000E29
:100C5800146E000E166E000E166E030E166401D08A
:100C680020D06950116E126A060ED89011361236CD
:100C7800E82EFBD768CF13F0D8901332D8901332F0
:100C880013501112000E1212115014261250152270
:100C9800820E116EDE0EE82EFED7112EFCD7162A14
:100CA800DCD714C011F015C012F0D89012321132EE
:100CB800D8901232113211C00FF012C010F0120089
:100CC800000E156E000E146E000E166E000E166ED7
:100CD800030E166401D020D06750116E126A060EFA
:100CE800D89011361236E82EFBD766CF13F0D8907D
:100CF8001332D890133213501112000E12121150E1
:100D0800142612501522820E116EDE0EE82EFED722
:100D1800112EFCD7162ADCD714C011F015C012F01A
:100D2800D89012321132D8901232113211C00FF00D
:100D380012C010F0120028D026C0D9FF27C0DAFF51
:100D4800640EDF6005D026C0D9FF27C0DAFFDF2A8E
:100D580028C0D9FF29C0DAFF640EDF6005D028C09B
:100D6800D9FF29C0DAFFDF2A26C01DF027C01EF0F0
:100D780005EC05F028C01DF029C01EF005EC05F0B3
:100D8800210EE82EFED700F026C0D9FF27C0DAFFD3
:100D9800630EDF64D1D728C0D9FF29C0DAFF630EFC
:100DA800DF64CAD712002BC026F02CC027F02DC054
:100DB80028F02EC029F09FEC05F020EE01F02B5012
:100DC800D9262C50DA22010EDF6E20EE01F02D50CC
:100DD800D9262E50DA22000EDF6E2BC026F02CC04A
:100DE80027F02DC028F02EC029F09FEC06F0120045
:100DF8002BC026F02CC027F02DC028F02EC029F0DB
:100E08009FEC05F020EE01F02B50D9262C50DA2269
:100E1800000EDF6E20EE01F02D50D9262E50DA227A
:100E2800010EDF6E2BC026F02CC027F02DC028F055
:100E38002EC029F09FEC06F01200106E000E126E04
:100E4800000E116E000E126E010E116E09D0820E88
:100E58000F6EDE0EE82EFED70F2EFCD7114A122A8F
:100E68001050140D1150F35C1250F458D8A0120011
:100E7800EED7106E000E126E000E116E000E126E7E
:100E8800010E116E09D0820E0F6EDE0EE82EFED70F
:100E98000F2EFCD7114A122A1050020D1150F35C84
:100EA8001250F458D8A01200EED720EE01F02B50C3
:100EB800D9262C50DA22000EDF6E20EE01F02D50DC
:100EC800D9262E50DA22000EDF6E2BC026F02CC059
:100ED80027F02DC028F02EC029F09FEC06F0120054
:100EE800000E7F6E800E7E6E6F0E6F6E000E6E6E41
:100EF800C70E7B6E000E7A6E000E796E000E786E4D
:100F0800000E776E000E766E93909392939493965C
:100F18001200106E1050D8A406D00FB002D08D90D9
:100F280001D08D8012001004D8A412000FB002D096
:100F38008D9201D08D8212000F501102F3CF13F061
:100F4800F4CF14F00F501202F3501426105011026F
:100F5800F350142613C00FF014C010F01200899437
:100F6800899692849286B894B896B89CB89E060ED4
:100F7800636E060E626E96909692590EB76E1200C8
:100F880000EE3FF0110EEE6AE806FDE15090509237
:0A0F9800000EF86E00012DEF04F0CA
:020000040020DA
:08000000FFFFFFFFFFFFFFFF00
:020000040030CA
:0E000000FFC80F3E3C9D85FF0FC00FE00F4074
:00000001FF
