:0400000054EF00F0C9
:100008003C82FACF01F0FBCF02F0E9CF03F0EACF50
:1000180004F0E1CF05F0E2CF06F0D9CF07F0DACF50
:1000280008F0F3CF09F0F4CF0AF0F6CF0BF0F7CFD2
:100038000CF0F8CF0DF0F5CF0EF09EAA13D03B5080
:10004800010D2B0EF324D96E000EF420DA6EAECF1C
:10005800DFFF0F0E3B18D8A403D0000E3B6E01D073
:100068003B2A9E9A0EC0F5FF0DC0F8FF0CC0F7FFA3
:100078000BC0F6FF0AC0F4FF09C0F3FF08C0DAFF9F
:1000880007C0D9FF06C0E2FF05C0E1FF04C0EAFFD0
:1000980003C0E9FF02C0FBFF01C0FAFF3C92110058
:1000A80021EF01F0000E156E000E186E000E176E8F
:1000B800000E146E000E136E060E166EF28ED08EA3
:1000C800F28CF288F28C9F8A9D8A000E196E010EBE
:1000D8001A6E790E1B6E0F0E1C6E780E1D6E0F0EAB
:1000E8001E6E000E1F6E000E216EC70E206E000ED3
:1000F800226E010E236E770E246E0F0E256E760E7D
:10010800266E0F0E276E020E286E000E2A6EC70E80
:10011800296E720ED36ED3B41BD0FDD7D4EC00F089
:1001280011EC01F000EC01F0010E186E010E0F6EDB
:10013800000EEDEC00F0010E0F6E010EEDEC00F07C
:1001480007D0030EB8EC00F0010E176E010E186E02
:100158001850000AD8B4E2D7010AD8B4F9D7030A6C
:10016800D8B4EFD7010AF4D7106E000E126E000E45
:10017800116E000E126E010E116E09D0820E0F6EF6
:10018800DE0EE82EFED70F2EFCD7114A122A105089
:10019800140D1150F35C1250F458D8A01200EED789
:1001A800000E7F6E800E7E6E6F0E6F6E000E6E6E8E
:1001B800C70E7B6E000E7A6E000E796E000E786E9A
:1001C800000E776E000E766E9390939293949396AA
:1001D8001200106E1050D8A406D00FB002D08D9027
:1001E80001D08D8012001004D8A412000FB002D0E4
:1001F8008D9201D08D82120089948996928492867C
:10020800B894B896B89CB89E060E636E060E626ED9
:1002180096909692590EB76E1200010E0F6E94507A
:100228000FC094FFCD0EAF6E000EB06EAA86AC84E0
:10023800AB88AB8EAC98AB9C120000EE2BF0110E85
:10024800EE6AE806FDE13C903C92000EF86E000173
:0402580056EF00F06D
:020000040020DA
:08000000FFFFFFFFFFFFFFFF00
:020000040030CA
:0E000000FFC80F3E3C9D85FF0FC00FE00F4074
:00000001FF
