:0400000054EF00F0C9
:100008003B82FACF01F0FBCF02F0E9CF03F0EACF51
:1000180004F0E1CF05F0E2CF06F0D9CF07F0DACF50
:1000280008F0F3CF09F0F4CF0AF0F6CF0BF0F7CFD2
:100038000CF0F8CF0DF0F5CF0EF09EAA13D03A5081
:10004800010D800EF324D96E000EF420DA6EAECFC7
:10005800DFFF0F0E3A18D8A403D0000E3A6E01D075
:100068003A2A9E9A0EC0F5FF0DC0F8FF0CC0F7FFA4
:100078000BC0F6FF0AC0F4FF09C0F3FF08C0DAFF9F
:1000880007C0D9FF06C0E2FF05C0E1FF04C0EAFFD0
:1000980003C0E9FF02C0FBFF01C0FAFF3B92110059
:1000A800F0EF04F0010E0F6E000EBEEC04F0010E2E
:1000B8000F6E010EBEEC04F02FC026F030C027F002
:1000C80031C028F032C029F0E7EC02F0335076EC6A
:1000D80004F057EC04F016C036F017C037F02FC004
:1000E8002BF030C02CF031C02DF032C02EF032ECA5
:1000F80004F0335076EC04F02FC026F030C027F01F
:1001080031C028F032C029F0E7EC02F0335076EC29
:1001180004F057EC04F016C034F017C035F02FC0C7
:100128002BF030C02CF031C02DF032C02EF00DEC89
:1001380004F03350020DF35076EC04F02FC026F093
:1001480030C027F031C028F032C029F0E7EC02F0C7
:10015800335076EC04F057EC04F016C038F017C0B2
:1001680039F03850345C39503558D8B006D038504A
:10017800365C39503758D8A061D03650345C375087
:100188003558D8B01ED03650385C37503958D8B0AA
:1001980018D02FC02BF030C02CF031C02DF032C059
:1001A8002EF032EC04F0335076EC04F02FC026F039
:1001B80030C027F031C028F032C029F0E7EC02F057
:1001C8003DD03450365C35503758D8B020D03450F4
:1001D800385C35503958D8B01AD02FC02BF030C001
:1001E8002CF031C02DF032C02EF032EC04F0335038
:1001F800020DF35076EC04F02FC026F030C027F043
:1002080031C028F032C029F0E7EC02F017D02FC037
:100218002BF030C02CF031C02DF032C02EF032EC73
:1002280004F0335076EC04F02FC026F030C027F0ED
:1002380031C028F032C029F0E7EC02F0000E0F6E52
:10024800000EBEEC04F0000E0F6E010EBEEC04F0C2
:100258001200000E00016D6F000E00016C6F000EA1
:1002680000016B6F000E6A6FF28ED08EF28CF288EE
:10027800F28C9F8A9D8A000E00016E6F010E0001AC
:100288006F6F790E0001706F0F0E0001716F780E9D
:100298000001726F0F0E0001736F000E0001746F82
:1002A800000E0001766FC70E756F000E0001776FA4
:1002B800010E0001786F770E0001796F0F0E0001B3
:1002C8007A6F760E00017B6F0F0E00017C6F020EB5
:1002D80000017D6F000E00017F6FC70E7E6F720EEA
:1002E800D36ED3B46FD0FDD792EC04F0D1EC04F008
:1002F800E1EC04F0010E00016C6F64D06E0E2F6EFD
:10030800000E306E770E316E000E326E030E336EB5
:1003180056EC00F057D0030E00018F19D8A402D074
:10032800010E01D0000E386E020E00018019D8A40B
:1003380002D0010E01D0000E3814E8A043D0800E80
:100348000F6E000E106E8DEC02F00009D8B43AD092
:10035800000E00016D6F090E00016D6501D01CD003
:1003680000016D51386E396A010E3826000E3922A7
:10037800800E3824D96E000E3920DA6E00016D51D6
:10038800010D600EF324E16E000EF420E26EDFCF63
:10039800E7FF00016D2BDFD7000E00016D6F0F0E18
:1003A80000016D6501D00ED000016D51010D800E68
:1003B800F324D96E000EF420DA6E000EDF6E000111
:1003C8006D2BEDD700016C51000AD8B48DD7010A06
:1003D800D8B494D7030AD8B49ED7010AF3D71DC05E
:1003E800D9FF1EC0DAFFDF501F6E1F500F6E106A54
:1003F80020EE07F01D50D9261E50DA22DECF11F06C
:10040800DDCF12F0ABEC04F00FC015F010C016F001
:10041800000E186E640E176E2FEC03F015C024F052
:1004280016C025F020EE01F01D50D9261E50DA2204
:10043800DF50D8B42CD020EE06F01D50D9261E501F
:10044800DA22DF501F6E010E206E1F2A02D0D890CC
:1004580020361F2EFCD720508A108A6E20EE07F017
:100468001D50D9261E50DA22DECF1FF0DDCF20F036
:1004780024C021F025C022F0211E221E214A222A52
:100488001F502124246E20502220256E14D020EEE7
:1004980006F01D50D9261E50DA22DF501F6E010EBD
:1004A800206E1F2A02D0D89020361F2EFCD720504D
:1004B800FF0A8A148A6E20EE02F01D50D9261E50BB
:1004C800DA22DECF1FF0DDCF20F01FC0D9FF20C019
:1004D800DAFF2444E846FC0BDF6E20EE04F01D50E2
:1004E800D9261E50DA22DECF1FF0DDCF20F01FC044
:1004F800D9FF20C0DAFF24C021F025C022F0060E63
:10050800236E223422322132232EFBD72150DF6E74
:100518001200000E176E000E196E000E186E000EF7
:100528001A6E20EE04F00F50D9261050DA22DF5050
:10053800116E20EE03F00F50D9261050DA22DF504A
:10054800126E1250146E136A11501324186E000E96
:100558001420196E20EE02F00F50D9261050DA221E
:10056800DF501818176E050E1A6E090E1A6401D09E
:1005780028D01A50116E126A010E1126000E12228E
:1005880011500F24D96E12501020DA6EDF50136EFE
:100598001A50010DF3500F24D96EF4501020DA6E62
:1005A800DF50146E1450166E156A13501524186E09
:1005B800000E1620196E17501818176E020E1A26FC
:1005C800D4D7010E120028D026C0D9FF27C0DAFFE1
:1005D800DF50D8B405D026C0D9FF27C0DAFFDF0620
:1005E80028C0D9FF29C0DAFFDF50D8B405D028C009
:1005F800D9FF29C0DAFFDF0626C01DF027C01EF08C
:10060800F3EC01F028C01DF029C01EF0F3EC01F056
:10061800210EE82EFED700F026C0D9FF27C0DAFF4A
:10062800DF50D8A4D1D728C0D9FF29C0DAFFDF50BE
:10063800D8A4CAD720EE01F02650D9262750DA22AE
:10064800010EDF6E20EE01F02850D9262950DA225B
:10065800010EDF6E1200000E1A6E18AE06D0176C6F
:10066800181ED8B0182A010E1A6E16AE06D0156CD0
:10067800161ED8B0162A010E1A1A000E1C6E000E8D
:100688001B6E17501810D8B41CD0010E196E04D068
:10069800D89017361836192A18AEFAD7D8901B36BC
:1006A8001C361750155C18501658D8A005D017508E
:1006B800155E1850165A1B80D89018321732192E0A
:1006C800EDD71A50D8B404D01B6C1C1ED8B01C2A05
:1006D8001BC015F01CC016F0120028D026C0D9FF88
:1006E80027C0DAFF640EDF6005D026C0D9FF27C017
:1006F800DAFFDF2A28C0D9FF29C0DAFF640EDF60DD
:1007080005D028C0D9FF29C0DAFFDF2A26C01DF08E
:1007180027C01EF0F3EC01F028C01DF029C01EF020
:10072800F3EC01F0210EE82EFED700F026C0D9FF29
:1007380027C0DAFF630EDF64D1D728C0D9FF29C0EC
:10074800DAFF630EDF64CAD71200000E146E000EC3
:10075800136E000E156E000E156E030E156401D093
:1007680017D0685069CF11F0126A11C012F0116ADF
:100778001112000E12121150132612501422820E5A
:10078800116EDE0EE82EFED7112EFCD7152AE5D7FE
:1007980013C011F014C012F0D89011361236D89048
:1007A8001136123611C00FF012C010F01200000EF0
:1007B800146E000E136E000E156E000E156E030EED
:1007C800156401D017D0665067CF11F0126A11C0B6
:1007D80012F0116A1112000E121211501326125043
:1007E8001422820E116EDE0EE82EFED7112EFCD7D3
:1007F800152AE5D713C011F014C012F0D89011369D
:100808001236D8901136123611C00FF012C010F0FF
:1008180012002BC026F02CC027F02DC028F02EC0C7
:1008280029F0E7EC02F020EE01F02B50D9262C50ED
:10083800DA22010EDF6E20EE01F02D50D9262E505F
:10084800DA22000EDF6E2BC026F02CC027F02DC058
:1008580028F02EC029F071EC03F012002BC026F00E
:100868002CC027F02DC028F02EC029F0E7EC02F0AC
:1008780020EE01F02B50D9262C50DA22000EDF6E24
:1008880020EE01F02D50D9262E50DA22010EDF6E0F
:100898002BC026F02CC027F02DC028F02EC029F040
:1008A80071EC03F01200000E1B6E000E1A6EA9EC1C
:1008B80003F00F501A2610501B22DBEC03F00F50E8
:1008C8001A2610501B221AC018F01BC019F0D89015
:1008D80018361936D8901836193618C016F019C0B7
:1008E80017F01200106E000E126E000E116E000E40
:1008F800126E010E116E09D0820E0F6EDE0EE82EFA
:10090800FED70F2EFCD7114A122A1050020D115093
:10091800F35C1250F458D8A01200EED7000E7F6E88
:10092800800E7E6E6F0E6F6E000E6E6EC70E7B6E43
:10093800000E7A6E000E796E000E786E000E776EDD
:10094800000E766E939093929394939612000F50A4
:100958001102F3CF13F0F4CF14F00F501202F3503A
:10096800142610501102F350142613C00FF014C0AF
:1009780010F01200106E1050D8A406D00FB002D09C
:100988008D9001D08D8012001004D8A412000FB0F1
:1009980002D08D9201D08D821200010E0F6E9450FC
:1009A8000FC094FFCD0EAF6E000EB06EAA86AC8459
:1009B800AB88AB8EAC98AB9C1200899489969284D4
:1009C8009286B894B896060E636E060E626E96907E
:1009D8009692590EB76E120000EE80F0100EEE6A75
:1009E800E806FDE13A6A3B903B92000EF86E000182
:0409F8002DEF01F0EE
:020000040020DA
:08000000FFFFFFFFFFFFFFFF00
:020000040030CA
:0E000000FFC80F3E3C9D85FF0FC00FE00F4074
:00000001FF
